{
  "contractName": "FlatNFT",
  "abi": [
    {
      "inputs": [
        {
          "internalType": "address",
          "name": "_marketplaceContract",
          "type": "address"
        }
      ],
      "stateMutability": "nonpayable",
      "type": "constructor"
    },
    {
      "anonymous": false,
      "inputs": [
        {
          "indexed": true,
          "internalType": "address",
          "name": "owner",
          "type": "address"
        },
        {
          "indexed": true,
          "internalType": "address",
          "name": "approved",
          "type": "address"
        },
        {
          "indexed": true,
          "internalType": "uint256",
          "name": "tokenId",
          "type": "uint256"
        }
      ],
      "name": "Approval",
      "type": "event"
    },
    {
      "anonymous": false,
      "inputs": [
        {
          "indexed": true,
          "internalType": "address",
          "name": "owner",
          "type": "address"
        },
        {
          "indexed": true,
          "internalType": "address",
          "name": "operator",
          "type": "address"
        },
        {
          "indexed": false,
          "internalType": "bool",
          "name": "approved",
          "type": "bool"
        }
      ],
      "name": "ApprovalForAll",
      "type": "event"
    },
    {
      "anonymous": false,
      "inputs": [
        {
          "indexed": false,
          "internalType": "address[]",
          "name": "to",
          "type": "address[]"
        },
        {
          "indexed": false,
          "internalType": "string[]",
          "name": "uri",
          "type": "string[]"
        }
      ],
      "name": "BatchMinted",
      "type": "event"
    },
    {
      "anonymous": false,
      "inputs": [
        {
          "indexed": false,
          "internalType": "uint256",
          "name": "",
          "type": "uint256"
        }
      ],
      "name": "NFTMinted",
      "type": "event"
    },
    {
      "anonymous": false,
      "inputs": [
        {
          "indexed": true,
          "internalType": "address",
          "name": "previousOwner",
          "type": "address"
        },
        {
          "indexed": true,
          "internalType": "address",
          "name": "newOwner",
          "type": "address"
        }
      ],
      "name": "OwnershipTransferred",
      "type": "event"
    },
    {
      "anonymous": false,
      "inputs": [
        {
          "indexed": true,
          "internalType": "address",
          "name": "from",
          "type": "address"
        },
        {
          "indexed": true,
          "internalType": "address",
          "name": "to",
          "type": "address"
        },
        {
          "indexed": true,
          "internalType": "uint256",
          "name": "tokenId",
          "type": "uint256"
        }
      ],
      "name": "Transfer",
      "type": "event"
    },
    {
      "inputs": [
        {
          "internalType": "address",
          "name": "to",
          "type": "address"
        },
        {
          "internalType": "uint256",
          "name": "tokenId",
          "type": "uint256"
        }
      ],
      "name": "approve",
      "outputs": [],
      "stateMutability": "nonpayable",
      "type": "function"
    },
    {
      "inputs": [
        {
          "internalType": "address",
          "name": "owner",
          "type": "address"
        }
      ],
      "name": "balanceOf",
      "outputs": [
        {
          "internalType": "uint256",
          "name": "",
          "type": "uint256"
        }
      ],
      "stateMutability": "view",
      "type": "function"
    },
    {
      "inputs": [
        {
          "internalType": "uint256",
          "name": "tokenId",
          "type": "uint256"
        }
      ],
      "name": "getApproved",
      "outputs": [
        {
          "internalType": "address",
          "name": "",
          "type": "address"
        }
      ],
      "stateMutability": "view",
      "type": "function"
    },
    {
      "inputs": [
        {
          "internalType": "address",
          "name": "owner",
          "type": "address"
        },
        {
          "internalType": "address",
          "name": "operator",
          "type": "address"
        }
      ],
      "name": "isApprovedForAll",
      "outputs": [
        {
          "internalType": "bool",
          "name": "",
          "type": "bool"
        }
      ],
      "stateMutability": "view",
      "type": "function"
    },
    {
      "inputs": [],
      "name": "name",
      "outputs": [
        {
          "internalType": "string",
          "name": "",
          "type": "string"
        }
      ],
      "stateMutability": "view",
      "type": "function"
    },
    {
      "inputs": [],
      "name": "owner",
      "outputs": [
        {
          "internalType": "address",
          "name": "",
          "type": "address"
        }
      ],
      "stateMutability": "view",
      "type": "function"
    },
    {
      "inputs": [
        {
          "internalType": "uint256",
          "name": "tokenId",
          "type": "uint256"
        }
      ],
      "name": "ownerOf",
      "outputs": [
        {
          "internalType": "address",
          "name": "",
          "type": "address"
        }
      ],
      "stateMutability": "view",
      "type": "function"
    },
    {
      "inputs": [],
      "name": "renounceOwnership",
      "outputs": [],
      "stateMutability": "nonpayable",
      "type": "function"
    },
    {
      "inputs": [
        {
          "internalType": "address",
          "name": "from",
          "type": "address"
        },
        {
          "internalType": "address",
          "name": "to",
          "type": "address"
        },
        {
          "internalType": "uint256",
          "name": "tokenId",
          "type": "uint256"
        }
      ],
      "name": "safeTransferFrom",
      "outputs": [],
      "stateMutability": "nonpayable",
      "type": "function"
    },
    {
      "inputs": [
        {
          "internalType": "address",
          "name": "from",
          "type": "address"
        },
        {
          "internalType": "address",
          "name": "to",
          "type": "address"
        },
        {
          "internalType": "uint256",
          "name": "tokenId",
          "type": "uint256"
        },
        {
          "internalType": "bytes",
          "name": "data",
          "type": "bytes"
        }
      ],
      "name": "safeTransferFrom",
      "outputs": [],
      "stateMutability": "nonpayable",
      "type": "function"
    },
    {
      "inputs": [
        {
          "internalType": "address",
          "name": "operator",
          "type": "address"
        },
        {
          "internalType": "bool",
          "name": "approved",
          "type": "bool"
        }
      ],
      "name": "setApprovalForAll",
      "outputs": [],
      "stateMutability": "nonpayable",
      "type": "function"
    },
    {
      "inputs": [],
      "name": "symbol",
      "outputs": [
        {
          "internalType": "string",
          "name": "",
          "type": "string"
        }
      ],
      "stateMutability": "view",
      "type": "function"
    },
    {
      "inputs": [
        {
          "internalType": "uint256",
          "name": "index",
          "type": "uint256"
        }
      ],
      "name": "tokenByIndex",
      "outputs": [
        {
          "internalType": "uint256",
          "name": "",
          "type": "uint256"
        }
      ],
      "stateMutability": "view",
      "type": "function"
    },
    {
      "inputs": [
        {
          "internalType": "address",
          "name": "owner",
          "type": "address"
        },
        {
          "internalType": "uint256",
          "name": "index",
          "type": "uint256"
        }
      ],
      "name": "tokenOfOwnerByIndex",
      "outputs": [
        {
          "internalType": "uint256",
          "name": "",
          "type": "uint256"
        }
      ],
      "stateMutability": "view",
      "type": "function"
    },
    {
      "inputs": [],
      "name": "totalSupply",
      "outputs": [
        {
          "internalType": "uint256",
          "name": "",
          "type": "uint256"
        }
      ],
      "stateMutability": "view",
      "type": "function"
    },
    {
      "inputs": [
        {
          "internalType": "address",
          "name": "from",
          "type": "address"
        },
        {
          "internalType": "address",
          "name": "to",
          "type": "address"
        },
        {
          "internalType": "uint256",
          "name": "tokenId",
          "type": "uint256"
        }
      ],
      "name": "transferFrom",
      "outputs": [],
      "stateMutability": "nonpayable",
      "type": "function"
    },
    {
      "inputs": [
        {
          "internalType": "address",
          "name": "newOwner",
          "type": "address"
        }
      ],
      "name": "transferOwnership",
      "outputs": [],
      "stateMutability": "nonpayable",
      "type": "function"
    },
    {
      "inputs": [
        {
          "internalType": "address",
          "name": "to",
          "type": "address"
        },
        {
          "internalType": "string",
          "name": "uri",
          "type": "string"
        }
      ],
      "name": "safeMint",
      "outputs": [],
      "stateMutability": "nonpayable",
      "type": "function"
    },
    {
      "inputs": [
        {
          "internalType": "address[]",
          "name": "to",
          "type": "address[]"
        },
        {
          "internalType": "string[]",
          "name": "uri",
          "type": "string[]"
        }
      ],
      "name": "safeBatchMint",
      "outputs": [],
      "stateMutability": "nonpayable",
      "type": "function"
    },
    {
      "inputs": [],
      "name": "getContractAddress",
      "outputs": [
        {
          "internalType": "address",
          "name": "",
          "type": "address"
        }
      ],
      "stateMutability": "view",
      "type": "function"
    },
    {
      "inputs": [
        {
          "internalType": "uint256",
          "name": "tokenId",
          "type": "uint256"
        }
      ],
      "name": "tokenURI",
      "outputs": [
        {
          "internalType": "string",
          "name": "",
          "type": "string"
        }
      ],
      "stateMutability": "view",
      "type": "function"
    },
    {
      "inputs": [
        {
          "internalType": "bytes4",
          "name": "interfaceId",
          "type": "bytes4"
        }
      ],
      "name": "supportsInterface",
      "outputs": [
        {
          "internalType": "bool",
          "name": "",
          "type": "bool"
        }
      ],
      "stateMutability": "view",
      "type": "function"
    }
  ],
  "bytecode": "0x60806040523480156200001157600080fd5b506040516200415438038062004154833981810160405281019062000037919062000327565b6040518060400160405280601181526020017f4d65746120446543656e7465726c616e640000000000000000000000000000008152506040518060400160405280600481526020017f4d44434c000000000000000000000000000000000000000000000000000000008152508160009080519060200190620000bb9291906200020d565b508060019080519060200190620000d49291906200020d565b505050620000f7620000eb6200013f60201b60201c565b6200014760201b60201c565b80600d60006101000a81548173ffffffffffffffffffffffffffffffffffffffff021916908373ffffffffffffffffffffffffffffffffffffffff16021790555050620003bd565b600033905090565b6000600b60009054906101000a900473ffffffffffffffffffffffffffffffffffffffff16905081600b60006101000a81548173ffffffffffffffffffffffffffffffffffffffff021916908373ffffffffffffffffffffffffffffffffffffffff1602179055508173ffffffffffffffffffffffffffffffffffffffff168173ffffffffffffffffffffffffffffffffffffffff167f8be0079c531659141344cd1fd0a4f28419497f9722a3daafe3b4186f6b6457e060405160405180910390a35050565b8280546200021b9062000388565b90600052602060002090601f0160209004810192826200023f57600085556200028b565b82601f106200025a57805160ff19168380011785556200028b565b828001600101855582156200028b579182015b828111156200028a5782518255916020019190600101906200026d565b5b5090506200029a91906200029e565b5090565b5b80821115620002b95760008160009055506001016200029f565b5090565b600080fd5b600073ffffffffffffffffffffffffffffffffffffffff82169050919050565b6000620002ef82620002c2565b9050919050565b6200030181620002e2565b81146200030d57600080fd5b50565b6000815190506200032181620002f6565b92915050565b60006020828403121562000340576200033f620002bd565b5b6000620003508482850162000310565b91505092915050565b7f4e487b7100000000000000000000000000000000000000000000000000000000600052602260045260246000fd5b60006002820490506001821680620003a157607f821691505b602082108103620003b757620003b662000359565b5b50919050565b613d8780620003cd6000396000f3fe608060405234801561001057600080fd5b50600436106101425760003560e01c806370a08231116100b8578063b88d4fde1161007c578063b88d4fde14610377578063c87b56dd14610393578063d204c45e146103c3578063e259ea2e146103df578063e985e9c5146103fb578063f2fde38b1461042b57610142565b806370a08231146102e5578063715018a6146103155780638da5cb5b1461031f57806395d89b411461033d578063a22cb4651461035b57610142565b806323b872dd1161010a57806323b872dd146101ff5780632f745c591461021b57806332a2c5d01461024b57806342842e0e146102695780634f6ccce7146102855780636352211e146102b557610142565b806301ffc9a71461014757806306fdde0314610177578063081812fc14610195578063095ea7b3146101c557806318160ddd146101e1575b600080fd5b610161600480360381019061015c919061264a565b610447565b60405161016e9190612692565b60405180910390f35b61017f610459565b60405161018c9190612746565b60405180910390f35b6101af60048036038101906101aa919061279e565b6104eb565b6040516101bc919061280c565b60405180910390f35b6101df60048036038101906101da9190612853565b610531565b005b6101e9610648565b6040516101f691906128a2565b60405180910390f35b610219600480360381019061021491906128bd565b610655565b005b61023560048036038101906102309190612853565b6106b5565b60405161024291906128a2565b60405180910390f35b61025361075a565b604051610260919061280c565b60405180910390f35b610283600480360381019061027e91906128bd565b610762565b005b61029f600480360381019061029a919061279e565b610782565b6040516102ac91906128a2565b60405180910390f35b6102cf60048036038101906102ca919061279e565b6107f3565b6040516102dc919061280c565b60405180910390f35b6102ff60048036038101906102fa9190612910565b610879565b60405161030c91906128a2565b60405180910390f35b61031d610930565b005b610327610944565b604051610334919061280c565b60405180910390f35b61034561096e565b6040516103529190612746565b60405180910390f35b61037560048036038101906103709190612969565b610a00565b005b610391600480360381019061038c9190612ade565b610a16565b005b6103ad60048036038101906103a8919061279e565b610a78565b6040516103ba9190612746565b60405180910390f35b6103dd60048036038101906103d89190612c02565b610a8a565b005b6103f960048036038101906103f49190612e07565b610b27565b005b61041560048036038101906104109190612e7f565b610c0e565b6040516104229190612692565b60405180910390f35b61044560048036038101906104409190612910565b610ca2565b005b600061045282610d25565b9050919050565b60606000805461046890612eee565b80601f016020809104026020016040519081016040528092919081815260200182805461049490612eee565b80156104e15780601f106104b6576101008083540402835291602001916104e1565b820191906000526020600020905b8154815290600101906020018083116104c457829003601f168201915b5050505050905090565b60006104f682610d9f565b6004600083815260200190815260200160002060009054906101000a900473ffffffffffffffffffffffffffffffffffffffff169050919050565b600061053c826107f3565b90508073ffffffffffffffffffffffffffffffffffffffff168373ffffffffffffffffffffffffffffffffffffffff16036105ac576040517f08c379a00000000000000000000000000000000000000000000000000000000081526004016105a390612f91565b60405180910390fd5b8073ffffffffffffffffffffffffffffffffffffffff166105cb610dea565b73ffffffffffffffffffffffffffffffffffffffff1614806105fa57506105f9816105f4610dea565b610c0e565b5b610639576040517f08c379a000000000000000000000000000000000000000000000000000000000815260040161063090613023565b60405180910390fd5b6106438383610df2565b505050565b6000600980549050905090565b610666610660610dea565b82610eab565b6106a5576040517f08c379a000000000000000000000000000000000000000000000000000000000815260040161069c906130b5565b60405180910390fd5b6106b0838383610f40565b505050565b60006106c083610879565b8210610701576040517f08c379a00000000000000000000000000000000000000000000000000000000081526004016106f890613147565b60405180910390fd5b600760008473ffffffffffffffffffffffffffffffffffffffff1673ffffffffffffffffffffffffffffffffffffffff168152602001908152602001600020600083815260200190815260200160002054905092915050565b600030905090565b61077d83838360405180602001604052806000815250610a16565b505050565b600061078c610648565b82106107cd576040517f08c379a00000000000000000000000000000000000000000000000000000000081526004016107c4906131d9565b60405180910390fd5b600982815481106107e1576107e06131f9565b5b90600052602060002001549050919050565b6000806107ff83611239565b9050600073ffffffffffffffffffffffffffffffffffffffff168173ffffffffffffffffffffffffffffffffffffffff1603610870576040517f08c379a000000000000000000000000000000000000000000000000000000000815260040161086790613274565b60405180910390fd5b80915050919050565b60008073ffffffffffffffffffffffffffffffffffffffff168273ffffffffffffffffffffffffffffffffffffffff16036108e9576040517f08c379a00000000000000000000000000000000000000000000000000000000081526004016108e090613306565b60405180910390fd5b600360008373ffffffffffffffffffffffffffffffffffffffff1673ffffffffffffffffffffffffffffffffffffffff168152602001908152602001600020549050919050565b610938611276565b61094260006112f4565b565b6000600b60009054906101000a900473ffffffffffffffffffffffffffffffffffffffff16905090565b60606001805461097d90612eee565b80601f01602080910402602001604051908101604052809291908181526020018280546109a990612eee565b80156109f65780601f106109cb576101008083540402835291602001916109f6565b820191906000526020600020905b8154815290600101906020018083116109d957829003601f168201915b5050505050905090565b610a12610a0b610dea565b83836113ba565b5050565b610a27610a21610dea565b83610eab565b610a66576040517f08c379a0000000000000000000000000000000000000000000000000000000008152600401610a5d906130b5565b60405180910390fd5b610a7284848484611526565b50505050565b6060610a8382611582565b9050919050565b610a92611276565b6000610a9e600c611694565b9050610aaa600c6116a2565b610ab483826116b8565b610abe81836116d6565b610aeb600d60009054906101000a900473ffffffffffffffffffffffffffffffffffffffff166001610a00565b7fd9dc24857f317ed9abbbb42e920ede0104231eb1d3d70236a74887ffaf15986881604051610b1a91906128a2565b60405180910390a1505050565b610b2f611276565b8051825114610b73576040517f08c379a0000000000000000000000000000000000000000000000000000000008152600401610b6a90613372565b60405180910390fd5b60005b8251811015610bd057610bbd838281518110610b9557610b946131f9565b5b6020026020010151838381518110610bb057610baf6131f9565b5b6020026020010151610a8a565b8080610bc8906133c1565b915050610b76565b507faa49f8ffba600023d408ee31e63dce9f73928f32dd21bf7ce8c3b5cab21ac0998282604051610c029291906135d3565b60405180910390a15050565b6000600560008473ffffffffffffffffffffffffffffffffffffffff1673ffffffffffffffffffffffffffffffffffffffff16815260200190815260200160002060008373ffffffffffffffffffffffffffffffffffffffff1673ffffffffffffffffffffffffffffffffffffffff16815260200190815260200160002060009054906101000a900460ff16905092915050565b610caa611276565b600073ffffffffffffffffffffffffffffffffffffffff168173ffffffffffffffffffffffffffffffffffffffff1603610d19576040517f08c379a0000000000000000000000000000000000000000000000000000000008152600401610d109061367c565b60405180910390fd5b610d22816112f4565b50565b60007f780e9d63000000000000000000000000000000000000000000000000000000007bffffffffffffffffffffffffffffffffffffffffffffffffffffffff1916827bffffffffffffffffffffffffffffffffffffffffffffffffffffffff19161480610d985750610d978261174a565b5b9050919050565b610da88161182c565b610de7576040517f08c379a0000000000000000000000000000000000000000000000000000000008152600401610dde90613274565b60405180910390fd5b50565b600033905090565b816004600083815260200190815260200160002060006101000a81548173ffffffffffffffffffffffffffffffffffffffff021916908373ffffffffffffffffffffffffffffffffffffffff160217905550808273ffffffffffffffffffffffffffffffffffffffff16610e65836107f3565b73ffffffffffffffffffffffffffffffffffffffff167f8c5be1e5ebec7d5bd14f71427d1e84f3dd0314c0f7b2291e5b200ac8c7c3b92560405160405180910390a45050565b600080610eb7836107f3565b90508073ffffffffffffffffffffffffffffffffffffffff168473ffffffffffffffffffffffffffffffffffffffff161480610ef95750610ef88185610c0e565b5b80610f3757508373ffffffffffffffffffffffffffffffffffffffff16610f1f846104eb565b73ffffffffffffffffffffffffffffffffffffffff16145b91505092915050565b8273ffffffffffffffffffffffffffffffffffffffff16610f60826107f3565b73ffffffffffffffffffffffffffffffffffffffff1614610fb6576040517f08c379a0000000000000000000000000000000000000000000000000000000008152600401610fad9061370e565b60405180910390fd5b600073ffffffffffffffffffffffffffffffffffffffff168273ffffffffffffffffffffffffffffffffffffffff1603611025576040517f08c379a000000000000000000000000000000000000000000000000000000000815260040161101c906137a0565b60405180910390fd5b611032838383600161186d565b8273ffffffffffffffffffffffffffffffffffffffff16611052826107f3565b73ffffffffffffffffffffffffffffffffffffffff16146110a8576040517f08c379a000000000000000000000000000000000000000000000000000000000815260040161109f9061370e565b60405180910390fd5b6004600082815260200190815260200160002060006101000a81549073ffffffffffffffffffffffffffffffffffffffff02191690556001600360008573ffffffffffffffffffffffffffffffffffffffff1673ffffffffffffffffffffffffffffffffffffffff168152602001908152602001600020600082825403925050819055506001600360008473ffffffffffffffffffffffffffffffffffffffff1673ffffffffffffffffffffffffffffffffffffffff16815260200190815260200160002060008282540192505081905550816002600083815260200190815260200160002060006101000a81548173ffffffffffffffffffffffffffffffffffffffff021916908373ffffffffffffffffffffffffffffffffffffffff160217905550808273ffffffffffffffffffffffffffffffffffffffff168473ffffffffffffffffffffffffffffffffffffffff167fddf252ad1be2c89b69c2b068fc378daa952ba7f163c4a11628f55a4df523b3ef60405160405180910390a4611234838383600161187f565b505050565b60006002600083815260200190815260200160002060009054906101000a900473ffffffffffffffffffffffffffffffffffffffff169050919050565b61127e610dea565b73ffffffffffffffffffffffffffffffffffffffff1661129c610944565b73ffffffffffffffffffffffffffffffffffffffff16146112f2576040517f08c379a00000000000000000000000000000000000000000000000000000000081526004016112e99061380c565b60405180910390fd5b565b6000600b60009054906101000a900473ffffffffffffffffffffffffffffffffffffffff16905081600b60006101000a81548173ffffffffffffffffffffffffffffffffffffffff021916908373ffffffffffffffffffffffffffffffffffffffff1602179055508173ffffffffffffffffffffffffffffffffffffffff168173ffffffffffffffffffffffffffffffffffffffff167f8be0079c531659141344cd1fd0a4f28419497f9722a3daafe3b4186f6b6457e060405160405180910390a35050565b8173ffffffffffffffffffffffffffffffffffffffff168373ffffffffffffffffffffffffffffffffffffffff1603611428576040517f08c379a000000000000000000000000000000000000000000000000000000000815260040161141f90613878565b60405180910390fd5b80600560008573ffffffffffffffffffffffffffffffffffffffff1673ffffffffffffffffffffffffffffffffffffffff16815260200190815260200160002060008473ffffffffffffffffffffffffffffffffffffffff1673ffffffffffffffffffffffffffffffffffffffff16815260200190815260200160002060006101000a81548160ff0219169083151502179055508173ffffffffffffffffffffffffffffffffffffffff168373ffffffffffffffffffffffffffffffffffffffff167f17307eab39ab6107e8899845ad3d59bd9653f200f220920489ca2b5937696c31836040516115199190612692565b60405180910390a3505050565b611531848484610f40565b61153d84848484611885565b61157c576040517f08c379a00000000000000000000000000000000000000000000000000000000081526004016115739061390a565b60405180910390fd5b50505050565b606061158d82610d9f565b60006006600084815260200190815260200160002080546115ad90612eee565b80601f01602080910402602001604051908101604052809291908181526020018280546115d990612eee565b80156116265780601f106115fb57610100808354040283529160200191611626565b820191906000526020600020905b81548152906001019060200180831161160957829003601f168201915b505050505090506000611637611a0c565b9050600081510361164c57819250505061168f565b600082511115611681578082604051602001611669929190613966565b6040516020818303038152906040529250505061168f565b61168a84611a23565b925050505b919050565b600081600001549050919050565b6001816000016000828254019250508190555050565b6116d2828260405180602001604052806000815250611a8b565b5050565b6116df8261182c565b61171e576040517f08c379a0000000000000000000000000000000000000000000000000000000008152600401611715906139fc565b60405180910390fd5b8060066000848152602001908152602001600020908051906020019061174592919061253b565b505050565b60007f80ac58cd000000000000000000000000000000000000000000000000000000007bffffffffffffffffffffffffffffffffffffffffffffffffffffffff1916827bffffffffffffffffffffffffffffffffffffffffffffffffffffffff1916148061181557507f5b5e139f000000000000000000000000000000000000000000000000000000007bffffffffffffffffffffffffffffffffffffffffffffffffffffffff1916827bffffffffffffffffffffffffffffffffffffffffffffffffffffffff1916145b80611825575061182482611ae6565b5b9050919050565b60008073ffffffffffffffffffffffffffffffffffffffff1661184e83611239565b73ffffffffffffffffffffffffffffffffffffffff1614159050919050565b61187984848484611b50565b50505050565b50505050565b60006118a68473ffffffffffffffffffffffffffffffffffffffff16611cae565b156119ff578373ffffffffffffffffffffffffffffffffffffffff1663150b7a026118cf610dea565b8786866040518563ffffffff1660e01b81526004016118f19493929190613a71565b6020604051808303816000875af192505050801561192d57506040513d601f19601f8201168201806040525081019061192a9190613ad2565b60015b6119af573d806000811461195d576040519150601f19603f3d011682016040523d82523d6000602084013e611962565b606091505b5060008151036119a7576040517f08c379a000000000000000000000000000000000000000000000000000000000815260040161199e9061390a565b60405180910390fd5b805181602001fd5b63150b7a0260e01b7bffffffffffffffffffffffffffffffffffffffffffffffffffffffff1916817bffffffffffffffffffffffffffffffffffffffffffffffffffffffff191614915050611a04565b600190505b949350505050565b606060405180602001604052806000815250905090565b6060611a2e82610d9f565b6000611a38611a0c565b90506000815111611a585760405180602001604052806000815250611a83565b80611a6284611cd1565b604051602001611a73929190613966565b6040516020818303038152906040525b915050919050565b611a958383611d9f565b611aa26000848484611885565b611ae1576040517f08c379a0000000000000000000000000000000000000000000000000000000008152600401611ad89061390a565b60405180910390fd5b505050565b60007f01ffc9a7000000000000000000000000000000000000000000000000000000007bffffffffffffffffffffffffffffffffffffffffffffffffffffffff1916827bffffffffffffffffffffffffffffffffffffffffffffffffffffffff1916149050919050565b611b5c84848484611fbc565b6001811115611ba0576040517f08c379a0000000000000000000000000000000000000000000000000000000008152600401611b9790613b71565b60405180910390fd5b6000829050600073ffffffffffffffffffffffffffffffffffffffff168573ffffffffffffffffffffffffffffffffffffffff1603611be757611be2816120e2565b611c26565b8373ffffffffffffffffffffffffffffffffffffffff168573ffffffffffffffffffffffffffffffffffffffff1614611c2557611c24858261212b565b5b5b600073ffffffffffffffffffffffffffffffffffffffff168473ffffffffffffffffffffffffffffffffffffffff1603611c6857611c6381612298565b611ca7565b8473ffffffffffffffffffffffffffffffffffffffff168473ffffffffffffffffffffffffffffffffffffffff1614611ca657611ca58482612369565b5b5b5050505050565b6000808273ffffffffffffffffffffffffffffffffffffffff163b119050919050565b606060006001611ce0846123e8565b01905060008167ffffffffffffffff811115611cff57611cfe6129b3565b5b6040519080825280601f01601f191660200182016040528015611d315781602001600182028036833780820191505090505b509050600082602001820190505b600115611d94578080600190039150507f3031323334353637383961626364656600000000000000000000000000000000600a86061a8153600a8581611d8857611d87613b91565b5b04945060008503611d3f575b819350505050919050565b600073ffffffffffffffffffffffffffffffffffffffff168273ffffffffffffffffffffffffffffffffffffffff1603611e0e576040517f08c379a0000000000000000000000000000000000000000000000000000000008152600401611e0590613c0c565b60405180910390fd5b611e178161182c565b15611e57576040517f08c379a0000000000000000000000000000000000000000000000000000000008152600401611e4e90613c78565b60405180910390fd5b611e6560008383600161186d565b611e6e8161182c565b15611eae576040517f08c379a0000000000000000000000000000000000000000000000000000000008152600401611ea590613c78565b60405180910390fd5b6001600360008473ffffffffffffffffffffffffffffffffffffffff1673ffffffffffffffffffffffffffffffffffffffff16815260200190815260200160002060008282540192505081905550816002600083815260200190815260200160002060006101000a81548173ffffffffffffffffffffffffffffffffffffffff021916908373ffffffffffffffffffffffffffffffffffffffff160217905550808273ffffffffffffffffffffffffffffffffffffffff16600073ffffffffffffffffffffffffffffffffffffffff167fddf252ad1be2c89b69c2b068fc378daa952ba7f163c4a11628f55a4df523b3ef60405160405180910390a4611fb860008383600161187f565b5050565b60018111156120dc57600073ffffffffffffffffffffffffffffffffffffffff168473ffffffffffffffffffffffffffffffffffffffff16146120505780600360008673ffffffffffffffffffffffffffffffffffffffff1673ffffffffffffffffffffffffffffffffffffffff16815260200190815260200160002060008282546120489190613c98565b925050819055505b600073ffffffffffffffffffffffffffffffffffffffff168373ffffffffffffffffffffffffffffffffffffffff16146120db5780600360008573ffffffffffffffffffffffffffffffffffffffff1673ffffffffffffffffffffffffffffffffffffffff16815260200190815260200160002060008282546120d39190613ccc565b925050819055505b5b50505050565b600980549050600a600083815260200190815260200160002081905550600981908060018154018082558091505060019003906000526020600020016000909190919091505550565b6000600161213884610879565b6121429190613c98565b9050600060086000848152602001908152602001600020549050818114612227576000600760008673ffffffffffffffffffffffffffffffffffffffff1673ffffffffffffffffffffffffffffffffffffffff168152602001908152602001600020600084815260200190815260200160002054905080600760008773ffffffffffffffffffffffffffffffffffffffff1673ffffffffffffffffffffffffffffffffffffffff168152602001908152602001600020600084815260200190815260200160002081905550816008600083815260200190815260200160002081905550505b6008600084815260200190815260200160002060009055600760008573ffffffffffffffffffffffffffffffffffffffff1673ffffffffffffffffffffffffffffffffffffffff16815260200190815260200160002060008381526020019081526020016000206000905550505050565b600060016009805490506122ac9190613c98565b90506000600a60008481526020019081526020016000205490506000600983815481106122dc576122db6131f9565b5b9060005260206000200154905080600983815481106122fe576122fd6131f9565b5b906000526020600020018190555081600a600083815260200190815260200160002081905550600a600085815260200190815260200160002060009055600980548061234d5761234c613d22565b5b6001900381819060005260206000200160009055905550505050565b600061237483610879565b905081600760008573ffffffffffffffffffffffffffffffffffffffff1673ffffffffffffffffffffffffffffffffffffffff168152602001908152602001600020600083815260200190815260200160002081905550806008600084815260200190815260200160002081905550505050565b600080600090507a184f03e93ff9f4daa797ed6e38ed64bf6a1f0100000000000000008310612446577a184f03e93ff9f4daa797ed6e38ed64bf6a1f010000000000000000838161243c5761243b613b91565b5b0492506040810190505b6d04ee2d6d415b85acef81000000008310612483576d04ee2d6d415b85acef8100000000838161247957612478613b91565b5b0492506020810190505b662386f26fc1000083106124b257662386f26fc1000083816124a8576124a7613b91565b5b0492506010810190505b6305f5e10083106124db576305f5e10083816124d1576124d0613b91565b5b0492506008810190505b61271083106125005761271083816124f6576124f5613b91565b5b0492506004810190505b60648310612523576064838161251957612518613b91565b5b0492506002810190505b600a8310612532576001810190505b80915050919050565b82805461254790612eee565b90600052602060002090601f01602090048101928261256957600085556125b0565b82601f1061258257805160ff19168380011785556125b0565b828001600101855582156125b0579182015b828111156125af578251825591602001919060010190612594565b5b5090506125bd91906125c1565b5090565b5b808211156125da5760008160009055506001016125c2565b5090565b6000604051905090565b600080fd5b600080fd5b60007fffffffff0000000000000000000000000000000000000000000000000000000082169050919050565b612627816125f2565b811461263257600080fd5b50565b6000813590506126448161261e565b92915050565b6000602082840312156126605761265f6125e8565b5b600061266e84828501612635565b91505092915050565b60008115159050919050565b61268c81612677565b82525050565b60006020820190506126a76000830184612683565b92915050565b600081519050919050565b600082825260208201905092915050565b60005b838110156126e75780820151818401526020810190506126cc565b838111156126f6576000848401525b50505050565b6000601f19601f8301169050919050565b6000612718826126ad565b61272281856126b8565b93506127328185602086016126c9565b61273b816126fc565b840191505092915050565b60006020820190508181036000830152612760818461270d565b905092915050565b6000819050919050565b61277b81612768565b811461278657600080fd5b50565b60008135905061279881612772565b92915050565b6000602082840312156127b4576127b36125e8565b5b60006127c284828501612789565b91505092915050565b600073ffffffffffffffffffffffffffffffffffffffff82169050919050565b60006127f6826127cb565b9050919050565b612806816127eb565b82525050565b600060208201905061282160008301846127fd565b92915050565b612830816127eb565b811461283b57600080fd5b50565b60008135905061284d81612827565b92915050565b6000806040838503121561286a576128696125e8565b5b60006128788582860161283e565b925050602061288985828601612789565b9150509250929050565b61289c81612768565b82525050565b60006020820190506128b76000830184612893565b92915050565b6000806000606084860312156128d6576128d56125e8565b5b60006128e48682870161283e565b93505060206128f58682870161283e565b925050604061290686828701612789565b9150509250925092565b600060208284031215612926576129256125e8565b5b60006129348482850161283e565b91505092915050565b61294681612677565b811461295157600080fd5b50565b6000813590506129638161293d565b92915050565b600080604083850312156129805761297f6125e8565b5b600061298e8582860161283e565b925050602061299f85828601612954565b9150509250929050565b600080fd5b600080fd5b7f4e487b7100000000000000000000000000000000000000000000000000000000600052604160045260246000fd5b6129eb826126fc565b810181811067ffffffffffffffff82111715612a0a57612a096129b3565b5b80604052505050565b6000612a1d6125de565b9050612a2982826129e2565b919050565b600067ffffffffffffffff821115612a4957612a486129b3565b5b612a52826126fc565b9050602081019050919050565b82818337600083830152505050565b6000612a81612a7c84612a2e565b612a13565b905082815260208101848484011115612a9d57612a9c6129ae565b5b612aa8848285612a5f565b509392505050565b600082601f830112612ac557612ac46129a9565b5b8135612ad5848260208601612a6e565b91505092915050565b60008060008060808587031215612af857612af76125e8565b5b6000612b068782880161283e565b9450506020612b178782880161283e565b9350506040612b2887828801612789565b925050606085013567ffffffffffffffff811115612b4957612b486125ed565b5b612b5587828801612ab0565b91505092959194509250565b600067ffffffffffffffff821115612b7c57612b7b6129b3565b5b612b85826126fc565b9050602081019050919050565b6000612ba5612ba084612b61565b612a13565b905082815260208101848484011115612bc157612bc06129ae565b5b612bcc848285612a5f565b509392505050565b600082601f830112612be957612be86129a9565b5b8135612bf9848260208601612b92565b91505092915050565b60008060408385031215612c1957612c186125e8565b5b6000612c278582860161283e565b925050602083013567ffffffffffffffff811115612c4857612c476125ed565b5b612c5485828601612bd4565b9150509250929050565b600067ffffffffffffffff821115612c7957612c786129b3565b5b602082029050602081019050919050565b600080fd5b6000612ca2612c9d84612c5e565b612a13565b90508083825260208201905060208402830185811115612cc557612cc4612c8a565b5b835b81811015612cee5780612cda888261283e565b845260208401935050602081019050612cc7565b5050509392505050565b600082601f830112612d0d57612d0c6129a9565b5b8135612d1d848260208601612c8f565b91505092915050565b600067ffffffffffffffff821115612d4157612d406129b3565b5b602082029050602081019050919050565b6000612d65612d6084612d26565b612a13565b90508083825260208201905060208402830185811115612d8857612d87612c8a565b5b835b81811015612dcf57803567ffffffffffffffff811115612dad57612dac6129a9565b5b808601612dba8982612bd4565b85526020850194505050602081019050612d8a565b5050509392505050565b600082601f830112612dee57612ded6129a9565b5b8135612dfe848260208601612d52565b91505092915050565b60008060408385031215612e1e57612e1d6125e8565b5b600083013567ffffffffffffffff811115612e3c57612e3b6125ed565b5b612e4885828601612cf8565b925050602083013567ffffffffffffffff811115612e6957612e686125ed565b5b612e7585828601612dd9565b9150509250929050565b60008060408385031215612e9657612e956125e8565b5b6000612ea48582860161283e565b9250506020612eb58582860161283e565b9150509250929050565b7f4e487b7100000000000000000000000000000000000000000000000000000000600052602260045260246000fd5b60006002820490506001821680612f0657607f821691505b602082108103612f1957612f18612ebf565b5b50919050565b7f4552433732313a20617070726f76616c20746f2063757272656e74206f776e6560008201527f7200000000000000000000000000000000000000000000000000000000000000602082015250565b6000612f7b6021836126b8565b9150612f8682612f1f565b604082019050919050565b60006020820190508181036000830152612faa81612f6e565b9050919050565b7f4552433732313a20617070726f76652063616c6c6572206973206e6f7420746f60008201527f6b656e206f776e6572206f7220617070726f76656420666f7220616c6c000000602082015250565b600061300d603d836126b8565b915061301882612fb1565b604082019050919050565b6000602082019050818103600083015261303c81613000565b9050919050565b7f4552433732313a2063616c6c6572206973206e6f7420746f6b656e206f776e6560008201527f72206f7220617070726f76656400000000000000000000000000000000000000602082015250565b600061309f602d836126b8565b91506130aa82613043565b604082019050919050565b600060208201905081810360008301526130ce81613092565b9050919050565b7f455243373231456e756d657261626c653a206f776e657220696e646578206f7560008201527f74206f6620626f756e6473000000000000000000000000000000000000000000602082015250565b6000613131602b836126b8565b915061313c826130d5565b604082019050919050565b6000602082019050818103600083015261316081613124565b9050919050565b7f455243373231456e756d657261626c653a20676c6f62616c20696e646578206f60008201527f7574206f6620626f756e64730000000000000000000000000000000000000000602082015250565b60006131c3602c836126b8565b91506131ce82613167565b604082019050919050565b600060208201905081810360008301526131f2816131b6565b9050919050565b7f4e487b7100000000000000000000000000000000000000000000000000000000600052603260045260246000fd5b7f4552433732313a20696e76616c696420746f6b656e2049440000000000000000600082015250565b600061325e6018836126b8565b915061326982613228565b602082019050919050565b6000602082019050818103600083015261328d81613251565b9050919050565b7f4552433732313a2061646472657373207a65726f206973206e6f74206120766160008201527f6c6964206f776e65720000000000000000000000000000000000000000000000602082015250565b60006132f06029836126b8565b91506132fb82613294565b604082019050919050565b6000602082019050818103600083015261331f816132e3565b9050919050565b7f417272617973206c656e677468206d69736d6174636800000000000000000000600082015250565b600061335c6016836126b8565b915061336782613326565b602082019050919050565b6000602082019050818103600083015261338b8161334f565b9050919050565b7f4e487b7100000000000000000000000000000000000000000000000000000000600052601160045260246000fd5b60006133cc82612768565b91507fffffffffffffffffffffffffffffffffffffffffffffffffffffffffffffffff82036133fe576133fd613392565b5b600182019050919050565b600081519050919050565b600082825260208201905092915050565b6000819050602082019050919050565b61343e816127eb565b82525050565b60006134508383613435565b60208301905092915050565b6000602082019050919050565b600061347482613409565b61347e8185613414565b935061348983613425565b8060005b838110156134ba5781516134a18882613444565b97506134ac8361345c565b92505060018101905061348d565b5085935050505092915050565b600081519050919050565b600082825260208201905092915050565b6000819050602082019050919050565b600082825260208201905092915050565b600061350f826126ad565b61351981856134f3565b93506135298185602086016126c9565b613532816126fc565b840191505092915050565b60006135498383613504565b905092915050565b6000602082019050919050565b6000613569826134c7565b61357381856134d2565b935083602082028501613585856134e3565b8060005b858110156135c157848403895281516135a2858261353d565b94506135ad83613551565b925060208a01995050600181019050613589565b50829750879550505050505092915050565b600060408201905081810360008301526135ed8185613469565b90508181036020830152613601818461355e565b90509392505050565b7f4f776e61626c653a206e6577206f776e657220697320746865207a65726f206160008201527f6464726573730000000000000000000000000000000000000000000000000000602082015250565b60006136666026836126b8565b91506136718261360a565b604082019050919050565b6000602082019050818103600083015261369581613659565b9050919050565b7f4552433732313a207472616e736665722066726f6d20696e636f72726563742060008201527f6f776e6572000000000000000000000000000000000000000000000000000000602082015250565b60006136f86025836126b8565b91506137038261369c565b604082019050919050565b60006020820190508181036000830152613727816136eb565b9050919050565b7f4552433732313a207472616e7366657220746f20746865207a65726f2061646460008201527f7265737300000000000000000000000000000000000000000000000000000000602082015250565b600061378a6024836126b8565b91506137958261372e565b604082019050919050565b600060208201905081810360008301526137b98161377d565b9050919050565b7f4f776e61626c653a2063616c6c6572206973206e6f7420746865206f776e6572600082015250565b60006137f66020836126b8565b9150613801826137c0565b602082019050919050565b60006020820190508181036000830152613825816137e9565b9050919050565b7f4552433732313a20617070726f766520746f2063616c6c657200000000000000600082015250565b60006138626019836126b8565b915061386d8261382c565b602082019050919050565b6000602082019050818103600083015261389181613855565b9050919050565b7f4552433732313a207472616e7366657220746f206e6f6e20455243373231526560008201527f63656976657220696d706c656d656e7465720000000000000000000000000000602082015250565b60006138f46032836126b8565b91506138ff82613898565b604082019050919050565b60006020820190508181036000830152613923816138e7565b9050919050565b600081905092915050565b6000613940826126ad565b61394a818561392a565b935061395a8185602086016126c9565b80840191505092915050565b60006139728285613935565b915061397e8284613935565b91508190509392505050565b7f45524337323155524953746f726167653a2055524920736574206f66206e6f6e60008201527f6578697374656e7420746f6b656e000000000000000000000000000000000000602082015250565b60006139e6602e836126b8565b91506139f18261398a565b604082019050919050565b60006020820190508181036000830152613a15816139d9565b9050919050565b600081519050919050565b600082825260208201905092915050565b6000613a4382613a1c565b613a4d8185613a27565b9350613a5d8185602086016126c9565b613a66816126fc565b840191505092915050565b6000608082019050613a8660008301876127fd565b613a9360208301866127fd565b613aa06040830185612893565b8181036060830152613ab28184613a38565b905095945050505050565b600081519050613acc8161261e565b92915050565b600060208284031215613ae857613ae76125e8565b5b6000613af684828501613abd565b91505092915050565b7f455243373231456e756d657261626c653a20636f6e736563757469766520747260008201527f616e7366657273206e6f7420737570706f727465640000000000000000000000602082015250565b6000613b5b6035836126b8565b9150613b6682613aff565b604082019050919050565b60006020820190508181036000830152613b8a81613b4e565b9050919050565b7f4e487b7100000000000000000000000000000000000000000000000000000000600052601260045260246000fd5b7f4552433732313a206d696e7420746f20746865207a65726f2061646472657373600082015250565b6000613bf66020836126b8565b9150613c0182613bc0565b602082019050919050565b60006020820190508181036000830152613c2581613be9565b9050919050565b7f4552433732313a20746f6b656e20616c7265616479206d696e74656400000000600082015250565b6000613c62601c836126b8565b9150613c6d82613c2c565b602082019050919050565b60006020820190508181036000830152613c9181613c55565b9050919050565b6000613ca382612768565b9150613cae83612768565b925082821015613cc157613cc0613392565b5b828203905092915050565b6000613cd782612768565b9150613ce283612768565b9250827fffffffffffffffffffffffffffffffffffffffffffffffffffffffffffffffff03821115613d1757613d16613392565b5b828201905092915050565b7f4e487b7100000000000000000000000000000000000000000000000000000000600052603160045260246000fdfea264697066735822122083ea31fb0cebc16e1180e7f6c13dece43711dbb174d9d68dff563b531ea47f1d64736f6c634300080d0033",
  "immutableReferences": {},
  "source": "// SPDX-License-Identifier: MIT\r\n// This contract is for our NFC\r\npragma solidity ^0.8.13;\r\n\r\nimport \"@openzeppelin/contracts/token/ERC721/ERC721.sol\"; // implements the ERC721 standard\r\nimport \"@openzeppelin/contracts/token/ERC721/extensions/ERC721Enumerable.sol\"; // Enums tokens and owners\r\nimport \"@openzeppelin/contracts/token/ERC721/extensions/ERC721URIStorage.sol\"; // store the tokenURIs on chain in storage, which is what allows us to store the metadata we upload to IPFS off-chain.\r\nimport \"@openzeppelin/contracts/access/Ownable.sol\"; // Allows me and Ram modify the contract\r\nimport \"@openzeppelin/contracts/utils/Counters.sol\"; // We use a counter to track the total number of NFTs and assign a unique token id to each NFT.\r\n\r\ncontract FlatNFT is ERC721, ERC721URIStorage, ERC721Enumerable, Ownable {\r\n    using Counters for Counters.Counter;\r\n    Counters.Counter private _tokenIdCounter; // might change to tokenID or tokenIdCounter if decide to keep counter\r\n    address marketplaceContract; // The address of the marketplace contract where this NFT can be sold.\r\n    event NFTMinted(uint256); // An event that is emitted when an NFT is minted.\r\n\r\n    // Constructor for the ERC721 contract, which sets the name and symbol of the NFT.\r\n    constructor(\r\n        address _marketplaceContract\r\n    ) ERC721(\"Meta DeCenterland\", \"MDCL\") {\r\n        marketplaceContract = _marketplaceContract;\r\n    }\r\n\r\n    // A function to safely mint an NFT and assign it to the specified address.\r\n    function safeMint(address to, string memory uri) public onlyOwner {\r\n        uint256 tokenId = _tokenIdCounter.current(); // Get the current value of the token id counter.\r\n        _tokenIdCounter.increment(); // Increment the token id counter to ensure that each NFT has a unique token id.\r\n        _safeMint(to, tokenId); // Mint the NFT and assign it to the specified address.\r\n        _setTokenURI(tokenId, uri); // Set the token URI for the NFT.\r\n        setApprovalForAll(marketplaceContract, true); // Set the approval of the NFT to the marketplace contract so that it can be sold.\r\n        emit NFTMinted(tokenId); // Emit the NFTMinted event with the new token id.\r\n    }\r\n\r\n    // Event emitted when a batch of NFTs is minted.\r\n    event BatchMinted(address[] to, string[] uri);\r\n\r\n    // A function to safely batch mint NFTs and assign them to the specified addresses.\r\n    function safeBatchMint(\r\n        address[] memory to,\r\n        string[] memory uri\r\n    ) public onlyOwner {\r\n        require(to.length == uri.length, \"Arrays length mismatch\"); // Check that the length of the to and uri arrays is the same.\r\n        for (uint256 i = 0; i < to.length; i++) {\r\n            // Loop through each element in the to and uri arrays.\r\n            safeMint(to[i], uri[i]); // Mint the NFT and assign it to the specified address.\r\n        }\r\n        emit BatchMinted(to, uri); // Emit the BatchMinted event with the new token ids.\r\n    }\r\n\r\n    function getContractAddress() public view returns (address) {\r\n        return address(this);\r\n    }\r\n\r\n    // The following functions are overrides required by Solidity.\r\n\r\n    // Function that is called before a token is transferred..\r\n    function _beforeTokenTransfer(\r\n        address from,\r\n        address to,\r\n        uint256 tokenId,\r\n        uint256 batchSize\r\n    ) internal override(ERC721, ERC721Enumerable) {\r\n        super._beforeTokenTransfer(from, to, tokenId, batchSize);\r\n    }\r\n\r\n    // Function to burn an NFT.\r\n    function _burn(\r\n        uint256 tokenId\r\n    ) internal override(ERC721, ERC721URIStorage) {\r\n        super._burn(tokenId);\r\n    }\r\n\r\n    // Function to get the URI of an NFT.\r\n    function tokenURI(\r\n        uint256 tokenId\r\n    ) public view override(ERC721, ERC721URIStorage) returns (string memory) {\r\n        return super.tokenURI(tokenId);\r\n    }\r\n\r\n    // Function to check if a given interface is supported by this contract.\r\n    function supportsInterface(\r\n        bytes4 interfaceId\r\n    ) public view override(ERC721, ERC721Enumerable) returns (bool) {\r\n        return super.supportsInterface(interfaceId);\r\n    }\r\n}\r\n",
  "sourcePath": "C:\\Users\\raman\\OneDrive\\Documents\\GitHub\\Meta_DeCentraland\\Meta_DeCenterland\\contracts\\FlatNFT.sol",
  "compiler": {
    "name": "solc",
    "version": "0.8.13+commit.abaa5c0e.Emscripten.clang"
  },
  "schemaVersion": "3.4.11",
  "updatedAt": "2023-03-16T13:03:30.870Z",
  "devdoc": {
    "kind": "dev",
    "methods": {
      "approve(address,uint256)": {
        "details": "See {IERC721-approve}."
      },
      "balanceOf(address)": {
        "details": "See {IERC721-balanceOf}."
      },
      "getApproved(uint256)": {
        "details": "See {IERC721-getApproved}."
      },
      "isApprovedForAll(address,address)": {
        "details": "See {IERC721-isApprovedForAll}."
      },
      "name()": {
        "details": "See {IERC721Metadata-name}."
      },
      "owner()": {
        "details": "Returns the address of the current owner."
      },
      "ownerOf(uint256)": {
        "details": "See {IERC721-ownerOf}."
      },
      "renounceOwnership()": {
        "details": "Leaves the contract without owner. It will not be possible to call `onlyOwner` functions anymore. Can only be called by the current owner. NOTE: Renouncing ownership will leave the contract without an owner, thereby removing any functionality that is only available to the owner."
      },
      "safeTransferFrom(address,address,uint256)": {
        "details": "See {IERC721-safeTransferFrom}."
      },
      "safeTransferFrom(address,address,uint256,bytes)": {
        "details": "See {IERC721-safeTransferFrom}."
      },
      "setApprovalForAll(address,bool)": {
        "details": "See {IERC721-setApprovalForAll}."
      },
      "symbol()": {
        "details": "See {IERC721Metadata-symbol}."
      },
      "tokenByIndex(uint256)": {
        "details": "See {IERC721Enumerable-tokenByIndex}."
      },
      "tokenOfOwnerByIndex(address,uint256)": {
        "details": "See {IERC721Enumerable-tokenOfOwnerByIndex}."
      },
      "totalSupply()": {
        "details": "See {IERC721Enumerable-totalSupply}."
      },
      "transferFrom(address,address,uint256)": {
        "details": "See {IERC721-transferFrom}."
      },
      "transferOwnership(address)": {
        "details": "Transfers ownership of the contract to a new account (`newOwner`). Can only be called by the current owner."
      }
    },
    "version": 1
  },
  "userdoc": {
    "kind": "user",
    "methods": {},
    "version": 1
  }
}