{
  "contractName": "FlatNFT",
  "abi": [
    {
      "inputs": [
        {
          "internalType": "address",
          "name": "_marketplaceContract",
          "type": "address"
        }
      ],
      "stateMutability": "nonpayable",
      "type": "constructor"
    },
    {
      "anonymous": false,
      "inputs": [
        {
          "indexed": true,
          "internalType": "address",
          "name": "owner",
          "type": "address"
        },
        {
          "indexed": true,
          "internalType": "address",
          "name": "approved",
          "type": "address"
        },
        {
          "indexed": true,
          "internalType": "uint256",
          "name": "tokenId",
          "type": "uint256"
        }
      ],
      "name": "Approval",
      "type": "event"
    },
    {
      "anonymous": false,
      "inputs": [
        {
          "indexed": true,
          "internalType": "address",
          "name": "owner",
          "type": "address"
        },
        {
          "indexed": true,
          "internalType": "address",
          "name": "operator",
          "type": "address"
        },
        {
          "indexed": false,
          "internalType": "bool",
          "name": "approved",
          "type": "bool"
        }
      ],
      "name": "ApprovalForAll",
      "type": "event"
    },
    {
      "anonymous": false,
      "inputs": [
        {
          "indexed": false,
          "internalType": "address[]",
          "name": "to",
          "type": "address[]"
        },
        {
          "indexed": false,
          "internalType": "string[]",
          "name": "uri",
          "type": "string[]"
        }
      ],
      "name": "BatchMinted",
      "type": "event"
    },
    {
      "anonymous": false,
      "inputs": [
        {
          "indexed": false,
          "internalType": "uint256",
          "name": "",
          "type": "uint256"
        }
      ],
      "name": "NFTMinted",
      "type": "event"
    },
    {
      "anonymous": false,
      "inputs": [
        {
          "indexed": true,
          "internalType": "address",
          "name": "previousOwner",
          "type": "address"
        },
        {
          "indexed": true,
          "internalType": "address",
          "name": "newOwner",
          "type": "address"
        }
      ],
      "name": "OwnershipTransferred",
      "type": "event"
    },
    {
      "anonymous": false,
      "inputs": [
        {
          "indexed": true,
          "internalType": "address",
          "name": "from",
          "type": "address"
        },
        {
          "indexed": true,
          "internalType": "address",
          "name": "to",
          "type": "address"
        },
        {
          "indexed": true,
          "internalType": "uint256",
          "name": "tokenId",
          "type": "uint256"
        }
      ],
      "name": "Transfer",
      "type": "event"
    },
    {
      "inputs": [
        {
          "internalType": "address",
          "name": "to",
          "type": "address"
        },
        {
          "internalType": "uint256",
          "name": "tokenId",
          "type": "uint256"
        }
      ],
      "name": "approve",
      "outputs": [],
      "stateMutability": "nonpayable",
      "type": "function"
    },
    {
      "inputs": [
        {
          "internalType": "address",
          "name": "owner",
          "type": "address"
        }
      ],
      "name": "balanceOf",
      "outputs": [
        {
          "internalType": "uint256",
          "name": "",
          "type": "uint256"
        }
      ],
      "stateMutability": "view",
      "type": "function"
    },
    {
      "inputs": [
        {
          "internalType": "uint256",
          "name": "tokenId",
          "type": "uint256"
        }
      ],
      "name": "getApproved",
      "outputs": [
        {
          "internalType": "address",
          "name": "",
          "type": "address"
        }
      ],
      "stateMutability": "view",
      "type": "function"
    },
    {
      "inputs": [
        {
          "internalType": "address",
          "name": "owner",
          "type": "address"
        },
        {
          "internalType": "address",
          "name": "operator",
          "type": "address"
        }
      ],
      "name": "isApprovedForAll",
      "outputs": [
        {
          "internalType": "bool",
          "name": "",
          "type": "bool"
        }
      ],
      "stateMutability": "view",
      "type": "function"
    },
    {
      "inputs": [],
      "name": "name",
      "outputs": [
        {
          "internalType": "string",
          "name": "",
          "type": "string"
        }
      ],
      "stateMutability": "view",
      "type": "function"
    },
    {
      "inputs": [],
      "name": "owner",
      "outputs": [
        {
          "internalType": "address",
          "name": "",
          "type": "address"
        }
      ],
      "stateMutability": "view",
      "type": "function"
    },
    {
      "inputs": [
        {
          "internalType": "uint256",
          "name": "tokenId",
          "type": "uint256"
        }
      ],
      "name": "ownerOf",
      "outputs": [
        {
          "internalType": "address",
          "name": "",
          "type": "address"
        }
      ],
      "stateMutability": "view",
      "type": "function"
    },
    {
      "inputs": [],
      "name": "renounceOwnership",
      "outputs": [],
      "stateMutability": "nonpayable",
      "type": "function"
    },
    {
      "inputs": [
        {
          "internalType": "address",
          "name": "from",
          "type": "address"
        },
        {
          "internalType": "address",
          "name": "to",
          "type": "address"
        },
        {
          "internalType": "uint256",
          "name": "tokenId",
          "type": "uint256"
        }
      ],
      "name": "safeTransferFrom",
      "outputs": [],
      "stateMutability": "nonpayable",
      "type": "function"
    },
    {
      "inputs": [
        {
          "internalType": "address",
          "name": "from",
          "type": "address"
        },
        {
          "internalType": "address",
          "name": "to",
          "type": "address"
        },
        {
          "internalType": "uint256",
          "name": "tokenId",
          "type": "uint256"
        },
        {
          "internalType": "bytes",
          "name": "data",
          "type": "bytes"
        }
      ],
      "name": "safeTransferFrom",
      "outputs": [],
      "stateMutability": "nonpayable",
      "type": "function"
    },
    {
      "inputs": [
        {
          "internalType": "address",
          "name": "operator",
          "type": "address"
        },
        {
          "internalType": "bool",
          "name": "approved",
          "type": "bool"
        }
      ],
      "name": "setApprovalForAll",
      "outputs": [],
      "stateMutability": "nonpayable",
      "type": "function"
    },
    {
      "inputs": [],
      "name": "symbol",
      "outputs": [
        {
          "internalType": "string",
          "name": "",
          "type": "string"
        }
      ],
      "stateMutability": "view",
      "type": "function"
    },
    {
      "inputs": [
        {
          "internalType": "uint256",
          "name": "index",
          "type": "uint256"
        }
      ],
      "name": "tokenByIndex",
      "outputs": [
        {
          "internalType": "uint256",
          "name": "",
          "type": "uint256"
        }
      ],
      "stateMutability": "view",
      "type": "function"
    },
    {
      "inputs": [
        {
          "internalType": "address",
          "name": "owner",
          "type": "address"
        },
        {
          "internalType": "uint256",
          "name": "index",
          "type": "uint256"
        }
      ],
      "name": "tokenOfOwnerByIndex",
      "outputs": [
        {
          "internalType": "uint256",
          "name": "",
          "type": "uint256"
        }
      ],
      "stateMutability": "view",
      "type": "function"
    },
    {
      "inputs": [],
      "name": "totalSupply",
      "outputs": [
        {
          "internalType": "uint256",
          "name": "",
          "type": "uint256"
        }
      ],
      "stateMutability": "view",
      "type": "function"
    },
    {
      "inputs": [
        {
          "internalType": "address",
          "name": "from",
          "type": "address"
        },
        {
          "internalType": "address",
          "name": "to",
          "type": "address"
        },
        {
          "internalType": "uint256",
          "name": "tokenId",
          "type": "uint256"
        }
      ],
      "name": "transferFrom",
      "outputs": [],
      "stateMutability": "nonpayable",
      "type": "function"
    },
    {
      "inputs": [
        {
          "internalType": "address",
          "name": "newOwner",
          "type": "address"
        }
      ],
      "name": "transferOwnership",
      "outputs": [],
      "stateMutability": "nonpayable",
      "type": "function"
    },
    {
      "inputs": [
        {
          "internalType": "address",
          "name": "to",
          "type": "address"
        },
        {
          "internalType": "string",
          "name": "uri",
          "type": "string"
        }
      ],
      "name": "safeMint",
      "outputs": [],
      "stateMutability": "nonpayable",
      "type": "function"
    },
    {
      "inputs": [
        {
          "internalType": "address[]",
          "name": "to",
          "type": "address[]"
        },
        {
          "internalType": "string[]",
          "name": "uri",
          "type": "string[]"
        }
      ],
      "name": "safeBatchMint",
      "outputs": [],
      "stateMutability": "nonpayable",
      "type": "function"
    },
    {
      "inputs": [
        {
          "internalType": "uint256",
          "name": "tokenId",
          "type": "uint256"
        }
      ],
      "name": "tokenURI",
      "outputs": [
        {
          "internalType": "string",
          "name": "",
          "type": "string"
        }
      ],
      "stateMutability": "view",
      "type": "function"
    },
    {
      "inputs": [
        {
          "internalType": "bytes4",
          "name": "interfaceId",
          "type": "bytes4"
        }
      ],
      "name": "supportsInterface",
      "outputs": [
        {
          "internalType": "bool",
          "name": "",
          "type": "bool"
        }
      ],
      "stateMutability": "view",
      "type": "function"
    }
  ],
  "bytecode": "0x60806040523480156200001157600080fd5b506040516200412338038062004123833981810160405281019062000037919062000327565b6040518060400160405280601181526020017f4d65746120446543656e7465726c616e640000000000000000000000000000008152506040518060400160405280600481526020017f4d44434c000000000000000000000000000000000000000000000000000000008152508160009080519060200190620000bb9291906200020d565b508060019080519060200190620000d49291906200020d565b505050620000f7620000eb6200013f60201b60201c565b6200014760201b60201c565b80600d60006101000a81548173ffffffffffffffffffffffffffffffffffffffff021916908373ffffffffffffffffffffffffffffffffffffffff16021790555050620003bd565b600033905090565b6000600b60009054906101000a900473ffffffffffffffffffffffffffffffffffffffff16905081600b60006101000a81548173ffffffffffffffffffffffffffffffffffffffff021916908373ffffffffffffffffffffffffffffffffffffffff1602179055508173ffffffffffffffffffffffffffffffffffffffff168173ffffffffffffffffffffffffffffffffffffffff167f8be0079c531659141344cd1fd0a4f28419497f9722a3daafe3b4186f6b6457e060405160405180910390a35050565b8280546200021b9062000388565b90600052602060002090601f0160209004810192826200023f57600085556200028b565b82601f106200025a57805160ff19168380011785556200028b565b828001600101855582156200028b579182015b828111156200028a5782518255916020019190600101906200026d565b5b5090506200029a91906200029e565b5090565b5b80821115620002b95760008160009055506001016200029f565b5090565b600080fd5b600073ffffffffffffffffffffffffffffffffffffffff82169050919050565b6000620002ef82620002c2565b9050919050565b6200030181620002e2565b81146200030d57600080fd5b50565b6000815190506200032181620002f6565b92915050565b60006020828403121562000340576200033f620002bd565b5b6000620003508482850162000310565b91505092915050565b7f4e487b7100000000000000000000000000000000000000000000000000000000600052602260045260246000fd5b60006002820490506001821680620003a157607f821691505b602082108103620003b757620003b662000359565b5b50919050565b613d5680620003cd6000396000f3fe608060405234801561001057600080fd5b50600436106101375760003560e01c806370a08231116100b8578063b88d4fde1161007c578063b88d4fde1461034e578063c87b56dd1461036a578063d204c45e1461039a578063e259ea2e146103b6578063e985e9c5146103d2578063f2fde38b1461040257610137565b806370a08231146102bc578063715018a6146102ec5780638da5cb5b146102f657806395d89b4114610314578063a22cb4651461033257610137565b806323b872dd116100ff57806323b872dd146101f45780632f745c591461021057806342842e0e146102405780634f6ccce71461025c5780636352211e1461028c57610137565b806301ffc9a71461013c57806306fdde031461016c578063081812fc1461018a578063095ea7b3146101ba57806318160ddd146101d6575b600080fd5b61015660048036038101906101519190612619565b61041e565b6040516101639190612661565b60405180910390f35b610174610430565b6040516101819190612715565b60405180910390f35b6101a4600480360381019061019f919061276d565b6104c2565b6040516101b191906127db565b60405180910390f35b6101d460048036038101906101cf9190612822565b610508565b005b6101de61061f565b6040516101eb9190612871565b60405180910390f35b61020e6004803603810190610209919061288c565b61062c565b005b61022a60048036038101906102259190612822565b61068c565b6040516102379190612871565b60405180910390f35b61025a6004803603810190610255919061288c565b610731565b005b6102766004803603810190610271919061276d565b610751565b6040516102839190612871565b60405180910390f35b6102a660048036038101906102a1919061276d565b6107c2565b6040516102b391906127db565b60405180910390f35b6102d660048036038101906102d191906128df565b610848565b6040516102e39190612871565b60405180910390f35b6102f46108ff565b005b6102fe610913565b60405161030b91906127db565b60405180910390f35b61031c61093d565b6040516103299190612715565b60405180910390f35b61034c60048036038101906103479190612938565b6109cf565b005b61036860048036038101906103639190612aad565b6109e5565b005b610384600480360381019061037f919061276d565b610a47565b6040516103919190612715565b60405180910390f35b6103b460048036038101906103af9190612bd1565b610a59565b005b6103d060048036038101906103cb9190612dd6565b610af6565b005b6103ec60048036038101906103e79190612e4e565b610bdd565b6040516103f99190612661565b60405180910390f35b61041c600480360381019061041791906128df565b610c71565b005b600061042982610cf4565b9050919050565b60606000805461043f90612ebd565b80601f016020809104026020016040519081016040528092919081815260200182805461046b90612ebd565b80156104b85780601f1061048d576101008083540402835291602001916104b8565b820191906000526020600020905b81548152906001019060200180831161049b57829003601f168201915b5050505050905090565b60006104cd82610d6e565b6004600083815260200190815260200160002060009054906101000a900473ffffffffffffffffffffffffffffffffffffffff169050919050565b6000610513826107c2565b90508073ffffffffffffffffffffffffffffffffffffffff168373ffffffffffffffffffffffffffffffffffffffff1603610583576040517f08c379a000000000000000000000000000000000000000000000000000000000815260040161057a90612f60565b60405180910390fd5b8073ffffffffffffffffffffffffffffffffffffffff166105a2610db9565b73ffffffffffffffffffffffffffffffffffffffff1614806105d157506105d0816105cb610db9565b610bdd565b5b610610576040517f08c379a000000000000000000000000000000000000000000000000000000000815260040161060790612ff2565b60405180910390fd5b61061a8383610dc1565b505050565b6000600980549050905090565b61063d610637610db9565b82610e7a565b61067c576040517f08c379a000000000000000000000000000000000000000000000000000000000815260040161067390613084565b60405180910390fd5b610687838383610f0f565b505050565b600061069783610848565b82106106d8576040517f08c379a00000000000000000000000000000000000000000000000000000000081526004016106cf90613116565b60405180910390fd5b600760008473ffffffffffffffffffffffffffffffffffffffff1673ffffffffffffffffffffffffffffffffffffffff168152602001908152602001600020600083815260200190815260200160002054905092915050565b61074c838383604051806020016040528060008152506109e5565b505050565b600061075b61061f565b821061079c576040517f08c379a0000000000000000000000000000000000000000000000000000000008152600401610793906131a8565b60405180910390fd5b600982815481106107b0576107af6131c8565b5b90600052602060002001549050919050565b6000806107ce83611208565b9050600073ffffffffffffffffffffffffffffffffffffffff168173ffffffffffffffffffffffffffffffffffffffff160361083f576040517f08c379a000000000000000000000000000000000000000000000000000000000815260040161083690613243565b60405180910390fd5b80915050919050565b60008073ffffffffffffffffffffffffffffffffffffffff168273ffffffffffffffffffffffffffffffffffffffff16036108b8576040517f08c379a00000000000000000000000000000000000000000000000000000000081526004016108af906132d5565b60405180910390fd5b600360008373ffffffffffffffffffffffffffffffffffffffff1673ffffffffffffffffffffffffffffffffffffffff168152602001908152602001600020549050919050565b610907611245565b61091160006112c3565b565b6000600b60009054906101000a900473ffffffffffffffffffffffffffffffffffffffff16905090565b60606001805461094c90612ebd565b80601f016020809104026020016040519081016040528092919081815260200182805461097890612ebd565b80156109c55780601f1061099a576101008083540402835291602001916109c5565b820191906000526020600020905b8154815290600101906020018083116109a857829003601f168201915b5050505050905090565b6109e16109da610db9565b8383611389565b5050565b6109f66109f0610db9565b83610e7a565b610a35576040517f08c379a0000000000000000000000000000000000000000000000000000000008152600401610a2c90613084565b60405180910390fd5b610a41848484846114f5565b50505050565b6060610a5282611551565b9050919050565b610a61611245565b6000610a6d600c611663565b9050610a79600c611671565b610a838382611687565b610a8d81836116a5565b610aba600d60009054906101000a900473ffffffffffffffffffffffffffffffffffffffff1660016109cf565b7fd9dc24857f317ed9abbbb42e920ede0104231eb1d3d70236a74887ffaf15986881604051610ae99190612871565b60405180910390a1505050565b610afe611245565b8051825114610b42576040517f08c379a0000000000000000000000000000000000000000000000000000000008152600401610b3990613341565b60405180910390fd5b60005b8251811015610b9f57610b8c838281518110610b6457610b636131c8565b5b6020026020010151838381518110610b7f57610b7e6131c8565b5b6020026020010151610a59565b8080610b9790613390565b915050610b45565b507faa49f8ffba600023d408ee31e63dce9f73928f32dd21bf7ce8c3b5cab21ac0998282604051610bd19291906135a2565b60405180910390a15050565b6000600560008473ffffffffffffffffffffffffffffffffffffffff1673ffffffffffffffffffffffffffffffffffffffff16815260200190815260200160002060008373ffffffffffffffffffffffffffffffffffffffff1673ffffffffffffffffffffffffffffffffffffffff16815260200190815260200160002060009054906101000a900460ff16905092915050565b610c79611245565b600073ffffffffffffffffffffffffffffffffffffffff168173ffffffffffffffffffffffffffffffffffffffff1603610ce8576040517f08c379a0000000000000000000000000000000000000000000000000000000008152600401610cdf9061364b565b60405180910390fd5b610cf1816112c3565b50565b60007f780e9d63000000000000000000000000000000000000000000000000000000007bffffffffffffffffffffffffffffffffffffffffffffffffffffffff1916827bffffffffffffffffffffffffffffffffffffffffffffffffffffffff19161480610d675750610d6682611719565b5b9050919050565b610d77816117fb565b610db6576040517f08c379a0000000000000000000000000000000000000000000000000000000008152600401610dad90613243565b60405180910390fd5b50565b600033905090565b816004600083815260200190815260200160002060006101000a81548173ffffffffffffffffffffffffffffffffffffffff021916908373ffffffffffffffffffffffffffffffffffffffff160217905550808273ffffffffffffffffffffffffffffffffffffffff16610e34836107c2565b73ffffffffffffffffffffffffffffffffffffffff167f8c5be1e5ebec7d5bd14f71427d1e84f3dd0314c0f7b2291e5b200ac8c7c3b92560405160405180910390a45050565b600080610e86836107c2565b90508073ffffffffffffffffffffffffffffffffffffffff168473ffffffffffffffffffffffffffffffffffffffff161480610ec85750610ec78185610bdd565b5b80610f0657508373ffffffffffffffffffffffffffffffffffffffff16610eee846104c2565b73ffffffffffffffffffffffffffffffffffffffff16145b91505092915050565b8273ffffffffffffffffffffffffffffffffffffffff16610f2f826107c2565b73ffffffffffffffffffffffffffffffffffffffff1614610f85576040517f08c379a0000000000000000000000000000000000000000000000000000000008152600401610f7c906136dd565b60405180910390fd5b600073ffffffffffffffffffffffffffffffffffffffff168273ffffffffffffffffffffffffffffffffffffffff1603610ff4576040517f08c379a0000000000000000000000000000000000000000000000000000000008152600401610feb9061376f565b60405180910390fd5b611001838383600161183c565b8273ffffffffffffffffffffffffffffffffffffffff16611021826107c2565b73ffffffffffffffffffffffffffffffffffffffff1614611077576040517f08c379a000000000000000000000000000000000000000000000000000000000815260040161106e906136dd565b60405180910390fd5b6004600082815260200190815260200160002060006101000a81549073ffffffffffffffffffffffffffffffffffffffff02191690556001600360008573ffffffffffffffffffffffffffffffffffffffff1673ffffffffffffffffffffffffffffffffffffffff168152602001908152602001600020600082825403925050819055506001600360008473ffffffffffffffffffffffffffffffffffffffff1673ffffffffffffffffffffffffffffffffffffffff16815260200190815260200160002060008282540192505081905550816002600083815260200190815260200160002060006101000a81548173ffffffffffffffffffffffffffffffffffffffff021916908373ffffffffffffffffffffffffffffffffffffffff160217905550808273ffffffffffffffffffffffffffffffffffffffff168473ffffffffffffffffffffffffffffffffffffffff167fddf252ad1be2c89b69c2b068fc378daa952ba7f163c4a11628f55a4df523b3ef60405160405180910390a4611203838383600161184e565b505050565b60006002600083815260200190815260200160002060009054906101000a900473ffffffffffffffffffffffffffffffffffffffff169050919050565b61124d610db9565b73ffffffffffffffffffffffffffffffffffffffff1661126b610913565b73ffffffffffffffffffffffffffffffffffffffff16146112c1576040517f08c379a00000000000000000000000000000000000000000000000000000000081526004016112b8906137db565b60405180910390fd5b565b6000600b60009054906101000a900473ffffffffffffffffffffffffffffffffffffffff16905081600b60006101000a81548173ffffffffffffffffffffffffffffffffffffffff021916908373ffffffffffffffffffffffffffffffffffffffff1602179055508173ffffffffffffffffffffffffffffffffffffffff168173ffffffffffffffffffffffffffffffffffffffff167f8be0079c531659141344cd1fd0a4f28419497f9722a3daafe3b4186f6b6457e060405160405180910390a35050565b8173ffffffffffffffffffffffffffffffffffffffff168373ffffffffffffffffffffffffffffffffffffffff16036113f7576040517f08c379a00000000000000000000000000000000000000000000000000000000081526004016113ee90613847565b60405180910390fd5b80600560008573ffffffffffffffffffffffffffffffffffffffff1673ffffffffffffffffffffffffffffffffffffffff16815260200190815260200160002060008473ffffffffffffffffffffffffffffffffffffffff1673ffffffffffffffffffffffffffffffffffffffff16815260200190815260200160002060006101000a81548160ff0219169083151502179055508173ffffffffffffffffffffffffffffffffffffffff168373ffffffffffffffffffffffffffffffffffffffff167f17307eab39ab6107e8899845ad3d59bd9653f200f220920489ca2b5937696c31836040516114e89190612661565b60405180910390a3505050565b611500848484610f0f565b61150c84848484611854565b61154b576040517f08c379a0000000000000000000000000000000000000000000000000000000008152600401611542906138d9565b60405180910390fd5b50505050565b606061155c82610d6e565b600060066000848152602001908152602001600020805461157c90612ebd565b80601f01602080910402602001604051908101604052809291908181526020018280546115a890612ebd565b80156115f55780601f106115ca576101008083540402835291602001916115f5565b820191906000526020600020905b8154815290600101906020018083116115d857829003601f168201915b5050505050905060006116066119db565b9050600081510361161b57819250505061165e565b600082511115611650578082604051602001611638929190613935565b6040516020818303038152906040529250505061165e565b611659846119f2565b925050505b919050565b600081600001549050919050565b6001816000016000828254019250508190555050565b6116a1828260405180602001604052806000815250611a5a565b5050565b6116ae826117fb565b6116ed576040517f08c379a00000000000000000000000000000000000000000000000000000000081526004016116e4906139cb565b60405180910390fd5b8060066000848152602001908152602001600020908051906020019061171492919061250a565b505050565b60007f80ac58cd000000000000000000000000000000000000000000000000000000007bffffffffffffffffffffffffffffffffffffffffffffffffffffffff1916827bffffffffffffffffffffffffffffffffffffffffffffffffffffffff191614806117e457507f5b5e139f000000000000000000000000000000000000000000000000000000007bffffffffffffffffffffffffffffffffffffffffffffffffffffffff1916827bffffffffffffffffffffffffffffffffffffffffffffffffffffffff1916145b806117f457506117f382611ab5565b5b9050919050565b60008073ffffffffffffffffffffffffffffffffffffffff1661181d83611208565b73ffffffffffffffffffffffffffffffffffffffff1614159050919050565b61184884848484611b1f565b50505050565b50505050565b60006118758473ffffffffffffffffffffffffffffffffffffffff16611c7d565b156119ce578373ffffffffffffffffffffffffffffffffffffffff1663150b7a0261189e610db9565b8786866040518563ffffffff1660e01b81526004016118c09493929190613a40565b6020604051808303816000875af19250505080156118fc57506040513d601f19601f820116820180604052508101906118f99190613aa1565b60015b61197e573d806000811461192c576040519150601f19603f3d011682016040523d82523d6000602084013e611931565b606091505b506000815103611976576040517f08c379a000000000000000000000000000000000000000000000000000000000815260040161196d906138d9565b60405180910390fd5b805181602001fd5b63150b7a0260e01b7bffffffffffffffffffffffffffffffffffffffffffffffffffffffff1916817bffffffffffffffffffffffffffffffffffffffffffffffffffffffff1916149150506119d3565b600190505b949350505050565b606060405180602001604052806000815250905090565b60606119fd82610d6e565b6000611a076119db565b90506000815111611a275760405180602001604052806000815250611a52565b80611a3184611ca0565b604051602001611a42929190613935565b6040516020818303038152906040525b915050919050565b611a648383611d6e565b611a716000848484611854565b611ab0576040517f08c379a0000000000000000000000000000000000000000000000000000000008152600401611aa7906138d9565b60405180910390fd5b505050565b60007f01ffc9a7000000000000000000000000000000000000000000000000000000007bffffffffffffffffffffffffffffffffffffffffffffffffffffffff1916827bffffffffffffffffffffffffffffffffffffffffffffffffffffffff1916149050919050565b611b2b84848484611f8b565b6001811115611b6f576040517f08c379a0000000000000000000000000000000000000000000000000000000008152600401611b6690613b40565b60405180910390fd5b6000829050600073ffffffffffffffffffffffffffffffffffffffff168573ffffffffffffffffffffffffffffffffffffffff1603611bb657611bb1816120b1565b611bf5565b8373ffffffffffffffffffffffffffffffffffffffff168573ffffffffffffffffffffffffffffffffffffffff1614611bf457611bf385826120fa565b5b5b600073ffffffffffffffffffffffffffffffffffffffff168473ffffffffffffffffffffffffffffffffffffffff1603611c3757611c3281612267565b611c76565b8473ffffffffffffffffffffffffffffffffffffffff168473ffffffffffffffffffffffffffffffffffffffff1614611c7557611c748482612338565b5b5b5050505050565b6000808273ffffffffffffffffffffffffffffffffffffffff163b119050919050565b606060006001611caf846123b7565b01905060008167ffffffffffffffff811115611cce57611ccd612982565b5b6040519080825280601f01601f191660200182016040528015611d005781602001600182028036833780820191505090505b509050600082602001820190505b600115611d63578080600190039150507f3031323334353637383961626364656600000000000000000000000000000000600a86061a8153600a8581611d5757611d56613b60565b5b04945060008503611d0e575b819350505050919050565b600073ffffffffffffffffffffffffffffffffffffffff168273ffffffffffffffffffffffffffffffffffffffff1603611ddd576040517f08c379a0000000000000000000000000000000000000000000000000000000008152600401611dd490613bdb565b60405180910390fd5b611de6816117fb565b15611e26576040517f08c379a0000000000000000000000000000000000000000000000000000000008152600401611e1d90613c47565b60405180910390fd5b611e3460008383600161183c565b611e3d816117fb565b15611e7d576040517f08c379a0000000000000000000000000000000000000000000000000000000008152600401611e7490613c47565b60405180910390fd5b6001600360008473ffffffffffffffffffffffffffffffffffffffff1673ffffffffffffffffffffffffffffffffffffffff16815260200190815260200160002060008282540192505081905550816002600083815260200190815260200160002060006101000a81548173ffffffffffffffffffffffffffffffffffffffff021916908373ffffffffffffffffffffffffffffffffffffffff160217905550808273ffffffffffffffffffffffffffffffffffffffff16600073ffffffffffffffffffffffffffffffffffffffff167fddf252ad1be2c89b69c2b068fc378daa952ba7f163c4a11628f55a4df523b3ef60405160405180910390a4611f8760008383600161184e565b5050565b60018111156120ab57600073ffffffffffffffffffffffffffffffffffffffff168473ffffffffffffffffffffffffffffffffffffffff161461201f5780600360008673ffffffffffffffffffffffffffffffffffffffff1673ffffffffffffffffffffffffffffffffffffffff16815260200190815260200160002060008282546120179190613c67565b925050819055505b600073ffffffffffffffffffffffffffffffffffffffff168373ffffffffffffffffffffffffffffffffffffffff16146120aa5780600360008573ffffffffffffffffffffffffffffffffffffffff1673ffffffffffffffffffffffffffffffffffffffff16815260200190815260200160002060008282546120a29190613c9b565b925050819055505b5b50505050565b600980549050600a600083815260200190815260200160002081905550600981908060018154018082558091505060019003906000526020600020016000909190919091505550565b6000600161210784610848565b6121119190613c67565b90506000600860008481526020019081526020016000205490508181146121f6576000600760008673ffffffffffffffffffffffffffffffffffffffff1673ffffffffffffffffffffffffffffffffffffffff168152602001908152602001600020600084815260200190815260200160002054905080600760008773ffffffffffffffffffffffffffffffffffffffff1673ffffffffffffffffffffffffffffffffffffffff168152602001908152602001600020600084815260200190815260200160002081905550816008600083815260200190815260200160002081905550505b6008600084815260200190815260200160002060009055600760008573ffffffffffffffffffffffffffffffffffffffff1673ffffffffffffffffffffffffffffffffffffffff16815260200190815260200160002060008381526020019081526020016000206000905550505050565b6000600160098054905061227b9190613c67565b90506000600a60008481526020019081526020016000205490506000600983815481106122ab576122aa6131c8565b5b9060005260206000200154905080600983815481106122cd576122cc6131c8565b5b906000526020600020018190555081600a600083815260200190815260200160002081905550600a600085815260200190815260200160002060009055600980548061231c5761231b613cf1565b5b6001900381819060005260206000200160009055905550505050565b600061234383610848565b905081600760008573ffffffffffffffffffffffffffffffffffffffff1673ffffffffffffffffffffffffffffffffffffffff168152602001908152602001600020600083815260200190815260200160002081905550806008600084815260200190815260200160002081905550505050565b600080600090507a184f03e93ff9f4daa797ed6e38ed64bf6a1f0100000000000000008310612415577a184f03e93ff9f4daa797ed6e38ed64bf6a1f010000000000000000838161240b5761240a613b60565b5b0492506040810190505b6d04ee2d6d415b85acef81000000008310612452576d04ee2d6d415b85acef8100000000838161244857612447613b60565b5b0492506020810190505b662386f26fc10000831061248157662386f26fc10000838161247757612476613b60565b5b0492506010810190505b6305f5e10083106124aa576305f5e10083816124a05761249f613b60565b5b0492506008810190505b61271083106124cf5761271083816124c5576124c4613b60565b5b0492506004810190505b606483106124f257606483816124e8576124e7613b60565b5b0492506002810190505b600a8310612501576001810190505b80915050919050565b82805461251690612ebd565b90600052602060002090601f016020900481019282612538576000855561257f565b82601f1061255157805160ff191683800117855561257f565b8280016001018555821561257f579182015b8281111561257e578251825591602001919060010190612563565b5b50905061258c9190612590565b5090565b5b808211156125a9576000816000905550600101612591565b5090565b6000604051905090565b600080fd5b600080fd5b60007fffffffff0000000000000000000000000000000000000000000000000000000082169050919050565b6125f6816125c1565b811461260157600080fd5b50565b600081359050612613816125ed565b92915050565b60006020828403121561262f5761262e6125b7565b5b600061263d84828501612604565b91505092915050565b60008115159050919050565b61265b81612646565b82525050565b60006020820190506126766000830184612652565b92915050565b600081519050919050565b600082825260208201905092915050565b60005b838110156126b657808201518184015260208101905061269b565b838111156126c5576000848401525b50505050565b6000601f19601f8301169050919050565b60006126e78261267c565b6126f18185612687565b9350612701818560208601612698565b61270a816126cb565b840191505092915050565b6000602082019050818103600083015261272f81846126dc565b905092915050565b6000819050919050565b61274a81612737565b811461275557600080fd5b50565b60008135905061276781612741565b92915050565b600060208284031215612783576127826125b7565b5b600061279184828501612758565b91505092915050565b600073ffffffffffffffffffffffffffffffffffffffff82169050919050565b60006127c58261279a565b9050919050565b6127d5816127ba565b82525050565b60006020820190506127f060008301846127cc565b92915050565b6127ff816127ba565b811461280a57600080fd5b50565b60008135905061281c816127f6565b92915050565b60008060408385031215612839576128386125b7565b5b60006128478582860161280d565b925050602061285885828601612758565b9150509250929050565b61286b81612737565b82525050565b60006020820190506128866000830184612862565b92915050565b6000806000606084860312156128a5576128a46125b7565b5b60006128b38682870161280d565b93505060206128c48682870161280d565b92505060406128d586828701612758565b9150509250925092565b6000602082840312156128f5576128f46125b7565b5b60006129038482850161280d565b91505092915050565b61291581612646565b811461292057600080fd5b50565b6000813590506129328161290c565b92915050565b6000806040838503121561294f5761294e6125b7565b5b600061295d8582860161280d565b925050602061296e85828601612923565b9150509250929050565b600080fd5b600080fd5b7f4e487b7100000000000000000000000000000000000000000000000000000000600052604160045260246000fd5b6129ba826126cb565b810181811067ffffffffffffffff821117156129d9576129d8612982565b5b80604052505050565b60006129ec6125ad565b90506129f882826129b1565b919050565b600067ffffffffffffffff821115612a1857612a17612982565b5b612a21826126cb565b9050602081019050919050565b82818337600083830152505050565b6000612a50612a4b846129fd565b6129e2565b905082815260208101848484011115612a6c57612a6b61297d565b5b612a77848285612a2e565b509392505050565b600082601f830112612a9457612a93612978565b5b8135612aa4848260208601612a3d565b91505092915050565b60008060008060808587031215612ac757612ac66125b7565b5b6000612ad58782880161280d565b9450506020612ae68782880161280d565b9350506040612af787828801612758565b925050606085013567ffffffffffffffff811115612b1857612b176125bc565b5b612b2487828801612a7f565b91505092959194509250565b600067ffffffffffffffff821115612b4b57612b4a612982565b5b612b54826126cb565b9050602081019050919050565b6000612b74612b6f84612b30565b6129e2565b905082815260208101848484011115612b9057612b8f61297d565b5b612b9b848285612a2e565b509392505050565b600082601f830112612bb857612bb7612978565b5b8135612bc8848260208601612b61565b91505092915050565b60008060408385031215612be857612be76125b7565b5b6000612bf68582860161280d565b925050602083013567ffffffffffffffff811115612c1757612c166125bc565b5b612c2385828601612ba3565b9150509250929050565b600067ffffffffffffffff821115612c4857612c47612982565b5b602082029050602081019050919050565b600080fd5b6000612c71612c6c84612c2d565b6129e2565b90508083825260208201905060208402830185811115612c9457612c93612c59565b5b835b81811015612cbd5780612ca9888261280d565b845260208401935050602081019050612c96565b5050509392505050565b600082601f830112612cdc57612cdb612978565b5b8135612cec848260208601612c5e565b91505092915050565b600067ffffffffffffffff821115612d1057612d0f612982565b5b602082029050602081019050919050565b6000612d34612d2f84612cf5565b6129e2565b90508083825260208201905060208402830185811115612d5757612d56612c59565b5b835b81811015612d9e57803567ffffffffffffffff811115612d7c57612d7b612978565b5b808601612d898982612ba3565b85526020850194505050602081019050612d59565b5050509392505050565b600082601f830112612dbd57612dbc612978565b5b8135612dcd848260208601612d21565b91505092915050565b60008060408385031215612ded57612dec6125b7565b5b600083013567ffffffffffffffff811115612e0b57612e0a6125bc565b5b612e1785828601612cc7565b925050602083013567ffffffffffffffff811115612e3857612e376125bc565b5b612e4485828601612da8565b9150509250929050565b60008060408385031215612e6557612e646125b7565b5b6000612e738582860161280d565b9250506020612e848582860161280d565b9150509250929050565b7f4e487b7100000000000000000000000000000000000000000000000000000000600052602260045260246000fd5b60006002820490506001821680612ed557607f821691505b602082108103612ee857612ee7612e8e565b5b50919050565b7f4552433732313a20617070726f76616c20746f2063757272656e74206f776e6560008201527f7200000000000000000000000000000000000000000000000000000000000000602082015250565b6000612f4a602183612687565b9150612f5582612eee565b604082019050919050565b60006020820190508181036000830152612f7981612f3d565b9050919050565b7f4552433732313a20617070726f76652063616c6c6572206973206e6f7420746f60008201527f6b656e206f776e6572206f7220617070726f76656420666f7220616c6c000000602082015250565b6000612fdc603d83612687565b9150612fe782612f80565b604082019050919050565b6000602082019050818103600083015261300b81612fcf565b9050919050565b7f4552433732313a2063616c6c6572206973206e6f7420746f6b656e206f776e6560008201527f72206f7220617070726f76656400000000000000000000000000000000000000602082015250565b600061306e602d83612687565b915061307982613012565b604082019050919050565b6000602082019050818103600083015261309d81613061565b9050919050565b7f455243373231456e756d657261626c653a206f776e657220696e646578206f7560008201527f74206f6620626f756e6473000000000000000000000000000000000000000000602082015250565b6000613100602b83612687565b915061310b826130a4565b604082019050919050565b6000602082019050818103600083015261312f816130f3565b9050919050565b7f455243373231456e756d657261626c653a20676c6f62616c20696e646578206f60008201527f7574206f6620626f756e64730000000000000000000000000000000000000000602082015250565b6000613192602c83612687565b915061319d82613136565b604082019050919050565b600060208201905081810360008301526131c181613185565b9050919050565b7f4e487b7100000000000000000000000000000000000000000000000000000000600052603260045260246000fd5b7f4552433732313a20696e76616c696420746f6b656e2049440000000000000000600082015250565b600061322d601883612687565b9150613238826131f7565b602082019050919050565b6000602082019050818103600083015261325c81613220565b9050919050565b7f4552433732313a2061646472657373207a65726f206973206e6f74206120766160008201527f6c6964206f776e65720000000000000000000000000000000000000000000000602082015250565b60006132bf602983612687565b91506132ca82613263565b604082019050919050565b600060208201905081810360008301526132ee816132b2565b9050919050565b7f417272617973206c656e677468206d69736d6174636800000000000000000000600082015250565b600061332b601683612687565b9150613336826132f5565b602082019050919050565b6000602082019050818103600083015261335a8161331e565b9050919050565b7f4e487b7100000000000000000000000000000000000000000000000000000000600052601160045260246000fd5b600061339b82612737565b91507fffffffffffffffffffffffffffffffffffffffffffffffffffffffffffffffff82036133cd576133cc613361565b5b600182019050919050565b600081519050919050565b600082825260208201905092915050565b6000819050602082019050919050565b61340d816127ba565b82525050565b600061341f8383613404565b60208301905092915050565b6000602082019050919050565b6000613443826133d8565b61344d81856133e3565b9350613458836133f4565b8060005b838110156134895781516134708882613413565b975061347b8361342b565b92505060018101905061345c565b5085935050505092915050565b600081519050919050565b600082825260208201905092915050565b6000819050602082019050919050565b600082825260208201905092915050565b60006134de8261267c565b6134e881856134c2565b93506134f8818560208601612698565b613501816126cb565b840191505092915050565b600061351883836134d3565b905092915050565b6000602082019050919050565b600061353882613496565b61354281856134a1565b935083602082028501613554856134b2565b8060005b858110156135905784840389528151613571858261350c565b945061357c83613520565b925060208a01995050600181019050613558565b50829750879550505050505092915050565b600060408201905081810360008301526135bc8185613438565b905081810360208301526135d0818461352d565b90509392505050565b7f4f776e61626c653a206e6577206f776e657220697320746865207a65726f206160008201527f6464726573730000000000000000000000000000000000000000000000000000602082015250565b6000613635602683612687565b9150613640826135d9565b604082019050919050565b6000602082019050818103600083015261366481613628565b9050919050565b7f4552433732313a207472616e736665722066726f6d20696e636f72726563742060008201527f6f776e6572000000000000000000000000000000000000000000000000000000602082015250565b60006136c7602583612687565b91506136d28261366b565b604082019050919050565b600060208201905081810360008301526136f6816136ba565b9050919050565b7f4552433732313a207472616e7366657220746f20746865207a65726f2061646460008201527f7265737300000000000000000000000000000000000000000000000000000000602082015250565b6000613759602483612687565b9150613764826136fd565b604082019050919050565b600060208201905081810360008301526137888161374c565b9050919050565b7f4f776e61626c653a2063616c6c6572206973206e6f7420746865206f776e6572600082015250565b60006137c5602083612687565b91506137d08261378f565b602082019050919050565b600060208201905081810360008301526137f4816137b8565b9050919050565b7f4552433732313a20617070726f766520746f2063616c6c657200000000000000600082015250565b6000613831601983612687565b915061383c826137fb565b602082019050919050565b6000602082019050818103600083015261386081613824565b9050919050565b7f4552433732313a207472616e7366657220746f206e6f6e20455243373231526560008201527f63656976657220696d706c656d656e7465720000000000000000000000000000602082015250565b60006138c3603283612687565b91506138ce82613867565b604082019050919050565b600060208201905081810360008301526138f2816138b6565b9050919050565b600081905092915050565b600061390f8261267c565b61391981856138f9565b9350613929818560208601612698565b80840191505092915050565b60006139418285613904565b915061394d8284613904565b91508190509392505050565b7f45524337323155524953746f726167653a2055524920736574206f66206e6f6e60008201527f6578697374656e7420746f6b656e000000000000000000000000000000000000602082015250565b60006139b5602e83612687565b91506139c082613959565b604082019050919050565b600060208201905081810360008301526139e4816139a8565b9050919050565b600081519050919050565b600082825260208201905092915050565b6000613a12826139eb565b613a1c81856139f6565b9350613a2c818560208601612698565b613a35816126cb565b840191505092915050565b6000608082019050613a5560008301876127cc565b613a6260208301866127cc565b613a6f6040830185612862565b8181036060830152613a818184613a07565b905095945050505050565b600081519050613a9b816125ed565b92915050565b600060208284031215613ab757613ab66125b7565b5b6000613ac584828501613a8c565b91505092915050565b7f455243373231456e756d657261626c653a20636f6e736563757469766520747260008201527f616e7366657273206e6f7420737570706f727465640000000000000000000000602082015250565b6000613b2a603583612687565b9150613b3582613ace565b604082019050919050565b60006020820190508181036000830152613b5981613b1d565b9050919050565b7f4e487b7100000000000000000000000000000000000000000000000000000000600052601260045260246000fd5b7f4552433732313a206d696e7420746f20746865207a65726f2061646472657373600082015250565b6000613bc5602083612687565b9150613bd082613b8f565b602082019050919050565b60006020820190508181036000830152613bf481613bb8565b9050919050565b7f4552433732313a20746f6b656e20616c7265616479206d696e74656400000000600082015250565b6000613c31601c83612687565b9150613c3c82613bfb565b602082019050919050565b60006020820190508181036000830152613c6081613c24565b9050919050565b6000613c7282612737565b9150613c7d83612737565b925082821015613c9057613c8f613361565b5b828203905092915050565b6000613ca682612737565b9150613cb183612737565b9250827fffffffffffffffffffffffffffffffffffffffffffffffffffffffffffffffff03821115613ce657613ce5613361565b5b828201905092915050565b7f4e487b7100000000000000000000000000000000000000000000000000000000600052603160045260246000fdfea26469706673582212200e0825519d3f352030f9ddc0420dd2739021e02a50acc50e1c81ffab77823b3864736f6c634300080d0033",
  "immutableReferences": {},
  "source": "// SPDX-License-Identifier: MIT\n// This contract is for our NFC\npragma solidity ^0.8.13;\n\nimport \"@openzeppelin/contracts/token/ERC721/ERC721.sol\"; // implements the ERC721 standard\nimport \"@openzeppelin/contracts/token/ERC721/extensions/ERC721Enumerable.sol\"; // Enums tokens and owners\nimport \"@openzeppelin/contracts/token/ERC721/extensions/ERC721URIStorage.sol\"; // store the tokenURIs on chain in storage, which is what allows us to store the metadata we upload to IPFS off-chain.\nimport \"@openzeppelin/contracts/access/Ownable.sol\"; // Allows me and Ram modify the contract\nimport \"@openzeppelin/contracts/utils/Counters.sol\"; // We use a counter to track the total number of NFTs and assign a unique token id to each NFT.\n\ncontract FlatNFT is ERC721, ERC721URIStorage, ERC721Enumerable, Ownable {\n    using Counters for Counters.Counter;\n    Counters.Counter private _tokenIdCounter; // might change to tokenID or tokenIdCounter if decide to keep counter\n    address marketplaceContract;\n    event NFTMinted(uint256);\n\n    constructor(address _marketplaceContract)\n        ERC721(\"Meta DeCenterland\", \"MDCL\")\n    {\n        marketplaceContract = _marketplaceContract;\n    }\n\n    function safeMint(address to, string memory uri) public onlyOwner {\n        uint256 tokenId = _tokenIdCounter.current();\n        _tokenIdCounter.increment();\n        _safeMint(to, tokenId);\n        _setTokenURI(tokenId, uri);\n\n        setApprovalForAll(marketplaceContract, true);\n        emit NFTMinted(tokenId);\n    }\n\n    function safeBatchMint(address[] memory to, string[] memory uri) public onlyOwner {\n        require(to.length == uri.length, \"Arrays length mismatch\");\n        for (uint256 i = 0; i < to.length; i++) {\n            safeMint(to[i], uri[i]);\n        }\n        emit BatchMinted(to, uri);\n    }\n\n    event BatchMinted(address[] to, string[] uri);\n\n    // The following functions are overrides required by Solidity.\n\n    function _beforeTokenTransfer(\n        address from,\n        address to,\n        uint256 tokenId,\n        uint256 batchSize\n    ) internal override(ERC721, ERC721Enumerable) {\n        super._beforeTokenTransfer(from, to, tokenId, batchSize);\n    }\n\n    function _burn(uint256 tokenId)\n        internal\n        override(ERC721, ERC721URIStorage)\n    {\n        super._burn(tokenId);\n    }\n\n    function tokenURI(uint256 tokenId)\n        public\n        view\n        override(ERC721, ERC721URIStorage)\n        returns (string memory)\n    {\n        return super.tokenURI(tokenId);\n    }\n\n    function supportsInterface(bytes4 interfaceId)\n        public\n        view\n        override(ERC721, ERC721Enumerable)\n        returns (bool)\n    {\n        return super.supportsInterface(interfaceId);\n    }\n}\n",
  "sourcePath": "C:\\Users\\raman\\OneDrive\\Documents\\GitHub\\Meta_DeCentraland\\Meta_DeCenterland\\contracts\\FlatNFT.sol",
  "compiler": {
    "name": "solc",
    "version": "0.8.13+commit.abaa5c0e.Emscripten.clang"
  },
  "schemaVersion": "3.4.11",
  "updatedAt": "2023-03-08T16:28:52.059Z",
  "devdoc": {
    "kind": "dev",
    "methods": {
      "approve(address,uint256)": {
        "details": "See {IERC721-approve}."
      },
      "balanceOf(address)": {
        "details": "See {IERC721-balanceOf}."
      },
      "getApproved(uint256)": {
        "details": "See {IERC721-getApproved}."
      },
      "isApprovedForAll(address,address)": {
        "details": "See {IERC721-isApprovedForAll}."
      },
      "name()": {
        "details": "See {IERC721Metadata-name}."
      },
      "owner()": {
        "details": "Returns the address of the current owner."
      },
      "ownerOf(uint256)": {
        "details": "See {IERC721-ownerOf}."
      },
      "renounceOwnership()": {
        "details": "Leaves the contract without owner. It will not be possible to call `onlyOwner` functions anymore. Can only be called by the current owner. NOTE: Renouncing ownership will leave the contract without an owner, thereby removing any functionality that is only available to the owner."
      },
      "safeTransferFrom(address,address,uint256)": {
        "details": "See {IERC721-safeTransferFrom}."
      },
      "safeTransferFrom(address,address,uint256,bytes)": {
        "details": "See {IERC721-safeTransferFrom}."
      },
      "setApprovalForAll(address,bool)": {
        "details": "See {IERC721-setApprovalForAll}."
      },
      "symbol()": {
        "details": "See {IERC721Metadata-symbol}."
      },
      "tokenByIndex(uint256)": {
        "details": "See {IERC721Enumerable-tokenByIndex}."
      },
      "tokenOfOwnerByIndex(address,uint256)": {
        "details": "See {IERC721Enumerable-tokenOfOwnerByIndex}."
      },
      "totalSupply()": {
        "details": "See {IERC721Enumerable-totalSupply}."
      },
      "transferFrom(address,address,uint256)": {
        "details": "See {IERC721-transferFrom}."
      },
      "transferOwnership(address)": {
        "details": "Transfers ownership of the contract to a new account (`newOwner`). Can only be called by the current owner."
      }
    },
    "version": 1
  },
  "userdoc": {
    "kind": "user",
    "methods": {},
    "version": 1
  }
}