{
  "contractName": "Marketplace",
  "abi": [
    {
      "inputs": [],
      "stateMutability": "nonpayable",
      "type": "constructor"
    },
    {
      "anonymous": false,
      "inputs": [
        {
          "indexed": true,
          "internalType": "address",
          "name": "owner",
          "type": "address"
        },
        {
          "indexed": true,
          "internalType": "address",
          "name": "seller",
          "type": "address"
        },
        {
          "indexed": false,
          "internalType": "uint256",
          "name": "price",
          "type": "uint256"
        }
      ],
      "name": "NFTDetailsUpdated",
      "type": "event"
    },
    {
      "anonymous": false,
      "inputs": [
        {
          "indexed": false,
          "internalType": "address",
          "name": "nftContract",
          "type": "address"
        },
        {
          "indexed": false,
          "internalType": "uint256",
          "name": "tokenId",
          "type": "uint256"
        },
        {
          "indexed": false,
          "internalType": "address",
          "name": "seller",
          "type": "address"
        },
        {
          "indexed": false,
          "internalType": "address",
          "name": "owner",
          "type": "address"
        },
        {
          "indexed": false,
          "internalType": "uint256",
          "name": "price",
          "type": "uint256"
        }
      ],
      "name": "NFTListed",
      "type": "event"
    },
    {
      "anonymous": false,
      "inputs": [
        {
          "indexed": false,
          "internalType": "address",
          "name": "nftContract",
          "type": "address"
        },
        {
          "indexed": false,
          "internalType": "uint256",
          "name": "tokenId",
          "type": "uint256"
        },
        {
          "indexed": false,
          "internalType": "address",
          "name": "seller",
          "type": "address"
        },
        {
          "indexed": false,
          "internalType": "address",
          "name": "owner",
          "type": "address"
        },
        {
          "indexed": false,
          "internalType": "uint256",
          "name": "price",
          "type": "uint256"
        }
      ],
      "name": "NFTSold",
      "type": "event"
    },
    {
      "inputs": [],
      "name": "LISTING_FEE",
      "outputs": [
        {
          "internalType": "uint256",
          "name": "",
          "type": "uint256"
        }
      ],
      "stateMutability": "view",
      "type": "function"
    },
    {
      "inputs": [
        {
          "internalType": "address",
          "name": "_nftContract",
          "type": "address"
        },
        {
          "internalType": "uint256",
          "name": "_tokenId",
          "type": "uint256"
        },
        {
          "internalType": "uint256",
          "name": "_price",
          "type": "uint256"
        }
      ],
      "name": "listNft",
      "outputs": [],
      "stateMutability": "payable",
      "type": "function"
    },
    {
      "inputs": [
        {
          "internalType": "address",
          "name": "_nftContract",
          "type": "address"
        },
        {
          "internalType": "uint256",
          "name": "_tokenId",
          "type": "uint256"
        }
      ],
      "name": "buyNft",
      "outputs": [],
      "stateMutability": "payable",
      "type": "function"
    },
    {
      "inputs": [
        {
          "internalType": "uint256",
          "name": "_tokenId",
          "type": "uint256"
        },
        {
          "internalType": "uint256",
          "name": "_newPrice",
          "type": "uint256"
        }
      ],
      "name": "resellNft",
      "outputs": [],
      "stateMutability": "nonpayable",
      "type": "function"
    },
    {
      "inputs": [],
      "name": "getListingFee",
      "outputs": [
        {
          "internalType": "uint256",
          "name": "",
          "type": "uint256"
        }
      ],
      "stateMutability": "view",
      "type": "function"
    },
    {
      "inputs": [],
      "name": "getListedNfts",
      "outputs": [
        {
          "components": [
            {
              "internalType": "address",
              "name": "nftContract",
              "type": "address"
            },
            {
              "internalType": "uint256",
              "name": "tokenId",
              "type": "uint256"
            },
            {
              "internalType": "address payable",
              "name": "seller",
              "type": "address"
            },
            {
              "internalType": "address payable",
              "name": "owner",
              "type": "address"
            },
            {
              "internalType": "uint256",
              "name": "price",
              "type": "uint256"
            },
            {
              "internalType": "bool",
              "name": "onSale",
              "type": "bool"
            }
          ],
          "internalType": "struct Marketplace.NFT[]",
          "name": "",
          "type": "tuple[]"
        }
      ],
      "stateMutability": "view",
      "type": "function"
    },
    {
      "inputs": [],
      "name": "getMyNfts",
      "outputs": [
        {
          "components": [
            {
              "internalType": "address",
              "name": "nftContract",
              "type": "address"
            },
            {
              "internalType": "uint256",
              "name": "tokenId",
              "type": "uint256"
            },
            {
              "internalType": "address payable",
              "name": "seller",
              "type": "address"
            },
            {
              "internalType": "address payable",
              "name": "owner",
              "type": "address"
            },
            {
              "internalType": "uint256",
              "name": "price",
              "type": "uint256"
            },
            {
              "internalType": "bool",
              "name": "onSale",
              "type": "bool"
            }
          ],
          "internalType": "struct Marketplace.NFT[]",
          "name": "",
          "type": "tuple[]"
        }
      ],
      "stateMutability": "view",
      "type": "function"
    },
    {
      "inputs": [],
      "name": "getMyListedNfts",
      "outputs": [
        {
          "components": [
            {
              "internalType": "address",
              "name": "nftContract",
              "type": "address"
            },
            {
              "internalType": "uint256",
              "name": "tokenId",
              "type": "uint256"
            },
            {
              "internalType": "address payable",
              "name": "seller",
              "type": "address"
            },
            {
              "internalType": "address payable",
              "name": "owner",
              "type": "address"
            },
            {
              "internalType": "uint256",
              "name": "price",
              "type": "uint256"
            },
            {
              "internalType": "bool",
              "name": "onSale",
              "type": "bool"
            }
          ],
          "internalType": "struct Marketplace.NFT[]",
          "name": "",
          "type": "tuple[]"
        }
      ],
      "stateMutability": "view",
      "type": "function"
    },
    {
      "inputs": [],
      "name": "getContractAddress",
      "outputs": [
        {
          "internalType": "address",
          "name": "",
          "type": "address"
        }
      ],
      "stateMutability": "view",
      "type": "function"
    }
  ],
  "bytecode": "0x6080604052655af3107a400060035534801561001a57600080fd5b50600160008190555033600460006101000a81548173ffffffffffffffffffffffffffffffffffffffff021916908373ffffffffffffffffffffffffffffffffffffffff1602179055506123b6806100736000396000f3fe6080604052600436106100865760003560e01c806332a2c5d01161005957806332a2c5d0146101355780634ddf4f8f146101605780638d6cb3fb1461017c578063b8fe6abe146101a7578063c922b17c146101d257610086565b8063047b07bf1461008b5780631f4cc4db146100b657806320d748e7146100e15780632b86ae381461010a575b600080fd5b34801561009757600080fd5b506100a06101ee565b6040516100ad919061199a565b60405180910390f35b3480156100c257600080fd5b506100cb610503565b6040516100d8919061199a565b60405180910390f35b3480156100ed57600080fd5b50610108600480360381019061010391906119ed565b610872565b005b34801561011657600080fd5b5061011f610db2565b60405161012c9190611a3c565b60405180910390f35b34801561014157600080fd5b5061014a610db8565b6040516101579190611a66565b60405180910390f35b61017a60048036038101906101759190611aad565b610dc0565b005b34801561018857600080fd5b506101916111ac565b60405161019e919061199a565b60405180910390f35b3480156101b357600080fd5b506101bc6113e5565b6040516101c99190611a3c565b60405180910390f35b6101ec60048036038101906101e79190611aed565b6113ef565b005b606060006101fc60026116e3565b9050600080600190505b828111610298573373ffffffffffffffffffffffffffffffffffffffff166005600083815260200190815260200160002060030160009054906101000a900473ffffffffffffffffffffffffffffffffffffffff1673ffffffffffffffffffffffffffffffffffffffff160361028557818061028190611b6f565b9250505b808061029090611b6f565b915050610206565b5060008167ffffffffffffffff8111156102b5576102b4611bb7565b5b6040519080825280602002602001820160405280156102ee57816020015b6102db611760565b8152602001906001900390816102d35790505b509050600080600190505b8481116104f8573373ffffffffffffffffffffffffffffffffffffffff166005600083815260200190815260200160002060030160009054906101000a900473ffffffffffffffffffffffffffffffffffffffff1673ffffffffffffffffffffffffffffffffffffffff16036104e557600560008281526020019081526020016000206040518060c00160405290816000820160009054906101000a900473ffffffffffffffffffffffffffffffffffffffff1673ffffffffffffffffffffffffffffffffffffffff1673ffffffffffffffffffffffffffffffffffffffff168152602001600182015481526020016002820160009054906101000a900473ffffffffffffffffffffffffffffffffffffffff1673ffffffffffffffffffffffffffffffffffffffff1673ffffffffffffffffffffffffffffffffffffffff1681526020016003820160009054906101000a900473ffffffffffffffffffffffffffffffffffffffff1673ffffffffffffffffffffffffffffffffffffffff1673ffffffffffffffffffffffffffffffffffffffff168152602001600482015481526020016005820160009054906101000a900460ff1615151515815250508383815181106104cb576104ca611be6565b5b602002602001018190525081806104e190611b6f565b9250505b80806104f090611b6f565b9150506102f9565b508194505050505090565b6060600061051160026116e3565b9050600080600190505b8281116105da573373ffffffffffffffffffffffffffffffffffffffff166005600083815260200190815260200160002060020160009054906101000a900473ffffffffffffffffffffffffffffffffffffffff1673ffffffffffffffffffffffffffffffffffffffff161480156105b357506005600082815260200190815260200160002060050160009054906101000a900460ff165b156105c75781806105c390611b6f565b9250505b80806105d290611b6f565b91505061051b565b5060008167ffffffffffffffff8111156105f7576105f6611bb7565b5b60405190808252806020026020018201604052801561063057816020015b61061d611760565b8152602001906001900390816106155790505b509050600080600190505b848111610867573373ffffffffffffffffffffffffffffffffffffffff166005600083815260200190815260200160002060020160009054906101000a900473ffffffffffffffffffffffffffffffffffffffff1673ffffffffffffffffffffffffffffffffffffffff161480156106d357506005600082815260200190815260200160002060050160009054906101000a900460ff165b1561085457600560008281526020019081526020016000206040518060c00160405290816000820160009054906101000a900473ffffffffffffffffffffffffffffffffffffffff1673ffffffffffffffffffffffffffffffffffffffff1673ffffffffffffffffffffffffffffffffffffffff168152602001600182015481526020016002820160009054906101000a900473ffffffffffffffffffffffffffffffffffffffff1673ffffffffffffffffffffffffffffffffffffffff1673ffffffffffffffffffffffffffffffffffffffff1681526020016003820160009054906101000a900473ffffffffffffffffffffffffffffffffffffffff1673ffffffffffffffffffffffffffffffffffffffff1673ffffffffffffffffffffffffffffffffffffffff168152602001600482015481526020016005820160009054906101000a900460ff16151515158152505083838151811061083a57610839611be6565b5b6020026020010181905250818061085090611b6f565b9250505b808061085f90611b6f565b91505061063b565b508194505050505090565b60006005600084815260200190815260200160002090503373ffffffffffffffffffffffffffffffffffffffff168160030160009054906101000a900473ffffffffffffffffffffffffffffffffffffffff1673ffffffffffffffffffffffffffffffffffffffff161461091b576040517f08c379a000000000000000000000000000000000000000000000000000000000815260040161091290611c72565b60405180910390fd5b8060050160009054906101000a900460ff1661096c576040517f08c379a000000000000000000000000000000000000000000000000000000000815260040161096390611d04565b60405180910390fd5b600082116109af576040517f08c379a00000000000000000000000000000000000000000000000000000000081526004016109a690611d70565b60405180910390fd5b806004015482036109f5576040517f08c379a00000000000000000000000000000000000000000000000000000000081526004016109ec90611e02565b60405180910390fd5b60006064600a84610a069190611e22565b610a109190611eab565b90508160000160009054906101000a900473ffffffffffffffffffffffffffffffffffffffff1673ffffffffffffffffffffffffffffffffffffffff166342842e0e308460020160009054906101000a900473ffffffffffffffffffffffffffffffffffffffff16876040518463ffffffff1660e01b8152600401610a9793929190611f3b565b600060405180830381600087803b158015610ab157600080fd5b505af1158015610ac5573d6000803e3d6000fd5b5050505060008260030160009054906101000a900473ffffffffffffffffffffffffffffffffffffffff1673ffffffffffffffffffffffffffffffffffffffff1684604051610b1390611fa3565b60006040518083038185875af1925050503d8060008114610b50576040519150601f19603f3d011682016040523d82523d6000602084013e610b55565b606091505b5050905080610b99576040517f08c379a0000000000000000000000000000000000000000000000000000000008152600401610b9090612004565b60405180910390fd5b600460009054906101000a900473ffffffffffffffffffffffffffffffffffffffff1673ffffffffffffffffffffffffffffffffffffffff166108fc839081150290604051600060405180830381858888f19350505050158015610c01573d6000803e3d6000fd5b50838360040181905550338360020160006101000a81548173ffffffffffffffffffffffffffffffffffffffff021916908373ffffffffffffffffffffffffffffffffffffffff16021790555060018360050160006101000a81548160ff0219169083151502179055508260020160009054906101000a900473ffffffffffffffffffffffffffffffffffffffff1673ffffffffffffffffffffffffffffffffffffffff168360030160009054906101000a900473ffffffffffffffffffffffffffffffffffffffff1673ffffffffffffffffffffffffffffffffffffffff167fe76dd5ece88bf45dc5ffae9854b1a2d726bc661eec08d7ef036799f19cfa0c128560040154604051610d149190611a3c565b60405180910390a37fa0c6c0d02d86fdacecbaa5fdf5894bab204e31a778250474108540733a9b8d198360000160009054906101000a900473ffffffffffffffffffffffffffffffffffffffff1684600101548560020160009054906101000a900473ffffffffffffffffffffffffffffffffffffffff16308760040154604051610da3959493929190612024565b60405180910390a15050505050565b60035481565b600030905090565b610dc86116f1565b6000600560008381526020019081526020016000209050600115158160050160009054906101000a900460ff16151514610e37576040517f08c379a0000000000000000000000000000000000000000000000000000000008152600401610e2e90611d04565b60405180910390fd5b6003548160040154610e499190612077565b3414610e8a576040517f08c379a0000000000000000000000000000000000000000000000000000000008152600401610e819061213f565b60405180910390fd5b60008160020160009054906101000a900473ffffffffffffffffffffffffffffffffffffffff16905060003390508473ffffffffffffffffffffffffffffffffffffffff166323b872dd308386600101546040518463ffffffff1660e01b8152600401610ef993929190611f3b565b600060405180830381600087803b158015610f1357600080fd5b505af1158015610f27573d6000803e3d6000fd5b5050505060008273ffffffffffffffffffffffffffffffffffffffff168460040154604051610f5590611fa3565b60006040518083038185875af1925050503d8060008114610f92576040519150601f19603f3d011682016040523d82523d6000602084013e610f97565b606091505b5050905080610fdb576040517f08c379a0000000000000000000000000000000000000000000000000000000008152600401610fd290612004565b60405180910390fd5b600460009054906101000a900473ffffffffffffffffffffffffffffffffffffffff1673ffffffffffffffffffffffffffffffffffffffff166108fc6003549081150290604051600060405180830381858888f19350505050158015611045573d6000803e3d6000fd5b50818460030160006101000a81548173ffffffffffffffffffffffffffffffffffffffff021916908373ffffffffffffffffffffffffffffffffffffffff16021790555060008460050160006101000a81548160ff0219169083151502179055507f16f1dbd97e6bf646d429ed186cce832f1f7fd9907814293b83181e9970ab7bd2868560010154858588600401546040516110e595949392919061215f565b60405180910390a160056000868152602001908152602001600020600080820160006101000a81549073ffffffffffffffffffffffffffffffffffffffff021916905560018201600090556002820160006101000a81549073ffffffffffffffffffffffffffffffffffffffff02191690556003820160006101000a81549073ffffffffffffffffffffffffffffffffffffffff021916905560048201600090556005820160006101000a81549060ff02191690555050505050506111a8611740565b5050565b606060006111ba60026116e3565b905060008167ffffffffffffffff8111156111d8576111d7611bb7565b5b60405190808252806020026020018201604052801561121157816020015b6111fe611760565b8152602001906001900390816111f65790505b509050600080600190505b8381116113db576005600082815260200190815260200160002060050160009054906101000a900460ff16156113c857600560008281526020019081526020016000206040518060c00160405290816000820160009054906101000a900473ffffffffffffffffffffffffffffffffffffffff1673ffffffffffffffffffffffffffffffffffffffff1673ffffffffffffffffffffffffffffffffffffffff168152602001600182015481526020016002820160009054906101000a900473ffffffffffffffffffffffffffffffffffffffff1673ffffffffffffffffffffffffffffffffffffffff1673ffffffffffffffffffffffffffffffffffffffff1681526020016003820160009054906101000a900473ffffffffffffffffffffffffffffffffffffffff1673ffffffffffffffffffffffffffffffffffffffff1673ffffffffffffffffffffffffffffffffffffffff168152602001600482015481526020016005820160009054906101000a900460ff1615151515815250508383815181106113ae576113ad611be6565b5b602002602001018190525081806113c490611b6f565b9250505b80806113d390611b6f565b91505061121c565b5081935050505090565b6000600354905090565b6113f76116f1565b6000811161143a576040517f08c379a0000000000000000000000000000000000000000000000000000000008152600401611431906121fe565b60405180910390fd5b600354341461147e576040517f08c379a00000000000000000000000000000000000000000000000000000000081526004016114759061226a565b60405180910390fd5b8273ffffffffffffffffffffffffffffffffffffffff166323b872dd3330856040518463ffffffff1660e01b81526004016114bb9392919061228a565b600060405180830381600087803b1580156114d557600080fd5b505af11580156114e9573d6000803e3d6000fd5b505050506114f7600261174a565b600061150360026116e3565b90506040518060c001604052808573ffffffffffffffffffffffffffffffffffffffff1681526020018281526020013373ffffffffffffffffffffffffffffffffffffffff1681526020013073ffffffffffffffffffffffffffffffffffffffff168152602001838152602001600115158152506005600083815260200190815260200160002060008201518160000160006101000a81548173ffffffffffffffffffffffffffffffffffffffff021916908373ffffffffffffffffffffffffffffffffffffffff1602179055506020820151816001015560408201518160020160006101000a81548173ffffffffffffffffffffffffffffffffffffffff021916908373ffffffffffffffffffffffffffffffffffffffff16021790555060608201518160030160006101000a81548173ffffffffffffffffffffffffffffffffffffffff021916908373ffffffffffffffffffffffffffffffffffffffff1602179055506080820151816004015560a08201518160050160006101000a81548160ff0219169083151502179055509050507fa0c6c0d02d86fdacecbaa5fdf5894bab204e31a778250474108540733a9b8d1984823330866040516116cd9594939291906122c1565b60405180910390a1506116de611740565b505050565b600081600001549050919050565b600260005403611736576040517f08c379a000000000000000000000000000000000000000000000000000000000815260040161172d90612360565b60405180910390fd5b6002600081905550565b6001600081905550565b6001816000016000828254019250508190555050565b6040518060c00160405280600073ffffffffffffffffffffffffffffffffffffffff16815260200160008152602001600073ffffffffffffffffffffffffffffffffffffffff168152602001600073ffffffffffffffffffffffffffffffffffffffff168152602001600081526020016000151581525090565b600081519050919050565b600082825260208201905092915050565b6000819050602082019050919050565b600073ffffffffffffffffffffffffffffffffffffffff82169050919050565b600061183182611806565b9050919050565b61184181611826565b82525050565b6000819050919050565b61185a81611847565b82525050565b600061186b82611806565b9050919050565b61187b81611860565b82525050565b60008115159050919050565b61189681611881565b82525050565b60c0820160008201516118b26000850182611838565b5060208201516118c56020850182611851565b5060408201516118d86040850182611872565b5060608201516118eb6060850182611872565b5060808201516118fe6080850182611851565b5060a082015161191160a085018261188d565b50505050565b6000611923838361189c565b60c08301905092915050565b6000602082019050919050565b6000611947826117da565b61195181856117e5565b935061195c836117f6565b8060005b8381101561198d5781516119748882611917565b975061197f8361192f565b925050600181019050611960565b5085935050505092915050565b600060208201905081810360008301526119b4818461193c565b905092915050565b600080fd5b6119ca81611847565b81146119d557600080fd5b50565b6000813590506119e7816119c1565b92915050565b60008060408385031215611a0457611a036119bc565b5b6000611a12858286016119d8565b9250506020611a23858286016119d8565b9150509250929050565b611a3681611847565b82525050565b6000602082019050611a516000830184611a2d565b92915050565b611a6081611826565b82525050565b6000602082019050611a7b6000830184611a57565b92915050565b611a8a81611826565b8114611a9557600080fd5b50565b600081359050611aa781611a81565b92915050565b60008060408385031215611ac457611ac36119bc565b5b6000611ad285828601611a98565b9250506020611ae3858286016119d8565b9150509250929050565b600080600060608486031215611b0657611b056119bc565b5b6000611b1486828701611a98565b9350506020611b25868287016119d8565b9250506040611b36868287016119d8565b9150509250925092565b7f4e487b7100000000000000000000000000000000000000000000000000000000600052601160045260246000fd5b6000611b7a82611847565b91507fffffffffffffffffffffffffffffffffffffffffffffffffffffffffffffffff8203611bac57611bab611b40565b5b600182019050919050565b7f4e487b7100000000000000000000000000000000000000000000000000000000600052604160045260246000fd5b7f4e487b7100000000000000000000000000000000000000000000000000000000600052603260045260246000fd5b600082825260208201905092915050565b7f596f7520646f206e6f74206f776e2074686973204e4654000000000000000000600082015250565b6000611c5c601783611c15565b9150611c6782611c26565b602082019050919050565b60006020820190508181036000830152611c8b81611c4f565b9050919050565b7f4e4654206e6f742063757272656e746c79206c697374656420666f722073616c60008201527f6500000000000000000000000000000000000000000000000000000000000000602082015250565b6000611cee602183611c15565b9150611cf982611c92565b604082019050919050565b60006020820190508181036000830152611d1d81611ce1565b9050919050565b7f4e6577207072696365206d7573742062652067726561746572207468616e2030600082015250565b6000611d5a602083611c15565b9150611d6582611d24565b602082019050919050565b60006020820190508181036000830152611d8981611d4d565b9050919050565b7f4e6577207072696365206d75737420626520646966666572656e742066726f6d60008201527f2063757272656e74207072696365000000000000000000000000000000000000602082015250565b6000611dec602e83611c15565b9150611df782611d90565b604082019050919050565b60006020820190508181036000830152611e1b81611ddf565b9050919050565b6000611e2d82611847565b9150611e3883611847565b9250817fffffffffffffffffffffffffffffffffffffffffffffffffffffffffffffffff0483118215151615611e7157611e70611b40565b5b828202905092915050565b7f4e487b7100000000000000000000000000000000000000000000000000000000600052601260045260246000fd5b6000611eb682611847565b9150611ec183611847565b925082611ed157611ed0611e7c565b5b828204905092915050565b6000819050919050565b6000611f01611efc611ef784611806565b611edc565b611806565b9050919050565b6000611f1382611ee6565b9050919050565b6000611f2582611f08565b9050919050565b611f3581611f1a565b82525050565b6000606082019050611f506000830186611a57565b611f5d6020830185611f2c565b611f6a6040830184611a2d565b949350505050565b600081905092915050565b50565b6000611f8d600083611f72565b9150611f9882611f7d565b600082019050919050565b6000611fae82611f80565b9150819050919050565b7f4661696c656420746f2073656e6420657468657220746f2073656c6c65720000600082015250565b6000611fee601e83611c15565b9150611ff982611fb8565b602082019050919050565b6000602082019050818103600083015261201d81611fe1565b9050919050565b600060a0820190506120396000830188611a57565b6120466020830187611a2d565b6120536040830186611f2c565b6120606060830185611a57565b61206d6080830184611a2d565b9695505050505050565b600061208282611847565b915061208d83611847565b9250827fffffffffffffffffffffffffffffffffffffffffffffffffffffffffffffffff038211156120c2576120c1611b40565b5b828201905092915050565b7f506c656173652073656e642074686520657861637420616d6f756e74206f662060008201527f657468657220726571756972656420746f2062757920746865204e4654000000602082015250565b6000612129603d83611c15565b9150612134826120cd565b604082019050919050565b600060208201905081810360008301526121588161211c565b9050919050565b600060a0820190506121746000830188611a57565b6121816020830187611a2d565b61218e6040830186611f2c565b61219b6060830185611f2c565b6121a86080830184611a2d565b9695505050505050565b7f5072696365206d757374206265206174206c6561737420312077656900000000600082015250565b60006121e8601c83611c15565b91506121f3826121b2565b602082019050919050565b60006020820190508181036000830152612217816121db565b9050919050565b7f4e6f7420656e6f75676820657468657220666f72206c697374696e6720666565600082015250565b6000612254602083611c15565b915061225f8261221e565b602082019050919050565b6000602082019050818103600083015261228381612247565b9050919050565b600060608201905061229f6000830186611a57565b6122ac6020830185611a57565b6122b96040830184611a2d565b949350505050565b600060a0820190506122d66000830188611a57565b6122e36020830187611a2d565b6122f06040830186611a57565b6122fd6060830185611a57565b61230a6080830184611a2d565b9695505050505050565b7f5265656e7472616e637947756172643a207265656e7472616e742063616c6c00600082015250565b600061234a601f83611c15565b915061235582612314565b602082019050919050565b600060208201905081810360008301526123798161233d565b905091905056fea26469706673582212208a1fa1f9cf3c5096d8993a2b2fe403b0c47d572be28355d354a8cd136cdf07b564736f6c634300080d0033",
  "immutableReferences": {},
  "source": "// SPDX-License-Identifier: MIT\r\npragma solidity ^0.8.13;\r\n\r\nimport \"@openzeppelin/contracts/utils/Counters.sol\"; // provides counters for tracking the number of NFTs sold and the token ID for each NFT\r\nimport \"@openzeppelin/contracts/token/ERC721/IERC721.sol\"; // interface for the ERC721 standard\r\nimport \"@openzeppelin/contracts/security/ReentrancyGuard.sol\"; // protects against re-entrancy attacks\r\n\r\ncontract Marketplace is ReentrancyGuard {\r\n    using Counters for Counters.Counter;\r\n    Counters.Counter private _nftsSold; // counter for the number of NFTs sold\r\n    Counters.Counter private _tokenIdCounter; // counter for assigning unique token IDs to NFTs\r\n    uint256 public LISTING_FEE = 0.0001 ether; // the fee charged by the marketplace to list an NFT\r\n    address payable private _marketOwner; // address of the owner of the marketplace\r\n    mapping(uint256 => NFT) private _idToNFT; // maps token IDs to NFT structs\r\n    struct NFT {\r\n        address nftContract; // address of the NFT contract\r\n        uint256 tokenId; // ID of the NFT\r\n        address payable seller; // address of the seller of the NFT\r\n        address payable owner; // address of the current owner of the NFT\r\n        uint256 price; // price of the NFT\r\n        bool onSale; // indicates whether the NFT is currently for sale\r\n    }\r\n\r\n    // An event is emitted, it stores the arguments passed in transaction logs. These logs are stored on blockchain\r\n    event NFTListed(\r\n        address nftContract,\r\n        uint256 tokenId,\r\n        address seller,\r\n        address owner,\r\n        uint256 price\r\n    );\r\n    event NFTSold(\r\n        address nftContract,\r\n        uint256 tokenId,\r\n        address seller,\r\n        address owner,\r\n        uint256 price\r\n    );\r\n\r\n    constructor() {\r\n        _marketOwner = payable(msg.sender); // sets the marketplace owner to the address that deployed the contract\r\n    }\r\n\r\n    function listNft(\r\n        address _nftContract, // aka FlatNFT.sol\r\n        uint256 _tokenId, // NFT ID\r\n        uint256 _price // price is price\r\n    ) public payable nonReentrant {\r\n        require(_price > 0, \"Price must be at least 1 wei\"); // ensures that the NFT price is greater than 0\r\n        require(msg.value == LISTING_FEE, \"Not enough ether for listing fee\"); // ensures that the caller has sent enough ether to cover the listing fee\r\n\r\n        IERC721(_nftContract).transferFrom(msg.sender, address(this), _tokenId); // transfers the NFT to the marketplace contract\r\n\r\n        _tokenIdCounter.increment(); // increments the token ID counter to assign a unique ID to the NFT\r\n        uint256 tokenId = _tokenIdCounter.current();\r\n\r\n        _idToNFT[tokenId] = NFT( // creates a new NFT struct for the listed NFT\r\n            _nftContract,\r\n            tokenId,\r\n            payable(msg.sender), // payable - can recieve ether in the contract\r\n            payable(address(this)),\r\n            _price,\r\n            true\r\n        );\r\n\r\n        emit NFTListed(\r\n            _nftContract,\r\n            tokenId,\r\n            msg.sender,\r\n            address(this),\r\n            _price\r\n        ); // emits an event indicating that a new NFT has been listed for sale\r\n    }\r\n\r\n    // Event emitted when an NFT's details are updated\r\n    event NFTDetailsUpdated(\r\n        address indexed owner,\r\n        address indexed seller,\r\n        uint256 price\r\n    );\r\n\r\n    function buyNft(\r\n        address _nftContract, //FlatNFT.sol\r\n        uint256 _tokenId\r\n    ) public payable nonReentrant {\r\n        // nonReentrant makes sure counter encrement is up by only 1\r\n        // Retrieve the NFT with the specified token ID\r\n        NFT storage nft = _idToNFT[_tokenId];\r\n\r\n        // Ensure that the NFT is currently listed for sale\r\n        require(nft.onSale == true, \"NFT not currently listed for sale\");\r\n\r\n        // Ensure that the buyer sends the exact amount of ether required to purchase the NFT\r\n        require(\r\n            msg.value == nft.price + LISTING_FEE,\r\n            \"Please send the exact amount of ether required to buy the NFT\"\r\n        );\r\n\r\n        // Store the addresses of the seller and the buyer\r\n        address payable seller = nft.seller;\r\n        address payable buyer = payable(msg.sender);\r\n\r\n        // Transfer ownership of the NFT from the marketplace to the buyer\r\n        IERC721(_nftContract).transferFrom(address(this), buyer, nft.tokenId);\r\n\r\n        // Send the payment to the seller\r\n        (bool sent, ) = seller.call{value: nft.price}(\"\");\r\n        require(sent, \"Failed to send ether to seller\");\r\n\r\n        // Transfer the listing fee to the marketplace owner\r\n        _marketOwner.transfer(LISTING_FEE);\r\n\r\n        // Update the NFT struct with the new owner and set the onSale variable to false\r\n        nft.owner = buyer;\r\n        nft.onSale = false;\r\n\r\n        // Emit an event to notify listeners that the NFT was sold\r\n        emit NFTSold(_nftContract, nft.tokenId, seller, buyer, nft.price);\r\n\r\n        // Remove the NFT from the marketplace\r\n        delete _idToNFT[_tokenId];\r\n    }\r\n\r\n    function resellNft(uint256 _tokenId, uint256 _newPrice) external {\r\n        // Get the NFT struct for the specified token ID\r\n        NFT storage nft = _idToNFT[_tokenId];\r\n\r\n        // Ensure that the caller is the current owner of the NFT\r\n        require(nft.owner == msg.sender, \"You do not own this NFT\");\r\n\r\n        // Ensure that the NFT is currently on sale\r\n        require(nft.onSale, \"NFT not currently listed for sale\");\r\n\r\n        // Ensure that the new price is greater than 0\r\n        require(_newPrice > 0, \"New price must be greater than 0\");\r\n\r\n        // Ensure that the new price is different from the current price\r\n        require(\r\n            _newPrice != nft.price,\r\n            \"New price must be different from current price\"\r\n        );\r\n\r\n        // Calculate the commission\r\n        uint256 commission = (_newPrice * 10) / 100; // dynamic method to set LISTING_FEE for a particular sale based on percentage to charge for successful sale\r\n\r\n        // Transfer the NFT back to the seller\r\n        IERC721(nft.nftContract).safeTransferFrom(\r\n            address(this),\r\n            nft.seller,\r\n            _tokenId\r\n        );\r\n\r\n        // Transfer the funds from the buyer to the seller\r\n        (bool sent, ) = nft.owner.call{value: _newPrice}(\"\");\r\n        require(sent, \"Failed to send ether to seller\");\r\n\r\n        // Transfer the commission to the owner of the marketplace contract\r\n        _marketOwner.transfer(commission);\r\n\r\n        // Update the NFT struct with the new price and seller\r\n        nft.price = _newPrice;\r\n        nft.seller = payable(msg.sender);\r\n        nft.onSale = true;\r\n\r\n        // Emit an event to notify listeners that the NFT's details have been updated\r\n        emit NFTDetailsUpdated(nft.owner, nft.seller, nft.price);\r\n\r\n        // Emit an event to notify listeners that the NFT has been listed for sale\r\n        emit NFTListed(\r\n            nft.nftContract,\r\n            nft.tokenId,\r\n            nft.seller,\r\n            address(this),\r\n            nft.price\r\n        );\r\n    }\r\n\r\n    function getListingFee() public view returns (uint256) {\r\n        // Returns the listing fee charged by the marketplace to list an NFT.\r\n        return LISTING_FEE;\r\n    }\r\n\r\n    function getListedNfts() public view returns (NFT[] memory) {\r\n        // Get the total number of NFTs in the marketplace\r\n        uint256 nftCount = _tokenIdCounter.current();\r\n\r\n        // Create an array to hold the NFTs listed for sale\r\n        NFT[] memory nfts = new NFT[](nftCount);\r\n        uint256 nftsIndex = 0;\r\n\r\n        // Loop through all NFTs and add the ones listed for sale to the array\r\n        for (uint256 i = 1; i <= nftCount; i++) {\r\n            if (_idToNFT[i].onSale) {\r\n                nfts[nftsIndex] = _idToNFT[i];\r\n                nftsIndex++;\r\n            }\r\n        }\r\n\r\n        // Return the array of NFTs listed for sale\r\n        return nfts;\r\n    }\r\n\r\n    function getMyNfts() public view returns (NFT[] memory) {\r\n        // Get the total number of NFTs in the marketplace\r\n        uint256 nftCount = _tokenIdCounter.current();\r\n\r\n        // Count how many NFTs the caller owns\r\n        uint256 myNftCount = 0;\r\n        for (uint256 i = 1; i <= nftCount; i++) {\r\n            if (_idToNFT[i].owner == msg.sender) {\r\n                myNftCount++;\r\n            }\r\n        }\r\n\r\n        // Create an array to hold the caller's NFTs\r\n        NFT[] memory nfts = new NFT[](myNftCount);\r\n        uint256 nftsIndex = 0;\r\n\r\n        // Loop through all NFTs and add the ones owned by the caller to the array\r\n        for (uint256 i = 1; i <= nftCount; i++) {\r\n            if (_idToNFT[i].owner == msg.sender) {\r\n                nfts[nftsIndex] = _idToNFT[i];\r\n                nftsIndex++;\r\n            }\r\n        }\r\n\r\n        // Return the array of the caller's NFTs\r\n        return nfts;\r\n    }\r\n\r\n    function getMyListedNfts() public view returns (NFT[] memory) {\r\n        // Get the total number of NFTs in the marketplace\r\n        uint256 nftCount = _tokenIdCounter.current();\r\n\r\n        // Count how many NFTs the caller has listed for sale\r\n        uint256 myListedNftCount = 0;\r\n        for (uint256 i = 1; i <= nftCount; i++) {\r\n            if (_idToNFT[i].seller == msg.sender && _idToNFT[i].onSale) {\r\n                myListedNftCount++;\r\n            }\r\n        }\r\n\r\n        // Create an array to hold the caller's NFTs listed for sale\r\n        NFT[] memory nfts = new NFT[](myListedNftCount);\r\n        uint256 nftsIndex = 0;\r\n\r\n        // Loop through all NFTs and add the ones listed for sale by the caller to the array\r\n        for (uint256 i = 1; i <= nftCount; i++) {\r\n            if (_idToNFT[i].seller == msg.sender && _idToNFT[i].onSale) {\r\n                nfts[nftsIndex] = _idToNFT[i];\r\n                nftsIndex++;\r\n            }\r\n        }\r\n\r\n        // Return the array of the caller's NFTs listed for sale\r\n        return nfts;\r\n    }\r\n\r\n    function getContractAddress() public view returns (address) {\r\n        return address(this);\r\n    }\r\n}\r\n",
  "sourcePath": "C:\\Users\\raman\\OneDrive\\Documents\\GitHub\\Meta_DeCentraland\\Meta_DeCenterland\\contracts\\Marketplace.sol",
  "compiler": {
    "name": "solc",
    "version": "0.8.13+commit.abaa5c0e.Emscripten.clang"
  },
  "schemaVersion": "3.4.11",
  "updatedAt": "2023-03-16T13:03:30.887Z",
  "devdoc": {
    "kind": "dev",
    "methods": {},
    "version": 1
  },
  "userdoc": {
    "kind": "user",
    "methods": {},
    "version": 1
  }
}