{
  "contractName": "Marketplace",
  "abi": [
    {
      "inputs": [],
      "stateMutability": "nonpayable",
      "type": "constructor"
    },
    {
      "anonymous": false,
      "inputs": [
        {
          "indexed": false,
          "internalType": "address",
          "name": "nftContract",
          "type": "address"
        },
        {
          "indexed": false,
          "internalType": "uint256",
          "name": "tokenId",
          "type": "uint256"
        },
        {
          "indexed": false,
          "internalType": "address",
          "name": "seller",
          "type": "address"
        },
        {
          "indexed": false,
          "internalType": "address",
          "name": "owner",
          "type": "address"
        },
        {
          "indexed": false,
          "internalType": "uint256",
          "name": "price",
          "type": "uint256"
        }
      ],
      "name": "NFTListed",
      "type": "event"
    },
    {
      "anonymous": false,
      "inputs": [
        {
          "indexed": false,
          "internalType": "address",
          "name": "nftContract",
          "type": "address"
        },
        {
          "indexed": false,
          "internalType": "uint256",
          "name": "tokenId",
          "type": "uint256"
        },
        {
          "indexed": false,
          "internalType": "address",
          "name": "seller",
          "type": "address"
        },
        {
          "indexed": false,
          "internalType": "address",
          "name": "owner",
          "type": "address"
        },
        {
          "indexed": false,
          "internalType": "uint256",
          "name": "price",
          "type": "uint256"
        }
      ],
      "name": "NFTSold",
      "type": "event"
    },
    {
      "inputs": [],
      "name": "LISTING_FEE",
      "outputs": [
        {
          "internalType": "uint256",
          "name": "",
          "type": "uint256"
        }
      ],
      "stateMutability": "view",
      "type": "function"
    },
    {
      "inputs": [
        {
          "internalType": "address",
          "name": "_nftContract",
          "type": "address"
        },
        {
          "internalType": "uint256",
          "name": "_tokenId",
          "type": "uint256"
        },
        {
          "internalType": "uint256",
          "name": "_price",
          "type": "uint256"
        }
      ],
      "name": "listNft",
      "outputs": [],
      "stateMutability": "payable",
      "type": "function"
    },
    {
      "inputs": [
        {
          "internalType": "uint256",
          "name": "_tokenId",
          "type": "uint256"
        }
      ],
      "name": "getNftDetails",
      "outputs": [
        {
          "internalType": "address",
          "name": "nftContract",
          "type": "address"
        },
        {
          "internalType": "uint256",
          "name": "tokenId",
          "type": "uint256"
        },
        {
          "internalType": "address",
          "name": "seller",
          "type": "address"
        },
        {
          "internalType": "address",
          "name": "owner",
          "type": "address"
        },
        {
          "internalType": "uint256",
          "name": "price",
          "type": "uint256"
        },
        {
          "internalType": "bool",
          "name": "onSale",
          "type": "bool"
        }
      ],
      "stateMutability": "view",
      "type": "function"
    },
    {
      "inputs": [
        {
          "internalType": "address",
          "name": "_nftContract",
          "type": "address"
        },
        {
          "internalType": "uint256",
          "name": "_tokenId",
          "type": "uint256"
        }
      ],
      "name": "buyNft",
      "outputs": [],
      "stateMutability": "payable",
      "type": "function"
    },
    {
      "inputs": [
        {
          "internalType": "address",
          "name": "_nftContract",
          "type": "address"
        },
        {
          "internalType": "uint256",
          "name": "_tokenId",
          "type": "uint256"
        },
        {
          "internalType": "uint256",
          "name": "_price",
          "type": "uint256"
        }
      ],
      "name": "resellNft",
      "outputs": [],
      "stateMutability": "payable",
      "type": "function"
    },
    {
      "inputs": [],
      "name": "getListingFee",
      "outputs": [
        {
          "internalType": "uint256",
          "name": "",
          "type": "uint256"
        }
      ],
      "stateMutability": "view",
      "type": "function"
    },
    {
      "inputs": [],
      "name": "getListedNfts",
      "outputs": [
        {
          "components": [
            {
              "internalType": "address",
              "name": "nftContract",
              "type": "address"
            },
            {
              "internalType": "uint256",
              "name": "tokenId",
              "type": "uint256"
            },
            {
              "internalType": "address payable",
              "name": "seller",
              "type": "address"
            },
            {
              "internalType": "address payable",
              "name": "owner",
              "type": "address"
            },
            {
              "internalType": "uint256",
              "name": "price",
              "type": "uint256"
            },
            {
              "internalType": "bool",
              "name": "onSale",
              "type": "bool"
            }
          ],
          "internalType": "struct Marketplace.NFT[]",
          "name": "",
          "type": "tuple[]"
        }
      ],
      "stateMutability": "view",
      "type": "function"
    },
    {
      "inputs": [],
      "name": "getMyNfts",
      "outputs": [
        {
          "components": [
            {
              "internalType": "address",
              "name": "nftContract",
              "type": "address"
            },
            {
              "internalType": "uint256",
              "name": "tokenId",
              "type": "uint256"
            },
            {
              "internalType": "address payable",
              "name": "seller",
              "type": "address"
            },
            {
              "internalType": "address payable",
              "name": "owner",
              "type": "address"
            },
            {
              "internalType": "uint256",
              "name": "price",
              "type": "uint256"
            },
            {
              "internalType": "bool",
              "name": "onSale",
              "type": "bool"
            }
          ],
          "internalType": "struct Marketplace.NFT[]",
          "name": "",
          "type": "tuple[]"
        }
      ],
      "stateMutability": "view",
      "type": "function"
    },
    {
      "inputs": [],
      "name": "getMyListedNfts",
      "outputs": [
        {
          "components": [
            {
              "internalType": "address",
              "name": "nftContract",
              "type": "address"
            },
            {
              "internalType": "uint256",
              "name": "tokenId",
              "type": "uint256"
            },
            {
              "internalType": "address payable",
              "name": "seller",
              "type": "address"
            },
            {
              "internalType": "address payable",
              "name": "owner",
              "type": "address"
            },
            {
              "internalType": "uint256",
              "name": "price",
              "type": "uint256"
            },
            {
              "internalType": "bool",
              "name": "onSale",
              "type": "bool"
            }
          ],
          "internalType": "struct Marketplace.NFT[]",
          "name": "",
          "type": "tuple[]"
        }
      ],
      "stateMutability": "view",
      "type": "function"
    }
  ],
  "bytecode": "0x6080604052655af3107a400060035534801561001a57600080fd5b50600160008190555033600460006101000a81548173ffffffffffffffffffffffffffffffffffffffff021916908373ffffffffffffffffffffffffffffffffffffffff160217905550611fd8806100736000396000f3fe6080604052600436106100865760003560e01c80634ddf4f8f116100595780634ddf4f8f146101285780638d6cb3fb14610144578063b8fe6abe1461016f578063c922b17c1461019a578063e85cd748146101b657610086565b8063047b07bf1461008b5780631f4cc4db146100b65780632b86ae38146100e157806334f5b6241461010c575b600080fd5b34801561009757600080fd5b506100a06101f8565b6040516100ad9190611797565b60405180910390f35b3480156100c257600080fd5b506100cb61052b565b6040516100d89190611797565b60405180910390f35b3480156100ed57600080fd5b506100f66108d0565b60405161010391906117c8565b60405180910390f35b61012660048036038101906101219190611840565b6108d6565b005b610142600480360381019061013d9190611893565b610aee565b005b34801561015057600080fd5b50610159610dd9565b6040516101669190611797565b60405180910390f35b34801561017b57600080fd5b50610184611041565b60405161019191906117c8565b60405180910390f35b6101b460048036038101906101af9190611840565b61104b565b005b3480156101c257600080fd5b506101dd60048036038101906101d891906118d3565b611330565b6040516101ef9695949392919061191e565b60405180910390f35b606060006102066002611484565b90506000805b828110156102ab573373ffffffffffffffffffffffffffffffffffffffff166005600060018461023c91906119ae565b815260200190815260200160002060030160009054906101000a900473ffffffffffffffffffffffffffffffffffffffff1673ffffffffffffffffffffffffffffffffffffffff160361029857818061029490611a04565b9250505b80806102a390611a04565b91505061020c565b5060008167ffffffffffffffff8111156102c8576102c7611a4c565b5b60405190808252806020026020018201604052801561030157816020015b6102ee61155d565b8152602001906001900390816102e65790505b5090506000805b84811015610520573373ffffffffffffffffffffffffffffffffffffffff166005600060018461033891906119ae565b815260200190815260200160002060030160009054906101000a900473ffffffffffffffffffffffffffffffffffffffff1673ffffffffffffffffffffffffffffffffffffffff160361050d576005600060018361039691906119ae565b81526020019081526020016000206040518060c00160405290816000820160009054906101000a900473ffffffffffffffffffffffffffffffffffffffff1673ffffffffffffffffffffffffffffffffffffffff1673ffffffffffffffffffffffffffffffffffffffff168152602001600182015481526020016002820160009054906101000a900473ffffffffffffffffffffffffffffffffffffffff1673ffffffffffffffffffffffffffffffffffffffff1673ffffffffffffffffffffffffffffffffffffffff1681526020016003820160009054906101000a900473ffffffffffffffffffffffffffffffffffffffff1673ffffffffffffffffffffffffffffffffffffffff1673ffffffffffffffffffffffffffffffffffffffff168152602001600482015481526020016005820160009054906101000a900460ff1615151515815250508383815181106104f3576104f2611a7b565b5b6020026020010181905250818061050990611a04565b9250505b808061051890611a04565b915050610308565b508194505050505090565b606060006105396002611484565b90506000805b82811015610617573373ffffffffffffffffffffffffffffffffffffffff166005600060018461056f91906119ae565b815260200190815260200160002060020160009054906101000a900473ffffffffffffffffffffffffffffffffffffffff1673ffffffffffffffffffffffffffffffffffffffff161480156105f05750600560006001836105d091906119ae565b815260200190815260200160002060050160009054906101000a900460ff165b1561060457818061060090611a04565b9250505b808061060f90611a04565b91505061053f565b5060008167ffffffffffffffff81111561063457610633611a4c565b5b60405190808252806020026020018201604052801561066d57816020015b61065a61155d565b8152602001906001900390816106525790505b5090506000805b848110156108c5573373ffffffffffffffffffffffffffffffffffffffff16600560006001846106a491906119ae565b815260200190815260200160002060020160009054906101000a900473ffffffffffffffffffffffffffffffffffffffff1673ffffffffffffffffffffffffffffffffffffffff1614801561072557506005600060018361070591906119ae565b815260200190815260200160002060050160009054906101000a900460ff165b156108b2576005600060018361073b91906119ae565b81526020019081526020016000206040518060c00160405290816000820160009054906101000a900473ffffffffffffffffffffffffffffffffffffffff1673ffffffffffffffffffffffffffffffffffffffff1673ffffffffffffffffffffffffffffffffffffffff168152602001600182015481526020016002820160009054906101000a900473ffffffffffffffffffffffffffffffffffffffff1673ffffffffffffffffffffffffffffffffffffffff1673ffffffffffffffffffffffffffffffffffffffff1681526020016003820160009054906101000a900473ffffffffffffffffffffffffffffffffffffffff1673ffffffffffffffffffffffffffffffffffffffff1673ffffffffffffffffffffffffffffffffffffffff168152602001600482015481526020016005820160009054906101000a900460ff16151515158152505083838151811061089857610897611a7b565b5b602002602001018190525081806108ae90611a04565b9250505b80806108bd90611a04565b915050610674565b508194505050505090565b60035481565b6108de611492565b60008111610921576040517f08c379a000000000000000000000000000000000000000000000000000000000815260040161091890611b07565b60405180910390fd5b6003543414610965576040517f08c379a000000000000000000000000000000000000000000000000000000000815260040161095c90611b73565b60405180910390fd5b8273ffffffffffffffffffffffffffffffffffffffff166323b872dd3330856040518463ffffffff1660e01b81526004016109a293929190611b93565b600060405180830381600087803b1580156109bc57600080fd5b505af11580156109d0573d6000803e3d6000fd5b505050506000600560008481526020019081526020016000209050338160020160006101000a81548173ffffffffffffffffffffffffffffffffffffffff021916908373ffffffffffffffffffffffffffffffffffffffff160217905550308160030160006101000a81548173ffffffffffffffffffffffffffffffffffffffff021916908373ffffffffffffffffffffffffffffffffffffffff16021790555060018160050160006101000a81548160ff021916908315150217905550818160040181905550610aa160016114e1565b7fa0c6c0d02d86fdacecbaa5fdf5894bab204e31a778250474108540733a9b8d198484333086604051610ad8959493929190611bca565b60405180910390a150610ae961153d565b505050565b610af6611492565b6000600560008381526020019081526020016000209050600115158160050160009054906101000a900460ff16151514610b65576040517f08c379a0000000000000000000000000000000000000000000000000000000008152600401610b5c90611c8f565b60405180910390fd5b8060040154341015610bac576040517f08c379a0000000000000000000000000000000000000000000000000000000008152600401610ba390611d21565b60405180910390fd5b60003390508160020160009054906101000a900473ffffffffffffffffffffffffffffffffffffffff1673ffffffffffffffffffffffffffffffffffffffff166108fc349081150290604051600060405180830381858888f19350505050158015610c1b573d6000803e3d6000fd5b508373ffffffffffffffffffffffffffffffffffffffff166323b872dd308385600101546040518463ffffffff1660e01b8152600401610c5d93929190611da0565b600060405180830381600087803b158015610c7757600080fd5b505af1158015610c8b573d6000803e3d6000fd5b50505050600460009054906101000a900473ffffffffffffffffffffffffffffffffffffffff1673ffffffffffffffffffffffffffffffffffffffff166108fc6003549081150290604051600060405180830381858888f19350505050158015610cf9573d6000803e3d6000fd5b50808260030160006101000a81548173ffffffffffffffffffffffffffffffffffffffff021916908373ffffffffffffffffffffffffffffffffffffffff16021790555060008260050160006101000a81548160ff021916908315150217905550610d646001611547565b7f16f1dbd97e6bf646d429ed186cce832f1f7fd9907814293b83181e9970ab7bd28483600101548460020160009054906101000a900473ffffffffffffffffffffffffffffffffffffffff168434604051610dc3959493929190611dd7565b60405180910390a15050610dd561153d565b5050565b60606000610de76002611484565b90506000610df56001611484565b82610e009190611e2a565b905060008167ffffffffffffffff811115610e1e57610e1d611a4c565b5b604051908082528060200260200182016040528015610e5757816020015b610e4461155d565b815260200190600190039081610e3c5790505b5090506000805b848110156110365760056000600183610e7791906119ae565b815260200190815260200160002060050160009054906101000a900460ff16156110235760056000600183610eac91906119ae565b81526020019081526020016000206040518060c00160405290816000820160009054906101000a900473ffffffffffffffffffffffffffffffffffffffff1673ffffffffffffffffffffffffffffffffffffffff1673ffffffffffffffffffffffffffffffffffffffff168152602001600182015481526020016002820160009054906101000a900473ffffffffffffffffffffffffffffffffffffffff1673ffffffffffffffffffffffffffffffffffffffff1673ffffffffffffffffffffffffffffffffffffffff1681526020016003820160009054906101000a900473ffffffffffffffffffffffffffffffffffffffff1673ffffffffffffffffffffffffffffffffffffffff1673ffffffffffffffffffffffffffffffffffffffff168152602001600482015481526020016005820160009054906101000a900460ff16151515158152505083838151811061100957611008611a7b565b5b6020026020010181905250818061101f90611a04565b9250505b808061102e90611a04565b915050610e5e565b508194505050505090565b6000600354905090565b611053611492565b60008111611096576040517f08c379a000000000000000000000000000000000000000000000000000000000815260040161108d90611b07565b60405180910390fd5b60035434146110da576040517f08c379a00000000000000000000000000000000000000000000000000000000081526004016110d190611b73565b60405180910390fd5b8273ffffffffffffffffffffffffffffffffffffffff166323b872dd3330856040518463ffffffff1660e01b815260040161111793929190611b93565b600060405180830381600087803b15801561113157600080fd5b505af1158015611145573d6000803e3d6000fd5b505050506111536002611547565b6040518060c001604052808473ffffffffffffffffffffffffffffffffffffffff1681526020018381526020013373ffffffffffffffffffffffffffffffffffffffff1681526020013073ffffffffffffffffffffffffffffffffffffffff168152602001828152602001600115158152506005600084815260200190815260200160002060008201518160000160006101000a81548173ffffffffffffffffffffffffffffffffffffffff021916908373ffffffffffffffffffffffffffffffffffffffff1602179055506020820151816001015560408201518160020160006101000a81548173ffffffffffffffffffffffffffffffffffffffff021916908373ffffffffffffffffffffffffffffffffffffffff16021790555060608201518160030160006101000a81548173ffffffffffffffffffffffffffffffffffffffff021916908373ffffffffffffffffffffffffffffffffffffffff1602179055506080820151816004015560a08201518160050160006101000a81548160ff0219169083151502179055509050507fa0c6c0d02d86fdacecbaa5fdf5894bab204e31a778250474108540733a9b8d19838333308560405161131b959493929190611bca565b60405180910390a161132b61153d565b505050565b6000806000806000806000600560008981526020019081526020016000209050600073ffffffffffffffffffffffffffffffffffffffff168160030160009054906101000a900473ffffffffffffffffffffffffffffffffffffffff1673ffffffffffffffffffffffffffffffffffffffff16036113e3576040517f08c379a00000000000000000000000000000000000000000000000000000000081526004016113da90611eaa565b60405180910390fd5b8060000160009054906101000a900473ffffffffffffffffffffffffffffffffffffffff169650806001015495508060020160009054906101000a900473ffffffffffffffffffffffffffffffffffffffff1694508060030160009054906101000a900473ffffffffffffffffffffffffffffffffffffffff169350806004015492508060050160009054906101000a900460ff1691505091939550919395565b600081600001549050919050565b6002600054036114d7576040517f08c379a00000000000000000000000000000000000000000000000000000000081526004016114ce90611f16565b60405180910390fd5b6002600081905550565b6000816000015490506000811161152d576040517f08c379a000000000000000000000000000000000000000000000000000000000815260040161152490611f82565b60405180910390fd5b6001810382600001819055505050565b6001600081905550565b6001816000016000828254019250508190555050565b6040518060c00160405280600073ffffffffffffffffffffffffffffffffffffffff16815260200160008152602001600073ffffffffffffffffffffffffffffffffffffffff168152602001600073ffffffffffffffffffffffffffffffffffffffff168152602001600081526020016000151581525090565b600081519050919050565b600082825260208201905092915050565b6000819050602082019050919050565b600073ffffffffffffffffffffffffffffffffffffffff82169050919050565b600061162e82611603565b9050919050565b61163e81611623565b82525050565b6000819050919050565b61165781611644565b82525050565b600061166882611603565b9050919050565b6116788161165d565b82525050565b60008115159050919050565b6116938161167e565b82525050565b60c0820160008201516116af6000850182611635565b5060208201516116c2602085018261164e565b5060408201516116d5604085018261166f565b5060608201516116e8606085018261166f565b5060808201516116fb608085018261164e565b5060a082015161170e60a085018261168a565b50505050565b60006117208383611699565b60c08301905092915050565b6000602082019050919050565b6000611744826115d7565b61174e81856115e2565b9350611759836115f3565b8060005b8381101561178a5781516117718882611714565b975061177c8361172c565b92505060018101905061175d565b5085935050505092915050565b600060208201905081810360008301526117b18184611739565b905092915050565b6117c281611644565b82525050565b60006020820190506117dd60008301846117b9565b92915050565b600080fd5b6117f181611623565b81146117fc57600080fd5b50565b60008135905061180e816117e8565b92915050565b61181d81611644565b811461182857600080fd5b50565b60008135905061183a81611814565b92915050565b600080600060608486031215611859576118586117e3565b5b6000611867868287016117ff565b93505060206118788682870161182b565b92505060406118898682870161182b565b9150509250925092565b600080604083850312156118aa576118a96117e3565b5b60006118b8858286016117ff565b92505060206118c98582860161182b565b9150509250929050565b6000602082840312156118e9576118e86117e3565b5b60006118f78482850161182b565b91505092915050565b61190981611623565b82525050565b6119188161167e565b82525050565b600060c0820190506119336000830189611900565b61194060208301886117b9565b61194d6040830187611900565b61195a6060830186611900565b61196760808301856117b9565b61197460a083018461190f565b979650505050505050565b7f4e487b7100000000000000000000000000000000000000000000000000000000600052601160045260246000fd5b60006119b982611644565b91506119c483611644565b9250827fffffffffffffffffffffffffffffffffffffffffffffffffffffffffffffffff038211156119f9576119f861197f565b5b828201905092915050565b6000611a0f82611644565b91507fffffffffffffffffffffffffffffffffffffffffffffffffffffffffffffffff8203611a4157611a4061197f565b5b600182019050919050565b7f4e487b7100000000000000000000000000000000000000000000000000000000600052604160045260246000fd5b7f4e487b7100000000000000000000000000000000000000000000000000000000600052603260045260246000fd5b600082825260208201905092915050565b7f5072696365206d757374206265206174206c6561737420312077656900000000600082015250565b6000611af1601c83611aaa565b9150611afc82611abb565b602082019050919050565b60006020820190508181036000830152611b2081611ae4565b9050919050565b7f4e6f7420656e6f75676820657468657220666f72206c697374696e6720666565600082015250565b6000611b5d602083611aaa565b9150611b6882611b27565b602082019050919050565b60006020820190508181036000830152611b8c81611b50565b9050919050565b6000606082019050611ba86000830186611900565b611bb56020830185611900565b611bc260408301846117b9565b949350505050565b600060a082019050611bdf6000830188611900565b611bec60208301876117b9565b611bf96040830186611900565b611c066060830185611900565b611c1360808301846117b9565b9695505050505050565b7f4e4654206e6f742063757272656e746c79206c697374656420666f722073616c60008201527f6500000000000000000000000000000000000000000000000000000000000000602082015250565b6000611c79602183611aaa565b9150611c8482611c1d565b604082019050919050565b60006020820190508181036000830152611ca881611c6c565b9050919050565b7f4e6f7420656e6f75676820657468657220746f20636f7665722061736b696e6760008201527f2070726963650000000000000000000000000000000000000000000000000000602082015250565b6000611d0b602683611aaa565b9150611d1682611caf565b604082019050919050565b60006020820190508181036000830152611d3a81611cfe565b9050919050565b6000819050919050565b6000611d66611d61611d5c84611603565b611d41565b611603565b9050919050565b6000611d7882611d4b565b9050919050565b6000611d8a82611d6d565b9050919050565b611d9a81611d7f565b82525050565b6000606082019050611db56000830186611900565b611dc26020830185611d91565b611dcf60408301846117b9565b949350505050565b600060a082019050611dec6000830188611900565b611df960208301876117b9565b611e066040830186611d91565b611e136060830185611d91565b611e2060808301846117b9565b9695505050505050565b6000611e3582611644565b9150611e4083611644565b925082821015611e5357611e5261197f565b5b828203905092915050565b7f496e76616c696420746f6b656e20494400000000000000000000000000000000600082015250565b6000611e94601083611aaa565b9150611e9f82611e5e565b602082019050919050565b60006020820190508181036000830152611ec381611e87565b9050919050565b7f5265656e7472616e637947756172643a207265656e7472616e742063616c6c00600082015250565b6000611f00601f83611aaa565b9150611f0b82611eca565b602082019050919050565b60006020820190508181036000830152611f2f81611ef3565b9050919050565b7f436f756e7465723a2064656372656d656e74206f766572666c6f770000000000600082015250565b6000611f6c601b83611aaa565b9150611f7782611f36565b602082019050919050565b60006020820190508181036000830152611f9b81611f5f565b905091905056fea264697066735822122068eecd553daa120d348d4c03fdf991b11dba19f17eeca5ca238a23150b697fe064736f6c634300080d0033",
  "immutableReferences": {},
  "source": "// SPDX-License-Identifier: MIT\n\npragma solidity ^0.8.13;\n\nimport \"@openzeppelin/contracts/utils/Counters.sol\";\nimport \"@openzeppelin/contracts/token/ERC721/ERC721.sol\";\nimport \"@openzeppelin/contracts/security/ReentrancyGuard.sol\";\n\ncontract Marketplace is ReentrancyGuard {\n    using Counters for Counters.Counter;\n    Counters.Counter private _nftsSold;\n    Counters.Counter private _nftCount;\n    uint256 public LISTING_FEE = 0.0001 ether;\n    address payable private _marketOwner;\n    mapping(uint256 => NFT) private _idToNFT;\n    struct NFT {\n        address nftContract;\n        uint256 tokenId;\n        address payable seller;\n        address payable owner;\n        uint256 price;\n        bool onSale;\n    }\n    event NFTListed(\n        address nftContract,\n        uint256 tokenId,\n        address seller,\n        address owner,\n        uint256 price\n    );\n    event NFTSold(\n        address nftContract,\n        uint256 tokenId,\n        address seller,\n        address owner,\n        uint256 price\n    );\n\n    constructor() {\n        _marketOwner = payable(msg.sender);\n    }\n\n    // List the NFT on the marketplace\n    function listNft(\n        address _nftContract,\n        uint256 _tokenId,\n        uint256 _price\n    ) public payable nonReentrant {\n        require(_price > 0, \"Price must be at least 1 wei\");\n        require(msg.value == LISTING_FEE, \"Not enough ether for listing fee\");\n\n        IERC721(_nftContract).transferFrom(msg.sender, address(this), _tokenId);\n\n        _nftCount.increment();\n\n        _idToNFT[_tokenId] = NFT(\n            _nftContract,\n            _tokenId,\n            payable(msg.sender),\n            payable(address(this)),\n            _price,\n            true\n        );\n\n        emit NFTListed(\n            _nftContract,\n            _tokenId,\n            msg.sender,\n            address(this),\n            _price\n        );\n    }\n\n    function getNftDetails(uint256 _tokenId) public view returns (\n    address nftContract,\n    uint256 tokenId,\n    address seller,\n    address owner,\n    uint256 price,\n    bool onSale\n) {\n    NFT storage nft = _idToNFT[_tokenId];\n    require(nft.owner != address(0), \"Invalid token ID\");\n    nftContract = nft.nftContract;\n    tokenId = nft.tokenId;\n    seller = nft.seller;\n    owner = nft.owner;\n    price = nft.price;\n    onSale = nft.onSale;\n}\n\n\n    // Buy an NFT\n    function buyNft(address _nftContract, uint256 _tokenId)\n    public\n    payable\n    nonReentrant\n{\n    NFT storage nft = _idToNFT[_tokenId];\n    require(\n        nft.onSale == true,\n        \"NFT not currently listed for sale\"\n    );\n    require(\n        msg.value >= nft.price,\n        \"Not enough ether to cover asking price\"\n    );\n\n    address payable buyer = payable(msg.sender);\n    payable(nft.seller).transfer(msg.value);\n    IERC721(_nftContract).transferFrom(address(this), buyer, nft.tokenId);\n    _marketOwner.transfer(LISTING_FEE);\n    nft.owner = buyer;\n    nft.onSale = false;\n\n    _nftsSold.increment();\n    emit NFTSold(_nftContract, nft.tokenId, nft.seller, buyer, msg.value);\n}\n\n\n    // Resell an NFT purchased from the marketplace\n    function resellNft(\n        address _nftContract,\n        uint256 _tokenId,\n        uint256 _price\n    ) public payable nonReentrant {\n        require(_price > 0, \"Price must be at least 1 wei\");\n        require(msg.value == LISTING_FEE, \"Not enough ether for listing fee\");\n\n        IERC721(_nftContract).transferFrom(msg.sender, address(this), _tokenId);\n\n        NFT storage nft = _idToNFT[_tokenId];\n        nft.seller = payable(msg.sender);\n        nft.owner = payable(address(this));\n        nft.onSale = true; // Update the variable from \"listed\" to \"onSale\"\n        nft.price = _price;\n\n        _nftsSold.decrement();\n        emit NFTListed(\n            _nftContract,\n            _tokenId,\n            msg.sender,\n            address(this),\n            _price\n        );\n    }\n\n\n    function getListingFee() public view returns (uint256) {\n        return LISTING_FEE;\n    }\n\n    function getListedNfts() public view returns (NFT[] memory) {\n        uint256 nftCount = _nftCount.current();\n        uint256 unsoldNftsCount = nftCount - _nftsSold.current();\n\n        NFT[] memory nfts = new NFT[](unsoldNftsCount);\n        uint256 nftsIndex = 0;\n        for (uint256 i = 0; i < nftCount; i++) {\n            if (_idToNFT[i + 1].onSale) {\n                nfts[nftsIndex] = _idToNFT[i + 1];\n                nftsIndex++;\n            }\n        }\n        return nfts;\n}\n    function getMyNfts() public view returns (NFT[] memory) {\n        uint256 nftCount = _nftCount.current();\n        uint256 myNftCount = 0;\n        for (uint256 i = 0; i < nftCount; i++) {\n            if (_idToNFT[i + 1].owner == msg.sender) {\n                myNftCount++;\n            }\n        }\n\n        NFT[] memory nfts = new NFT[](myNftCount);\n        uint256 nftsIndex = 0;\n        for (uint256 i = 0; i < nftCount; i++) {\n            if (_idToNFT[i + 1].owner == msg.sender) {\n                nfts[nftsIndex] = _idToNFT[i + 1];\n                nftsIndex++;\n            }\n        }\n        return nfts;\n    }\n\n    function getMyListedNfts() public view returns (NFT[] memory) {\n        uint256 nftCount = _nftCount.current();\n        uint256 myListedNftCount = 0;\n        for (uint256 i = 0; i < nftCount; i++) {\n            if (\n                _idToNFT[i + 1].seller == msg.sender && _idToNFT[i + 1].onSale\n            ) {\n                myListedNftCount++;\n            }\n        }\n\n        NFT[] memory nfts = new NFT[](myListedNftCount);\n        uint256 nftsIndex = 0;\n        for (uint256 i = 0; i < nftCount; i++) {\n            if (\n                _idToNFT[i + 1].seller == msg.sender && _idToNFT[i + 1].onSale\n            ) {\n                nfts[nftsIndex] = _idToNFT[i + 1];\n                nftsIndex++;\n            }\n        }\n        return nfts;\n    }\n}\n",
  "sourcePath": "C:\\Users\\raman\\OneDrive\\Documents\\GitHub\\Meta_DeCentraland\\Meta_DeCenterland\\contracts\\Marketplace.sol",
  "compiler": {
    "name": "solc",
    "version": "0.8.13+commit.abaa5c0e.Emscripten.clang"
  },
  "schemaVersion": "3.4.11",
  "updatedAt": "2023-03-01T14:24:09.589Z",
  "devdoc": {
    "kind": "dev",
    "methods": {},
    "version": 1
  },
  "userdoc": {
    "kind": "user",
    "methods": {},
    "version": 1
  }
}