{
  "contractName": "Marketplace",
  "abi": [
    {
      "inputs": [],
      "stateMutability": "nonpayable",
      "type": "constructor"
    },
    {
      "anonymous": false,
      "inputs": [
        {
          "indexed": false,
          "internalType": "address",
          "name": "owner",
          "type": "address"
        },
        {
          "indexed": false,
          "internalType": "address",
          "name": "seller",
          "type": "address"
        },
        {
          "indexed": false,
          "internalType": "uint256",
          "name": "price",
          "type": "uint256"
        }
      ],
      "name": "NFTDetailsUpdated",
      "type": "event"
    },
    {
      "anonymous": false,
      "inputs": [
        {
          "indexed": false,
          "internalType": "address",
          "name": "nftContract",
          "type": "address"
        },
        {
          "indexed": false,
          "internalType": "uint256",
          "name": "tokenId",
          "type": "uint256"
        },
        {
          "indexed": false,
          "internalType": "address",
          "name": "seller",
          "type": "address"
        },
        {
          "indexed": false,
          "internalType": "address",
          "name": "owner",
          "type": "address"
        },
        {
          "indexed": false,
          "internalType": "uint256",
          "name": "price",
          "type": "uint256"
        }
      ],
      "name": "NFTListed",
      "type": "event"
    },
    {
      "anonymous": false,
      "inputs": [
        {
          "indexed": false,
          "internalType": "address",
          "name": "nftContract",
          "type": "address"
        },
        {
          "indexed": false,
          "internalType": "uint256",
          "name": "tokenId",
          "type": "uint256"
        },
        {
          "indexed": false,
          "internalType": "address",
          "name": "seller",
          "type": "address"
        },
        {
          "indexed": false,
          "internalType": "address",
          "name": "owner",
          "type": "address"
        },
        {
          "indexed": false,
          "internalType": "uint256",
          "name": "price",
          "type": "uint256"
        }
      ],
      "name": "NFTSold",
      "type": "event"
    },
    {
      "inputs": [],
      "name": "LISTING_FEE",
      "outputs": [
        {
          "internalType": "uint256",
          "name": "",
          "type": "uint256"
        }
      ],
      "stateMutability": "view",
      "type": "function"
    },
    {
      "inputs": [
        {
          "internalType": "address",
          "name": "_nftContract",
          "type": "address"
        },
        {
          "internalType": "uint256",
          "name": "_tokenId",
          "type": "uint256"
        },
        {
          "internalType": "uint256",
          "name": "_price",
          "type": "uint256"
        }
      ],
      "name": "listNft",
      "outputs": [],
      "stateMutability": "payable",
      "type": "function"
    },
    {
      "inputs": [
        {
          "internalType": "uint256",
          "name": "_tokenId",
          "type": "uint256"
        }
      ],
      "name": "getNftDetails",
      "outputs": [
        {
          "internalType": "address",
          "name": "nftContract",
          "type": "address"
        },
        {
          "internalType": "uint256",
          "name": "tokenId",
          "type": "uint256"
        },
        {
          "internalType": "address",
          "name": "seller",
          "type": "address"
        },
        {
          "internalType": "address",
          "name": "owner",
          "type": "address"
        },
        {
          "internalType": "uint256",
          "name": "price",
          "type": "uint256"
        },
        {
          "internalType": "bool",
          "name": "onSale",
          "type": "bool"
        }
      ],
      "stateMutability": "view",
      "type": "function"
    },
    {
      "inputs": [
        {
          "internalType": "address",
          "name": "_nftContract",
          "type": "address"
        },
        {
          "internalType": "uint256",
          "name": "_tokenId",
          "type": "uint256"
        },
        {
          "internalType": "uint256",
          "name": "_price",
          "type": "uint256"
        }
      ],
      "name": "buyNft",
      "outputs": [],
      "stateMutability": "payable",
      "type": "function"
    },
    {
      "inputs": [
        {
          "internalType": "uint256",
          "name": "_tokenId",
          "type": "uint256"
        },
        {
          "internalType": "uint256",
          "name": "_newPrice",
          "type": "uint256"
        }
      ],
      "name": "resellNft",
      "outputs": [],
      "stateMutability": "nonpayable",
      "type": "function"
    },
    {
      "inputs": [],
      "name": "getListingFee",
      "outputs": [
        {
          "internalType": "uint256",
          "name": "",
          "type": "uint256"
        }
      ],
      "stateMutability": "view",
      "type": "function"
    },
    {
      "inputs": [],
      "name": "getListedNfts",
      "outputs": [
        {
          "components": [
            {
              "internalType": "address",
              "name": "nftContract",
              "type": "address"
            },
            {
              "internalType": "uint256",
              "name": "tokenId",
              "type": "uint256"
            },
            {
              "internalType": "address payable",
              "name": "seller",
              "type": "address"
            },
            {
              "internalType": "address payable",
              "name": "owner",
              "type": "address"
            },
            {
              "internalType": "uint256",
              "name": "price",
              "type": "uint256"
            },
            {
              "internalType": "bool",
              "name": "onSale",
              "type": "bool"
            }
          ],
          "internalType": "struct Marketplace.NFT[]",
          "name": "",
          "type": "tuple[]"
        }
      ],
      "stateMutability": "view",
      "type": "function"
    },
    {
      "inputs": [],
      "name": "getMyNfts",
      "outputs": [
        {
          "components": [
            {
              "internalType": "address",
              "name": "nftContract",
              "type": "address"
            },
            {
              "internalType": "uint256",
              "name": "tokenId",
              "type": "uint256"
            },
            {
              "internalType": "address payable",
              "name": "seller",
              "type": "address"
            },
            {
              "internalType": "address payable",
              "name": "owner",
              "type": "address"
            },
            {
              "internalType": "uint256",
              "name": "price",
              "type": "uint256"
            },
            {
              "internalType": "bool",
              "name": "onSale",
              "type": "bool"
            }
          ],
          "internalType": "struct Marketplace.NFT[]",
          "name": "",
          "type": "tuple[]"
        }
      ],
      "stateMutability": "view",
      "type": "function"
    },
    {
      "inputs": [],
      "name": "getMyListedNfts",
      "outputs": [
        {
          "components": [
            {
              "internalType": "address",
              "name": "nftContract",
              "type": "address"
            },
            {
              "internalType": "uint256",
              "name": "tokenId",
              "type": "uint256"
            },
            {
              "internalType": "address payable",
              "name": "seller",
              "type": "address"
            },
            {
              "internalType": "address payable",
              "name": "owner",
              "type": "address"
            },
            {
              "internalType": "uint256",
              "name": "price",
              "type": "uint256"
            },
            {
              "internalType": "bool",
              "name": "onSale",
              "type": "bool"
            }
          ],
          "internalType": "struct Marketplace.NFT[]",
          "name": "",
          "type": "tuple[]"
        }
      ],
      "stateMutability": "view",
      "type": "function"
    }
  ],
  "bytecode": "0x6080604052655af3107a400060035534801561001a57600080fd5b50600160008190555033600460006101000a81548173ffffffffffffffffffffffffffffffffffffffff021916908373ffffffffffffffffffffffffffffffffffffffff1602179055506125a1806100736000396000f3fe6080604052600436106100865760003560e01c80638d6cb3fb116100595780638d6cb3fb14610135578063b8fe6abe14610160578063c922b17c1461018b578063ce5caf38146101a7578063e85cd748146101c357610086565b8063047b07bf1461008b5780631f4cc4db146100b657806320d748e7146100e15780632b86ae381461010a575b600080fd5b34801561009757600080fd5b506100a0610205565b6040516100ad9190611a6c565b60405180910390f35b3480156100c257600080fd5b506100cb610538565b6040516100d89190611a6c565b60405180910390f35b3480156100ed57600080fd5b5061010860048036038101906101039190611abf565b6108dd565b005b34801561011657600080fd5b5061011f610df3565b60405161012c9190611b0e565b60405180910390f35b34801561014157600080fd5b5061014a610df9565b6040516101579190611a6c565b60405180910390f35b34801561016c57600080fd5b50610175611061565b6040516101829190611b0e565b60405180910390f35b6101a560048036038101906101a09190611b55565b61106b565b005b6101c160048036038101906101bc9190611b55565b611350565b005b3480156101cf57600080fd5b506101ea60048036038101906101e59190611ba8565b611661565b6040516101fc96959493929190611bf3565b60405180910390f35b6060600061021360026117b5565b90506000805b828110156102b8573373ffffffffffffffffffffffffffffffffffffffff16600560006001846102499190611c83565b815260200190815260200160002060030160009054906101000a900473ffffffffffffffffffffffffffffffffffffffff1673ffffffffffffffffffffffffffffffffffffffff16036102a55781806102a190611cd9565b9250505b80806102b090611cd9565b915050610219565b5060008167ffffffffffffffff8111156102d5576102d4611d21565b5b60405190808252806020026020018201604052801561030e57816020015b6102fb611832565b8152602001906001900390816102f35790505b5090506000805b8481101561052d573373ffffffffffffffffffffffffffffffffffffffff16600560006001846103459190611c83565b815260200190815260200160002060030160009054906101000a900473ffffffffffffffffffffffffffffffffffffffff1673ffffffffffffffffffffffffffffffffffffffff160361051a57600560006001836103a39190611c83565b81526020019081526020016000206040518060c00160405290816000820160009054906101000a900473ffffffffffffffffffffffffffffffffffffffff1673ffffffffffffffffffffffffffffffffffffffff1673ffffffffffffffffffffffffffffffffffffffff168152602001600182015481526020016002820160009054906101000a900473ffffffffffffffffffffffffffffffffffffffff1673ffffffffffffffffffffffffffffffffffffffff1673ffffffffffffffffffffffffffffffffffffffff1681526020016003820160009054906101000a900473ffffffffffffffffffffffffffffffffffffffff1673ffffffffffffffffffffffffffffffffffffffff1673ffffffffffffffffffffffffffffffffffffffff168152602001600482015481526020016005820160009054906101000a900460ff161515151581525050838381518110610500576104ff611d50565b5b6020026020010181905250818061051690611cd9565b9250505b808061052590611cd9565b915050610315565b508194505050505090565b6060600061054660026117b5565b90506000805b82811015610624573373ffffffffffffffffffffffffffffffffffffffff166005600060018461057c9190611c83565b815260200190815260200160002060020160009054906101000a900473ffffffffffffffffffffffffffffffffffffffff1673ffffffffffffffffffffffffffffffffffffffff161480156105fd5750600560006001836105dd9190611c83565b815260200190815260200160002060050160009054906101000a900460ff165b1561061157818061060d90611cd9565b9250505b808061061c90611cd9565b91505061054c565b5060008167ffffffffffffffff81111561064157610640611d21565b5b60405190808252806020026020018201604052801561067a57816020015b610667611832565b81526020019060019003908161065f5790505b5090506000805b848110156108d2573373ffffffffffffffffffffffffffffffffffffffff16600560006001846106b19190611c83565b815260200190815260200160002060020160009054906101000a900473ffffffffffffffffffffffffffffffffffffffff1673ffffffffffffffffffffffffffffffffffffffff161480156107325750600560006001836107129190611c83565b815260200190815260200160002060050160009054906101000a900460ff165b156108bf57600560006001836107489190611c83565b81526020019081526020016000206040518060c00160405290816000820160009054906101000a900473ffffffffffffffffffffffffffffffffffffffff1673ffffffffffffffffffffffffffffffffffffffff1673ffffffffffffffffffffffffffffffffffffffff168152602001600182015481526020016002820160009054906101000a900473ffffffffffffffffffffffffffffffffffffffff1673ffffffffffffffffffffffffffffffffffffffff1673ffffffffffffffffffffffffffffffffffffffff1681526020016003820160009054906101000a900473ffffffffffffffffffffffffffffffffffffffff1673ffffffffffffffffffffffffffffffffffffffff1673ffffffffffffffffffffffffffffffffffffffff168152602001600482015481526020016005820160009054906101000a900460ff1615151515815250508383815181106108a5576108a4611d50565b5b602002602001018190525081806108bb90611cd9565b9250505b80806108ca90611cd9565b915050610681565b508194505050505090565b60006005600084815260200190815260200160002090503373ffffffffffffffffffffffffffffffffffffffff168160030160009054906101000a900473ffffffffffffffffffffffffffffffffffffffff1673ffffffffffffffffffffffffffffffffffffffff1614610986576040517f08c379a000000000000000000000000000000000000000000000000000000000815260040161097d90611ddc565b60405180910390fd5b8060050160009054906101000a900460ff166109d7576040517f08c379a00000000000000000000000000000000000000000000000000000000081526004016109ce90611e6e565b60405180910390fd5b60008211610a1a576040517f08c379a0000000000000000000000000000000000000000000000000000000008152600401610a1190611eda565b60405180910390fd5b80600401548203610a60576040517f08c379a0000000000000000000000000000000000000000000000000000000008152600401610a5790611f6c565b60405180910390fd5b60006064600a84610a719190611f8c565b610a7b9190612015565b90508160000160009054906101000a900473ffffffffffffffffffffffffffffffffffffffff1673ffffffffffffffffffffffffffffffffffffffff166342842e0e308460020160009054906101000a900473ffffffffffffffffffffffffffffffffffffffff16876040518463ffffffff1660e01b8152600401610b02939291906120a5565b600060405180830381600087803b158015610b1c57600080fd5b505af1158015610b30573d6000803e3d6000fd5b5050505060008260030160009054906101000a900473ffffffffffffffffffffffffffffffffffffffff1673ffffffffffffffffffffffffffffffffffffffff1684604051610b7e9061210d565b60006040518083038185875af1925050503d8060008114610bbb576040519150601f19603f3d011682016040523d82523d6000602084013e610bc0565b606091505b5050905080610c04576040517f08c379a0000000000000000000000000000000000000000000000000000000008152600401610bfb9061216e565b60405180910390fd5b600460009054906101000a900473ffffffffffffffffffffffffffffffffffffffff1673ffffffffffffffffffffffffffffffffffffffff166108fc839081150290604051600060405180830381858888f19350505050158015610c6c573d6000803e3d6000fd5b50838360040181905550338360020160006101000a81548173ffffffffffffffffffffffffffffffffffffffff021916908373ffffffffffffffffffffffffffffffffffffffff16021790555060018360050160006101000a81548160ff0219169083151502179055507fe76dd5ece88bf45dc5ffae9854b1a2d726bc661eec08d7ef036799f19cfa0c128360030160009054906101000a900473ffffffffffffffffffffffffffffffffffffffff168460020160009054906101000a900473ffffffffffffffffffffffffffffffffffffffff168560040154604051610d559392919061218e565b60405180910390a17fa0c6c0d02d86fdacecbaa5fdf5894bab204e31a778250474108540733a9b8d198360000160009054906101000a900473ffffffffffffffffffffffffffffffffffffffff1684600101548560020160009054906101000a900473ffffffffffffffffffffffffffffffffffffffff16308760040154604051610de49594939291906121c5565b60405180910390a15050505050565b60035481565b60606000610e0760026117b5565b90506000610e1560016117b5565b82610e209190612218565b905060008167ffffffffffffffff811115610e3e57610e3d611d21565b5b604051908082528060200260200182016040528015610e7757816020015b610e64611832565b815260200190600190039081610e5c5790505b5090506000805b848110156110565760056000600183610e979190611c83565b815260200190815260200160002060050160009054906101000a900460ff16156110435760056000600183610ecc9190611c83565b81526020019081526020016000206040518060c00160405290816000820160009054906101000a900473ffffffffffffffffffffffffffffffffffffffff1673ffffffffffffffffffffffffffffffffffffffff1673ffffffffffffffffffffffffffffffffffffffff168152602001600182015481526020016002820160009054906101000a900473ffffffffffffffffffffffffffffffffffffffff1673ffffffffffffffffffffffffffffffffffffffff1673ffffffffffffffffffffffffffffffffffffffff1681526020016003820160009054906101000a900473ffffffffffffffffffffffffffffffffffffffff1673ffffffffffffffffffffffffffffffffffffffff1673ffffffffffffffffffffffffffffffffffffffff168152602001600482015481526020016005820160009054906101000a900460ff16151515158152505083838151811061102957611028611d50565b5b6020026020010181905250818061103f90611cd9565b9250505b808061104e90611cd9565b915050610e7e565b508194505050505090565b6000600354905090565b6110736117c3565b600081116110b6576040517f08c379a00000000000000000000000000000000000000000000000000000000081526004016110ad90612298565b60405180910390fd5b60035434146110fa576040517f08c379a00000000000000000000000000000000000000000000000000000000081526004016110f190612304565b60405180910390fd5b8273ffffffffffffffffffffffffffffffffffffffff166323b872dd3330856040518463ffffffff1660e01b815260040161113793929190612324565b600060405180830381600087803b15801561115157600080fd5b505af1158015611165573d6000803e3d6000fd5b505050506111736002611812565b6040518060c001604052808473ffffffffffffffffffffffffffffffffffffffff1681526020018381526020013373ffffffffffffffffffffffffffffffffffffffff1681526020013073ffffffffffffffffffffffffffffffffffffffff168152602001828152602001600115158152506005600084815260200190815260200160002060008201518160000160006101000a81548173ffffffffffffffffffffffffffffffffffffffff021916908373ffffffffffffffffffffffffffffffffffffffff1602179055506020820151816001015560408201518160020160006101000a81548173ffffffffffffffffffffffffffffffffffffffff021916908373ffffffffffffffffffffffffffffffffffffffff16021790555060608201518160030160006101000a81548173ffffffffffffffffffffffffffffffffffffffff021916908373ffffffffffffffffffffffffffffffffffffffff1602179055506080820151816004015560a08201518160050160006101000a81548160ff0219169083151502179055509050507fa0c6c0d02d86fdacecbaa5fdf5894bab204e31a778250474108540733a9b8d19838333308560405161133b95949392919061235b565b60405180910390a161134b611828565b505050565b6113586117c3565b6000600560008481526020019081526020016000209050600115158160050160009054906101000a900460ff161515146113c7576040517f08c379a00000000000000000000000000000000000000000000000000000000081526004016113be90611e6e565b60405180910390fd5b600354826113d59190611c83565b3414611416576040517f08c379a000000000000000000000000000000000000000000000000000000000815260040161140d90612420565b60405180910390fd5b60003390508160020160009054906101000a900473ffffffffffffffffffffffffffffffffffffffff1673ffffffffffffffffffffffffffffffffffffffff166108fc849081150290604051600060405180830381858888f19350505050158015611485573d6000803e3d6000fd5b508473ffffffffffffffffffffffffffffffffffffffff166323b872dd308385600101546040518463ffffffff1660e01b81526004016114c7939291906120a5565b600060405180830381600087803b1580156114e157600080fd5b505af11580156114f5573d6000803e3d6000fd5b50505050600460009054906101000a900473ffffffffffffffffffffffffffffffffffffffff1673ffffffffffffffffffffffffffffffffffffffff166108fc6003549081150290604051600060405180830381858888f19350505050158015611563573d6000803e3d6000fd5b50808260030160006101000a81548173ffffffffffffffffffffffffffffffffffffffff021916908373ffffffffffffffffffffffffffffffffffffffff16021790555060008260050160006101000a81548160ff0219169083151502179055506115ce6001611812565b7f16f1dbd97e6bf646d429ed186cce832f1f7fd9907814293b83181e9970ab7bd28583600101548460020160009054906101000a900473ffffffffffffffffffffffffffffffffffffffff16848760405161162d959493929190612440565b60405180910390a160008260050160006101000a81548160ff021916908315150217905550505061165c611828565b505050565b6000806000806000806000600560008981526020019081526020016000209050600073ffffffffffffffffffffffffffffffffffffffff168160030160009054906101000a900473ffffffffffffffffffffffffffffffffffffffff1673ffffffffffffffffffffffffffffffffffffffff1603611714576040517f08c379a000000000000000000000000000000000000000000000000000000000815260040161170b906124df565b60405180910390fd5b8060000160009054906101000a900473ffffffffffffffffffffffffffffffffffffffff169650806001015495508060020160009054906101000a900473ffffffffffffffffffffffffffffffffffffffff1694508060030160009054906101000a900473ffffffffffffffffffffffffffffffffffffffff169350806004015492508060050160009054906101000a900460ff1691505091939550919395565b600081600001549050919050565b600260005403611808576040517f08c379a00000000000000000000000000000000000000000000000000000000081526004016117ff9061254b565b60405180910390fd5b6002600081905550565b6001816000016000828254019250508190555050565b6001600081905550565b6040518060c00160405280600073ffffffffffffffffffffffffffffffffffffffff16815260200160008152602001600073ffffffffffffffffffffffffffffffffffffffff168152602001600073ffffffffffffffffffffffffffffffffffffffff168152602001600081526020016000151581525090565b600081519050919050565b600082825260208201905092915050565b6000819050602082019050919050565b600073ffffffffffffffffffffffffffffffffffffffff82169050919050565b6000611903826118d8565b9050919050565b611913816118f8565b82525050565b6000819050919050565b61192c81611919565b82525050565b600061193d826118d8565b9050919050565b61194d81611932565b82525050565b60008115159050919050565b61196881611953565b82525050565b60c082016000820151611984600085018261190a565b5060208201516119976020850182611923565b5060408201516119aa6040850182611944565b5060608201516119bd6060850182611944565b5060808201516119d06080850182611923565b5060a08201516119e360a085018261195f565b50505050565b60006119f5838361196e565b60c08301905092915050565b6000602082019050919050565b6000611a19826118ac565b611a2381856118b7565b9350611a2e836118c8565b8060005b83811015611a5f578151611a4688826119e9565b9750611a5183611a01565b925050600181019050611a32565b5085935050505092915050565b60006020820190508181036000830152611a868184611a0e565b905092915050565b600080fd5b611a9c81611919565b8114611aa757600080fd5b50565b600081359050611ab981611a93565b92915050565b60008060408385031215611ad657611ad5611a8e565b5b6000611ae485828601611aaa565b9250506020611af585828601611aaa565b9150509250929050565b611b0881611919565b82525050565b6000602082019050611b236000830184611aff565b92915050565b611b32816118f8565b8114611b3d57600080fd5b50565b600081359050611b4f81611b29565b92915050565b600080600060608486031215611b6e57611b6d611a8e565b5b6000611b7c86828701611b40565b9350506020611b8d86828701611aaa565b9250506040611b9e86828701611aaa565b9150509250925092565b600060208284031215611bbe57611bbd611a8e565b5b6000611bcc84828501611aaa565b91505092915050565b611bde816118f8565b82525050565b611bed81611953565b82525050565b600060c082019050611c086000830189611bd5565b611c156020830188611aff565b611c226040830187611bd5565b611c2f6060830186611bd5565b611c3c6080830185611aff565b611c4960a0830184611be4565b979650505050505050565b7f4e487b7100000000000000000000000000000000000000000000000000000000600052601160045260246000fd5b6000611c8e82611919565b9150611c9983611919565b9250827fffffffffffffffffffffffffffffffffffffffffffffffffffffffffffffffff03821115611cce57611ccd611c54565b5b828201905092915050565b6000611ce482611919565b91507fffffffffffffffffffffffffffffffffffffffffffffffffffffffffffffffff8203611d1657611d15611c54565b5b600182019050919050565b7f4e487b7100000000000000000000000000000000000000000000000000000000600052604160045260246000fd5b7f4e487b7100000000000000000000000000000000000000000000000000000000600052603260045260246000fd5b600082825260208201905092915050565b7f596f7520646f206e6f74206f776e2074686973204e4654000000000000000000600082015250565b6000611dc6601783611d7f565b9150611dd182611d90565b602082019050919050565b60006020820190508181036000830152611df581611db9565b9050919050565b7f4e4654206e6f742063757272656e746c79206c697374656420666f722073616c60008201527f6500000000000000000000000000000000000000000000000000000000000000602082015250565b6000611e58602183611d7f565b9150611e6382611dfc565b604082019050919050565b60006020820190508181036000830152611e8781611e4b565b9050919050565b7f4e6577207072696365206d7573742062652067726561746572207468616e2030600082015250565b6000611ec4602083611d7f565b9150611ecf82611e8e565b602082019050919050565b60006020820190508181036000830152611ef381611eb7565b9050919050565b7f4e6577207072696365206d75737420626520646966666572656e742066726f6d60008201527f2063757272656e74207072696365000000000000000000000000000000000000602082015250565b6000611f56602e83611d7f565b9150611f6182611efa565b604082019050919050565b60006020820190508181036000830152611f8581611f49565b9050919050565b6000611f9782611919565b9150611fa283611919565b9250817fffffffffffffffffffffffffffffffffffffffffffffffffffffffffffffffff0483118215151615611fdb57611fda611c54565b5b828202905092915050565b7f4e487b7100000000000000000000000000000000000000000000000000000000600052601260045260246000fd5b600061202082611919565b915061202b83611919565b92508261203b5761203a611fe6565b5b828204905092915050565b6000819050919050565b600061206b612066612061846118d8565b612046565b6118d8565b9050919050565b600061207d82612050565b9050919050565b600061208f82612072565b9050919050565b61209f81612084565b82525050565b60006060820190506120ba6000830186611bd5565b6120c76020830185612096565b6120d46040830184611aff565b949350505050565b600081905092915050565b50565b60006120f76000836120dc565b9150612102826120e7565b600082019050919050565b6000612118826120ea565b9150819050919050565b7f4661696c656420746f2073656e6420657468657220746f2073656c6c65720000600082015250565b6000612158601e83611d7f565b915061216382612122565b602082019050919050565b600060208201905081810360008301526121878161214b565b9050919050565b60006060820190506121a36000830186612096565b6121b06020830185612096565b6121bd6040830184611aff565b949350505050565b600060a0820190506121da6000830188611bd5565b6121e76020830187611aff565b6121f46040830186612096565b6122016060830185611bd5565b61220e6080830184611aff565b9695505050505050565b600061222382611919565b915061222e83611919565b92508282101561224157612240611c54565b5b828203905092915050565b7f5072696365206d757374206265206174206c6561737420312077656900000000600082015250565b6000612282601c83611d7f565b915061228d8261224c565b602082019050919050565b600060208201905081810360008301526122b181612275565b9050919050565b7f4e6f7420656e6f75676820657468657220666f72206c697374696e6720666565600082015250565b60006122ee602083611d7f565b91506122f9826122b8565b602082019050919050565b6000602082019050818103600083015261231d816122e1565b9050919050565b60006060820190506123396000830186611bd5565b6123466020830185611bd5565b6123536040830184611aff565b949350505050565b600060a0820190506123706000830188611bd5565b61237d6020830187611aff565b61238a6040830186611bd5565b6123976060830185611bd5565b6123a46080830184611aff565b9695505050505050565b7f506c656173652073656e642074686520657861637420616d6f756e74206f662060008201527f657468657220726571756972656420746f2062757920746865204e4654000000602082015250565b600061240a603d83611d7f565b9150612415826123ae565b604082019050919050565b60006020820190508181036000830152612439816123fd565b9050919050565b600060a0820190506124556000830188611bd5565b6124626020830187611aff565b61246f6040830186612096565b61247c6060830185612096565b6124896080830184611aff565b9695505050505050565b7f496e76616c696420746f6b656e20494400000000000000000000000000000000600082015250565b60006124c9601083611d7f565b91506124d482612493565b602082019050919050565b600060208201905081810360008301526124f8816124bc565b9050919050565b7f5265656e7472616e637947756172643a207265656e7472616e742063616c6c00600082015250565b6000612535601f83611d7f565b9150612540826124ff565b602082019050919050565b6000602082019050818103600083015261256481612528565b905091905056fea2646970667358221220df66981f1b7b619f02713f3f9b3b6e356b24836547dc6a73e5fe96ba44f13a3464736f6c634300080d0033",
  "immutableReferences": {},
  "source": "// SPDX-License-Identifier: MIT\r\n\r\npragma solidity ^0.8.13;\r\n\r\nimport \"@openzeppelin/contracts/utils/Counters.sol\";\r\nimport \"@openzeppelin/contracts/token/ERC721/ERC721.sol\";\r\nimport \"@openzeppelin/contracts/security/ReentrancyGuard.sol\";\r\n\r\ncontract Marketplace is ReentrancyGuard {\r\n    using Counters for Counters.Counter;\r\n    Counters.Counter private _nftsSold;\r\n    Counters.Counter private _nftCount;\r\n    uint256 public LISTING_FEE = 0.0001 ether;\r\n    address payable private _marketOwner;\r\n    mapping(uint256 => NFT) private _idToNFT;\r\n    struct NFT {\r\n        address nftContract;\r\n        uint256 tokenId;\r\n        address payable seller;\r\n        address payable owner;\r\n        uint256 price;\r\n        bool onSale;\r\n    }\r\n    event NFTListed(\r\n        address nftContract,\r\n        uint256 tokenId,\r\n        address seller,\r\n        address owner,\r\n        uint256 price\r\n    );\r\n    event NFTSold(\r\n        address nftContract,\r\n        uint256 tokenId,\r\n        address seller,\r\n        address owner,\r\n        uint256 price\r\n    );\r\n    event NFTDetailsUpdated(\r\n    address owner,\r\n    address seller,\r\n    uint256 price\r\n);\r\n\r\n\r\n    constructor() {\r\n        _marketOwner = payable(msg.sender);\r\n    }\r\n\r\n    // List the NFT on the marketplace\r\n function listNft(\r\n    address _nftContract,\r\n    uint256 _tokenId,\r\n    uint256 _price\r\n) public payable nonReentrant {\r\n    require(_price > 0, \"Price must be at least 1 wei\");\r\n    require(msg.value == LISTING_FEE, \"Not enough ether for listing fee\");\r\n\r\n    IERC721(_nftContract).transferFrom(msg.sender, address(this), _tokenId);\r\n\r\n    _nftCount.increment();\r\n\r\n    _idToNFT[_tokenId] = NFT(\r\n        _nftContract,\r\n        _tokenId,\r\n        payable(msg.sender),\r\n        payable(address(this)),\r\n        _price,\r\n        true\r\n    );\r\n\r\n    emit NFTListed(_nftContract, _tokenId, msg.sender, address(this), _price);\r\n}\r\n\r\n\r\n    function getNftDetails(uint256 _tokenId) public view returns (\r\n    address nftContract,\r\n    uint256 tokenId,\r\n    address seller,\r\n    address owner,\r\n    uint256 price,\r\n    bool onSale\r\n) {\r\n    NFT storage nft = _idToNFT[_tokenId];\r\n    require(nft.owner != address(0), \"Invalid token ID\");\r\n    nftContract = nft.nftContract;\r\n    tokenId = nft.tokenId;\r\n    seller = nft.seller;\r\n    owner = nft.owner;\r\n    price = nft.price;\r\n    onSale = nft.onSale;\r\n}\r\n\r\n\r\n    // Buy an NFT\r\n function buyNft(address _nftContract, uint256 _tokenId, uint256 _price)\r\n    public\r\n    payable\r\n    nonReentrant\r\n{\r\n    NFT storage nft = _idToNFT[_tokenId];\r\n    require(\r\n        nft.onSale == true,\r\n        \"NFT not currently listed for sale\"\r\n    );\r\n    require(\r\n        msg.value == _price + LISTING_FEE,\r\n        \"Please send the exact amount of ether required to buy the NFT\"\r\n    );\r\n\r\n    address payable buyer = payable(msg.sender);\r\n    payable(nft.seller).transfer(_price);\r\n    IERC721(_nftContract).transferFrom(address(this), buyer, nft.tokenId);\r\n    _marketOwner.transfer(LISTING_FEE);\r\n    nft.owner = buyer;\r\n    nft.onSale = false;\r\n\r\n    _nftsSold.increment();\r\n    emit NFTSold(_nftContract, nft.tokenId, nft.seller, buyer, _price);\r\n\r\n    // Set the onSale variable to false\r\n    nft.onSale = false;\r\n}\r\n\r\n\r\n\r\n\r\n    // Resell an NFT purchased from the marketplace\r\n  \r\nfunction resellNft(uint256 _tokenId, uint256 _newPrice) external {\r\n        // Get the NFT struct for the specified token ID\r\n        NFT storage nft = _idToNFT[_tokenId];\r\n\r\n        // Ensure that the caller is the current owner of the NFT\r\n        require(nft.owner == msg.sender, \"You do not own this NFT\");\r\n\r\n        // Ensure that the NFT is currently on sale\r\n        require(nft.onSale, \"NFT not currently listed for sale\");\r\n\r\n        // Ensure that the new price is greater than 0\r\n        require(_newPrice > 0, \"New price must be greater than 0\");\r\n\r\n        // Ensure that the new price is different from the current price\r\n        require(_newPrice != nft.price, \"New price must be different from current price\");\r\n\r\n        // Calculate the commission\r\n        uint256 commission = (_newPrice * 10) / 100;\r\n\r\n        // Transfer the NFT back to the seller\r\n        IERC721(nft.nftContract).safeTransferFrom(address(this), nft.seller, _tokenId);\r\n\r\n        // Transfer the funds from the buyer to the seller\r\n        (bool sent, ) = nft.owner.call{value: _newPrice}(\"\");\r\n        require(sent, \"Failed to send ether to seller\");\r\n\r\n        // Transfer the commission to the owner of the marketplace contract\r\n        _marketOwner.transfer(commission);\r\n\r\n        // Update the NFT struct with the new price and seller\r\n        nft.price = _newPrice;\r\n        nft.seller = payable(msg.sender);\r\n        nft.onSale = true;\r\n\r\n        emit NFTDetailsUpdated(nft.owner, nft.seller, nft.price);\r\n        emit NFTListed(nft.nftContract, nft.tokenId, nft.seller, address(this), nft.price);\r\n    }\r\n\r\n\r\n    function getListingFee() public view returns (uint256) {\r\n        return LISTING_FEE;\r\n    }\r\n\r\n    function getListedNfts() public view returns (NFT[] memory) {\r\n        uint256 nftCount = _nftCount.current();\r\n        uint256 unsoldNftsCount = nftCount - _nftsSold.current();\r\n\r\n        NFT[] memory nfts = new NFT[](unsoldNftsCount);\r\n        uint256 nftsIndex = 0;\r\n        for (uint256 i = 0; i < nftCount; i++) {\r\n            if (_idToNFT[i + 1].onSale) {\r\n                nfts[nftsIndex] = _idToNFT[i + 1];\r\n                nftsIndex++;\r\n            }\r\n        }\r\n        return nfts;\r\n}\r\n    function getMyNfts() public view returns (NFT[] memory) {\r\n        uint256 nftCount = _nftCount.current();\r\n        uint256 myNftCount = 0;\r\n        for (uint256 i = 0; i < nftCount; i++) {\r\n            if (_idToNFT[i + 1].owner == msg.sender) {\r\n                myNftCount++;\r\n            }\r\n        }\r\n\r\n        NFT[] memory nfts = new NFT[](myNftCount);\r\n        uint256 nftsIndex = 0;\r\n        for (uint256 i = 0; i < nftCount; i++) {\r\n            if (_idToNFT[i + 1].owner == msg.sender) {\r\n                nfts[nftsIndex] = _idToNFT[i + 1];\r\n                nftsIndex++;\r\n            }\r\n        }\r\n        return nfts;\r\n    }\r\n\r\n    function getMyListedNfts() public view returns (NFT[] memory) {\r\n        uint256 nftCount = _nftCount.current();\r\n        uint256 myListedNftCount = 0;\r\n        for (uint256 i = 0; i < nftCount; i++) {\r\n            if (\r\n                _idToNFT[i + 1].seller == msg.sender && _idToNFT[i + 1].onSale\r\n            ) {\r\n                myListedNftCount++;\r\n            }\r\n        }\r\n\r\n        NFT[] memory nfts = new NFT[](myListedNftCount);\r\n        uint256 nftsIndex = 0;\r\n        for (uint256 i = 0; i < nftCount; i++) {\r\n            if (\r\n                _idToNFT[i + 1].seller == msg.sender && _idToNFT[i + 1].onSale\r\n            ) {\r\n                nfts[nftsIndex] = _idToNFT[i + 1];\r\n                nftsIndex++;\r\n            }\r\n        }\r\n        return nfts;\r\n    }\r\n}",
  "sourcePath": "C:\\Users\\raman\\OneDrive\\Documents\\GitHub\\Meta_DeCentraland\\Meta_DeCenterland\\contracts\\Marketplace.sol",
  "compiler": {
    "name": "solc",
    "version": "0.8.13+commit.abaa5c0e.Emscripten.clang"
  },
  "schemaVersion": "3.4.11",
  "updatedAt": "2023-03-04T18:18:43.612Z",
  "devdoc": {
    "kind": "dev",
    "methods": {},
    "version": 1
  },
  "userdoc": {
    "kind": "user",
    "methods": {},
    "version": 1
  }
}