{
  "contractName": "Marketplace",
  "abi": [
    {
      "inputs": [],
      "stateMutability": "nonpayable",
      "type": "constructor"
    },
    {
      "anonymous": false,
      "inputs": [
        {
          "indexed": false,
          "internalType": "address",
          "name": "nftContract",
          "type": "address"
        },
        {
          "indexed": false,
          "internalType": "uint256",
          "name": "tokenId",
          "type": "uint256"
        },
        {
          "indexed": false,
          "internalType": "address",
          "name": "seller",
          "type": "address"
        },
        {
          "indexed": false,
          "internalType": "address",
          "name": "owner",
          "type": "address"
        },
        {
          "indexed": false,
          "internalType": "uint256",
          "name": "price",
          "type": "uint256"
        }
      ],
      "name": "NFTListed",
      "type": "event"
    },
    {
      "anonymous": false,
      "inputs": [
        {
          "indexed": false,
          "internalType": "address",
          "name": "nftContract",
          "type": "address"
        },
        {
          "indexed": false,
          "internalType": "uint256",
          "name": "tokenId",
          "type": "uint256"
        },
        {
          "indexed": false,
          "internalType": "address",
          "name": "seller",
          "type": "address"
        },
        {
          "indexed": false,
          "internalType": "address",
          "name": "owner",
          "type": "address"
        },
        {
          "indexed": false,
          "internalType": "uint256",
          "name": "price",
          "type": "uint256"
        }
      ],
      "name": "NFTSold",
      "type": "event"
    },
    {
      "inputs": [],
      "name": "LISTING_FEE",
      "outputs": [
        {
          "internalType": "uint256",
          "name": "",
          "type": "uint256"
        }
      ],
      "stateMutability": "view",
      "type": "function"
    },
    {
      "inputs": [
        {
          "internalType": "address",
          "name": "_nftContract",
          "type": "address"
        },
        {
          "internalType": "uint256",
          "name": "_tokenId",
          "type": "uint256"
        },
        {
          "internalType": "uint256",
          "name": "_price",
          "type": "uint256"
        }
      ],
      "name": "listNft",
      "outputs": [],
      "stateMutability": "payable",
      "type": "function"
    },
    {
      "inputs": [
        {
          "internalType": "uint256",
          "name": "_tokenId",
          "type": "uint256"
        }
      ],
      "name": "getNftDetails",
      "outputs": [
        {
          "internalType": "address",
          "name": "nftContract",
          "type": "address"
        },
        {
          "internalType": "uint256",
          "name": "tokenId",
          "type": "uint256"
        },
        {
          "internalType": "address",
          "name": "seller",
          "type": "address"
        },
        {
          "internalType": "address",
          "name": "owner",
          "type": "address"
        },
        {
          "internalType": "uint256",
          "name": "price",
          "type": "uint256"
        },
        {
          "internalType": "bool",
          "name": "onSale",
          "type": "bool"
        }
      ],
      "stateMutability": "view",
      "type": "function"
    },
    {
      "inputs": [
        {
          "internalType": "address",
          "name": "_nftContract",
          "type": "address"
        },
        {
          "internalType": "uint256",
          "name": "_tokenId",
          "type": "uint256"
        },
        {
          "internalType": "uint256",
          "name": "_price",
          "type": "uint256"
        }
      ],
      "name": "buyNft",
      "outputs": [],
      "stateMutability": "payable",
      "type": "function"
    },
    {
      "inputs": [
        {
          "internalType": "address",
          "name": "_nftContract",
          "type": "address"
        },
        {
          "internalType": "uint256",
          "name": "_tokenId",
          "type": "uint256"
        },
        {
          "internalType": "uint256",
          "name": "_price",
          "type": "uint256"
        }
      ],
      "name": "resellNft",
      "outputs": [],
      "stateMutability": "payable",
      "type": "function"
    },
    {
      "inputs": [],
      "name": "getListingFee",
      "outputs": [
        {
          "internalType": "uint256",
          "name": "",
          "type": "uint256"
        }
      ],
      "stateMutability": "view",
      "type": "function"
    },
    {
      "inputs": [],
      "name": "getListedNfts",
      "outputs": [
        {
          "components": [
            {
              "internalType": "address",
              "name": "nftContract",
              "type": "address"
            },
            {
              "internalType": "uint256",
              "name": "tokenId",
              "type": "uint256"
            },
            {
              "internalType": "address payable",
              "name": "seller",
              "type": "address"
            },
            {
              "internalType": "address payable",
              "name": "owner",
              "type": "address"
            },
            {
              "internalType": "uint256",
              "name": "price",
              "type": "uint256"
            },
            {
              "internalType": "bool",
              "name": "onSale",
              "type": "bool"
            }
          ],
          "internalType": "struct Marketplace.NFT[]",
          "name": "",
          "type": "tuple[]"
        }
      ],
      "stateMutability": "view",
      "type": "function"
    },
    {
      "inputs": [],
      "name": "getMyNfts",
      "outputs": [
        {
          "components": [
            {
              "internalType": "address",
              "name": "nftContract",
              "type": "address"
            },
            {
              "internalType": "uint256",
              "name": "tokenId",
              "type": "uint256"
            },
            {
              "internalType": "address payable",
              "name": "seller",
              "type": "address"
            },
            {
              "internalType": "address payable",
              "name": "owner",
              "type": "address"
            },
            {
              "internalType": "uint256",
              "name": "price",
              "type": "uint256"
            },
            {
              "internalType": "bool",
              "name": "onSale",
              "type": "bool"
            }
          ],
          "internalType": "struct Marketplace.NFT[]",
          "name": "",
          "type": "tuple[]"
        }
      ],
      "stateMutability": "view",
      "type": "function"
    },
    {
      "inputs": [],
      "name": "getMyListedNfts",
      "outputs": [
        {
          "components": [
            {
              "internalType": "address",
              "name": "nftContract",
              "type": "address"
            },
            {
              "internalType": "uint256",
              "name": "tokenId",
              "type": "uint256"
            },
            {
              "internalType": "address payable",
              "name": "seller",
              "type": "address"
            },
            {
              "internalType": "address payable",
              "name": "owner",
              "type": "address"
            },
            {
              "internalType": "uint256",
              "name": "price",
              "type": "uint256"
            },
            {
              "internalType": "bool",
              "name": "onSale",
              "type": "bool"
            }
          ],
          "internalType": "struct Marketplace.NFT[]",
          "name": "",
          "type": "tuple[]"
        }
      ],
      "stateMutability": "view",
      "type": "function"
    }
  ],
  "bytecode": "0x6080604052655af3107a400060035534801561001a57600080fd5b50600160008190555033600460006101000a81548173ffffffffffffffffffffffffffffffffffffffff021916908373ffffffffffffffffffffffffffffffffffffffff160217905550611fbe806100736000396000f3fe6080604052600436106100865760003560e01c80638d6cb3fb116100595780638d6cb3fb14610128578063b8fe6abe14610153578063c922b17c1461017e578063ce5caf381461019a578063e85cd748146101b657610086565b8063047b07bf1461008b5780631f4cc4db146100b65780632b86ae38146100e157806334f5b6241461010c575b600080fd5b34801561009757600080fd5b506100a06101f8565b6040516100ad91906117bd565b60405180910390f35b3480156100c257600080fd5b506100cb61052b565b6040516100d891906117bd565b60405180910390f35b3480156100ed57600080fd5b506100f66108d0565b60405161010391906117ee565b60405180910390f35b61012660048036038101906101219190611866565b6108d6565b005b34801561013457600080fd5b5061013d610aee565b60405161014a91906117bd565b60405180910390f35b34801561015f57600080fd5b50610168610d56565b60405161017591906117ee565b60405180910390f35b61019860048036038101906101939190611866565b610d60565b005b6101b460048036038101906101af9190611866565b611045565b005b3480156101c257600080fd5b506101dd60048036038101906101d891906118b9565b611356565b6040516101ef96959493929190611904565b60405180910390f35b6060600061020660026114aa565b90506000805b828110156102ab573373ffffffffffffffffffffffffffffffffffffffff166005600060018461023c9190611994565b815260200190815260200160002060030160009054906101000a900473ffffffffffffffffffffffffffffffffffffffff1673ffffffffffffffffffffffffffffffffffffffff1603610298578180610294906119ea565b9250505b80806102a3906119ea565b91505061020c565b5060008167ffffffffffffffff8111156102c8576102c7611a32565b5b60405190808252806020026020018201604052801561030157816020015b6102ee611583565b8152602001906001900390816102e65790505b5090506000805b84811015610520573373ffffffffffffffffffffffffffffffffffffffff16600560006001846103389190611994565b815260200190815260200160002060030160009054906101000a900473ffffffffffffffffffffffffffffffffffffffff1673ffffffffffffffffffffffffffffffffffffffff160361050d57600560006001836103969190611994565b81526020019081526020016000206040518060c00160405290816000820160009054906101000a900473ffffffffffffffffffffffffffffffffffffffff1673ffffffffffffffffffffffffffffffffffffffff1673ffffffffffffffffffffffffffffffffffffffff168152602001600182015481526020016002820160009054906101000a900473ffffffffffffffffffffffffffffffffffffffff1673ffffffffffffffffffffffffffffffffffffffff1673ffffffffffffffffffffffffffffffffffffffff1681526020016003820160009054906101000a900473ffffffffffffffffffffffffffffffffffffffff1673ffffffffffffffffffffffffffffffffffffffff1673ffffffffffffffffffffffffffffffffffffffff168152602001600482015481526020016005820160009054906101000a900460ff1615151515815250508383815181106104f3576104f2611a61565b5b60200260200101819052508180610509906119ea565b9250505b8080610518906119ea565b915050610308565b508194505050505090565b6060600061053960026114aa565b90506000805b82811015610617573373ffffffffffffffffffffffffffffffffffffffff166005600060018461056f9190611994565b815260200190815260200160002060020160009054906101000a900473ffffffffffffffffffffffffffffffffffffffff1673ffffffffffffffffffffffffffffffffffffffff161480156105f05750600560006001836105d09190611994565b815260200190815260200160002060050160009054906101000a900460ff165b15610604578180610600906119ea565b9250505b808061060f906119ea565b91505061053f565b5060008167ffffffffffffffff81111561063457610633611a32565b5b60405190808252806020026020018201604052801561066d57816020015b61065a611583565b8152602001906001900390816106525790505b5090506000805b848110156108c5573373ffffffffffffffffffffffffffffffffffffffff16600560006001846106a49190611994565b815260200190815260200160002060020160009054906101000a900473ffffffffffffffffffffffffffffffffffffffff1673ffffffffffffffffffffffffffffffffffffffff161480156107255750600560006001836107059190611994565b815260200190815260200160002060050160009054906101000a900460ff165b156108b2576005600060018361073b9190611994565b81526020019081526020016000206040518060c00160405290816000820160009054906101000a900473ffffffffffffffffffffffffffffffffffffffff1673ffffffffffffffffffffffffffffffffffffffff1673ffffffffffffffffffffffffffffffffffffffff168152602001600182015481526020016002820160009054906101000a900473ffffffffffffffffffffffffffffffffffffffff1673ffffffffffffffffffffffffffffffffffffffff1673ffffffffffffffffffffffffffffffffffffffff1681526020016003820160009054906101000a900473ffffffffffffffffffffffffffffffffffffffff1673ffffffffffffffffffffffffffffffffffffffff1673ffffffffffffffffffffffffffffffffffffffff168152602001600482015481526020016005820160009054906101000a900460ff16151515158152505083838151811061089857610897611a61565b5b602002602001018190525081806108ae906119ea565b9250505b80806108bd906119ea565b915050610674565b508194505050505090565b60035481565b6108de6114b8565b60008111610921576040517f08c379a000000000000000000000000000000000000000000000000000000000815260040161091890611aed565b60405180910390fd5b6003543414610965576040517f08c379a000000000000000000000000000000000000000000000000000000000815260040161095c90611b59565b60405180910390fd5b8273ffffffffffffffffffffffffffffffffffffffff166323b872dd3330856040518463ffffffff1660e01b81526004016109a293929190611b79565b600060405180830381600087803b1580156109bc57600080fd5b505af11580156109d0573d6000803e3d6000fd5b505050506000600560008481526020019081526020016000209050338160020160006101000a81548173ffffffffffffffffffffffffffffffffffffffff021916908373ffffffffffffffffffffffffffffffffffffffff160217905550308160030160006101000a81548173ffffffffffffffffffffffffffffffffffffffff021916908373ffffffffffffffffffffffffffffffffffffffff16021790555060018160050160006101000a81548160ff021916908315150217905550818160040181905550610aa16001611507565b7fa0c6c0d02d86fdacecbaa5fdf5894bab204e31a778250474108540733a9b8d198484333086604051610ad8959493929190611bb0565b60405180910390a150610ae9611563565b505050565b60606000610afc60026114aa565b90506000610b0a60016114aa565b82610b159190611c03565b905060008167ffffffffffffffff811115610b3357610b32611a32565b5b604051908082528060200260200182016040528015610b6c57816020015b610b59611583565b815260200190600190039081610b515790505b5090506000805b84811015610d4b5760056000600183610b8c9190611994565b815260200190815260200160002060050160009054906101000a900460ff1615610d385760056000600183610bc19190611994565b81526020019081526020016000206040518060c00160405290816000820160009054906101000a900473ffffffffffffffffffffffffffffffffffffffff1673ffffffffffffffffffffffffffffffffffffffff1673ffffffffffffffffffffffffffffffffffffffff168152602001600182015481526020016002820160009054906101000a900473ffffffffffffffffffffffffffffffffffffffff1673ffffffffffffffffffffffffffffffffffffffff1673ffffffffffffffffffffffffffffffffffffffff1681526020016003820160009054906101000a900473ffffffffffffffffffffffffffffffffffffffff1673ffffffffffffffffffffffffffffffffffffffff1673ffffffffffffffffffffffffffffffffffffffff168152602001600482015481526020016005820160009054906101000a900460ff161515151581525050838381518110610d1e57610d1d611a61565b5b60200260200101819052508180610d34906119ea565b9250505b8080610d43906119ea565b915050610b73565b508194505050505090565b6000600354905090565b610d686114b8565b60008111610dab576040517f08c379a0000000000000000000000000000000000000000000000000000000008152600401610da290611aed565b60405180910390fd5b6003543414610def576040517f08c379a0000000000000000000000000000000000000000000000000000000008152600401610de690611b59565b60405180910390fd5b8273ffffffffffffffffffffffffffffffffffffffff166323b872dd3330856040518463ffffffff1660e01b8152600401610e2c93929190611b79565b600060405180830381600087803b158015610e4657600080fd5b505af1158015610e5a573d6000803e3d6000fd5b50505050610e68600261156d565b6040518060c001604052808473ffffffffffffffffffffffffffffffffffffffff1681526020018381526020013373ffffffffffffffffffffffffffffffffffffffff1681526020013073ffffffffffffffffffffffffffffffffffffffff168152602001828152602001600115158152506005600084815260200190815260200160002060008201518160000160006101000a81548173ffffffffffffffffffffffffffffffffffffffff021916908373ffffffffffffffffffffffffffffffffffffffff1602179055506020820151816001015560408201518160020160006101000a81548173ffffffffffffffffffffffffffffffffffffffff021916908373ffffffffffffffffffffffffffffffffffffffff16021790555060608201518160030160006101000a81548173ffffffffffffffffffffffffffffffffffffffff021916908373ffffffffffffffffffffffffffffffffffffffff1602179055506080820151816004015560a08201518160050160006101000a81548160ff0219169083151502179055509050507fa0c6c0d02d86fdacecbaa5fdf5894bab204e31a778250474108540733a9b8d198383333085604051611030959493929190611bb0565b60405180910390a1611040611563565b505050565b61104d6114b8565b6000600560008481526020019081526020016000209050600115158160050160009054906101000a900460ff161515146110bc576040517f08c379a00000000000000000000000000000000000000000000000000000000081526004016110b390611ca9565b60405180910390fd5b600354826110ca9190611994565b341461110b576040517f08c379a000000000000000000000000000000000000000000000000000000000815260040161110290611d3b565b60405180910390fd5b60003390508160020160009054906101000a900473ffffffffffffffffffffffffffffffffffffffff1673ffffffffffffffffffffffffffffffffffffffff166108fc849081150290604051600060405180830381858888f1935050505015801561117a573d6000803e3d6000fd5b508473ffffffffffffffffffffffffffffffffffffffff166323b872dd308385600101546040518463ffffffff1660e01b81526004016111bc93929190611dba565b600060405180830381600087803b1580156111d657600080fd5b505af11580156111ea573d6000803e3d6000fd5b50505050600460009054906101000a900473ffffffffffffffffffffffffffffffffffffffff1673ffffffffffffffffffffffffffffffffffffffff166108fc6003549081150290604051600060405180830381858888f19350505050158015611258573d6000803e3d6000fd5b50808260030160006101000a81548173ffffffffffffffffffffffffffffffffffffffff021916908373ffffffffffffffffffffffffffffffffffffffff16021790555060008260050160006101000a81548160ff0219169083151502179055506112c3600161156d565b7f16f1dbd97e6bf646d429ed186cce832f1f7fd9907814293b83181e9970ab7bd28583600101548460020160009054906101000a900473ffffffffffffffffffffffffffffffffffffffff168487604051611322959493929190611df1565b60405180910390a160008260050160006101000a81548160ff0219169083151502179055505050611351611563565b505050565b6000806000806000806000600560008981526020019081526020016000209050600073ffffffffffffffffffffffffffffffffffffffff168160030160009054906101000a900473ffffffffffffffffffffffffffffffffffffffff1673ffffffffffffffffffffffffffffffffffffffff1603611409576040517f08c379a000000000000000000000000000000000000000000000000000000000815260040161140090611e90565b60405180910390fd5b8060000160009054906101000a900473ffffffffffffffffffffffffffffffffffffffff169650806001015495508060020160009054906101000a900473ffffffffffffffffffffffffffffffffffffffff1694508060030160009054906101000a900473ffffffffffffffffffffffffffffffffffffffff169350806004015492508060050160009054906101000a900460ff1691505091939550919395565b600081600001549050919050565b6002600054036114fd576040517f08c379a00000000000000000000000000000000000000000000000000000000081526004016114f490611efc565b60405180910390fd5b6002600081905550565b60008160000154905060008111611553576040517f08c379a000000000000000000000000000000000000000000000000000000000815260040161154a90611f68565b60405180910390fd5b6001810382600001819055505050565b6001600081905550565b6001816000016000828254019250508190555050565b6040518060c00160405280600073ffffffffffffffffffffffffffffffffffffffff16815260200160008152602001600073ffffffffffffffffffffffffffffffffffffffff168152602001600073ffffffffffffffffffffffffffffffffffffffff168152602001600081526020016000151581525090565b600081519050919050565b600082825260208201905092915050565b6000819050602082019050919050565b600073ffffffffffffffffffffffffffffffffffffffff82169050919050565b600061165482611629565b9050919050565b61166481611649565b82525050565b6000819050919050565b61167d8161166a565b82525050565b600061168e82611629565b9050919050565b61169e81611683565b82525050565b60008115159050919050565b6116b9816116a4565b82525050565b60c0820160008201516116d5600085018261165b565b5060208201516116e86020850182611674565b5060408201516116fb6040850182611695565b50606082015161170e6060850182611695565b5060808201516117216080850182611674565b5060a082015161173460a08501826116b0565b50505050565b600061174683836116bf565b60c08301905092915050565b6000602082019050919050565b600061176a826115fd565b6117748185611608565b935061177f83611619565b8060005b838110156117b0578151611797888261173a565b97506117a283611752565b925050600181019050611783565b5085935050505092915050565b600060208201905081810360008301526117d7818461175f565b905092915050565b6117e88161166a565b82525050565b600060208201905061180360008301846117df565b92915050565b600080fd5b61181781611649565b811461182257600080fd5b50565b6000813590506118348161180e565b92915050565b6118438161166a565b811461184e57600080fd5b50565b6000813590506118608161183a565b92915050565b60008060006060848603121561187f5761187e611809565b5b600061188d86828701611825565b935050602061189e86828701611851565b92505060406118af86828701611851565b9150509250925092565b6000602082840312156118cf576118ce611809565b5b60006118dd84828501611851565b91505092915050565b6118ef81611649565b82525050565b6118fe816116a4565b82525050565b600060c08201905061191960008301896118e6565b61192660208301886117df565b61193360408301876118e6565b61194060608301866118e6565b61194d60808301856117df565b61195a60a08301846118f5565b979650505050505050565b7f4e487b7100000000000000000000000000000000000000000000000000000000600052601160045260246000fd5b600061199f8261166a565b91506119aa8361166a565b9250827fffffffffffffffffffffffffffffffffffffffffffffffffffffffffffffffff038211156119df576119de611965565b5b828201905092915050565b60006119f58261166a565b91507fffffffffffffffffffffffffffffffffffffffffffffffffffffffffffffffff8203611a2757611a26611965565b5b600182019050919050565b7f4e487b7100000000000000000000000000000000000000000000000000000000600052604160045260246000fd5b7f4e487b7100000000000000000000000000000000000000000000000000000000600052603260045260246000fd5b600082825260208201905092915050565b7f5072696365206d757374206265206174206c6561737420312077656900000000600082015250565b6000611ad7601c83611a90565b9150611ae282611aa1565b602082019050919050565b60006020820190508181036000830152611b0681611aca565b9050919050565b7f4e6f7420656e6f75676820657468657220666f72206c697374696e6720666565600082015250565b6000611b43602083611a90565b9150611b4e82611b0d565b602082019050919050565b60006020820190508181036000830152611b7281611b36565b9050919050565b6000606082019050611b8e60008301866118e6565b611b9b60208301856118e6565b611ba860408301846117df565b949350505050565b600060a082019050611bc560008301886118e6565b611bd260208301876117df565b611bdf60408301866118e6565b611bec60608301856118e6565b611bf960808301846117df565b9695505050505050565b6000611c0e8261166a565b9150611c198361166a565b925082821015611c2c57611c2b611965565b5b828203905092915050565b7f4e4654206e6f742063757272656e746c79206c697374656420666f722073616c60008201527f6500000000000000000000000000000000000000000000000000000000000000602082015250565b6000611c93602183611a90565b9150611c9e82611c37565b604082019050919050565b60006020820190508181036000830152611cc281611c86565b9050919050565b7f506c656173652073656e642074686520657861637420616d6f756e74206f662060008201527f657468657220726571756972656420746f2062757920746865204e4654000000602082015250565b6000611d25603d83611a90565b9150611d3082611cc9565b604082019050919050565b60006020820190508181036000830152611d5481611d18565b9050919050565b6000819050919050565b6000611d80611d7b611d7684611629565b611d5b565b611629565b9050919050565b6000611d9282611d65565b9050919050565b6000611da482611d87565b9050919050565b611db481611d99565b82525050565b6000606082019050611dcf60008301866118e6565b611ddc6020830185611dab565b611de960408301846117df565b949350505050565b600060a082019050611e0660008301886118e6565b611e1360208301876117df565b611e206040830186611dab565b611e2d6060830185611dab565b611e3a60808301846117df565b9695505050505050565b7f496e76616c696420746f6b656e20494400000000000000000000000000000000600082015250565b6000611e7a601083611a90565b9150611e8582611e44565b602082019050919050565b60006020820190508181036000830152611ea981611e6d565b9050919050565b7f5265656e7472616e637947756172643a207265656e7472616e742063616c6c00600082015250565b6000611ee6601f83611a90565b9150611ef182611eb0565b602082019050919050565b60006020820190508181036000830152611f1581611ed9565b9050919050565b7f436f756e7465723a2064656372656d656e74206f766572666c6f770000000000600082015250565b6000611f52601b83611a90565b9150611f5d82611f1c565b602082019050919050565b60006020820190508181036000830152611f8181611f45565b905091905056fea2646970667358221220a03029a0c99efef474fcf92f6b1d4773dc85f7f607cf04fb4508e4883675c6f164736f6c634300080d0033",
  "immutableReferences": {},
  "source": "// SPDX-License-Identifier: MIT\r\n\r\npragma solidity ^0.8.13;\r\n\r\nimport \"@openzeppelin/contracts/utils/Counters.sol\";\r\nimport \"@openzeppelin/contracts/token/ERC721/ERC721.sol\";\r\nimport \"@openzeppelin/contracts/security/ReentrancyGuard.sol\";\r\n\r\ncontract Marketplace is ReentrancyGuard {\r\n    using Counters for Counters.Counter;\r\n    Counters.Counter private _nftsSold;\r\n    Counters.Counter private _nftCount;\r\n    uint256 public LISTING_FEE = 0.0001 ether;\r\n    address payable private _marketOwner;\r\n    mapping(uint256 => NFT) private _idToNFT;\r\n    struct NFT {\r\n        address nftContract;\r\n        uint256 tokenId;\r\n        address payable seller;\r\n        address payable owner;\r\n        uint256 price;\r\n        bool onSale;\r\n    }\r\n    event NFTListed(\r\n        address nftContract,\r\n        uint256 tokenId,\r\n        address seller,\r\n        address owner,\r\n        uint256 price\r\n    );\r\n    event NFTSold(\r\n        address nftContract,\r\n        uint256 tokenId,\r\n        address seller,\r\n        address owner,\r\n        uint256 price\r\n    );\r\n\r\n    constructor() {\r\n        _marketOwner = payable(msg.sender);\r\n    }\r\n\r\n    // List the NFT on the marketplace\r\n function listNft(\r\n    address _nftContract,\r\n    uint256 _tokenId,\r\n    uint256 _price\r\n) public payable nonReentrant {\r\n    require(_price > 0, \"Price must be at least 1 wei\");\r\n    require(msg.value == LISTING_FEE, \"Not enough ether for listing fee\");\r\n\r\n    IERC721(_nftContract).transferFrom(msg.sender, address(this), _tokenId);\r\n\r\n    _nftCount.increment();\r\n\r\n    _idToNFT[_tokenId] = NFT(\r\n        _nftContract,\r\n        _tokenId,\r\n        payable(msg.sender),\r\n        payable(address(this)),\r\n        _price,\r\n        true\r\n    );\r\n\r\n    emit NFTListed(_nftContract, _tokenId, msg.sender, address(this), _price);\r\n}\r\n\r\n\r\n    function getNftDetails(uint256 _tokenId) public view returns (\r\n    address nftContract,\r\n    uint256 tokenId,\r\n    address seller,\r\n    address owner,\r\n    uint256 price,\r\n    bool onSale\r\n) {\r\n    NFT storage nft = _idToNFT[_tokenId];\r\n    require(nft.owner != address(0), \"Invalid token ID\");\r\n    nftContract = nft.nftContract;\r\n    tokenId = nft.tokenId;\r\n    seller = nft.seller;\r\n    owner = nft.owner;\r\n    price = nft.price;\r\n    onSale = nft.onSale;\r\n}\r\n\r\n\r\n    // Buy an NFT\r\n function buyNft(address _nftContract, uint256 _tokenId, uint256 _price)\r\n    public\r\n    payable\r\n    nonReentrant\r\n{\r\n    NFT storage nft = _idToNFT[_tokenId];\r\n    require(\r\n        nft.onSale == true,\r\n        \"NFT not currently listed for sale\"\r\n    );\r\n    require(\r\n        msg.value == _price + LISTING_FEE,\r\n        \"Please send the exact amount of ether required to buy the NFT\"\r\n    );\r\n\r\n    address payable buyer = payable(msg.sender);\r\n    payable(nft.seller).transfer(_price);\r\n    IERC721(_nftContract).transferFrom(address(this), buyer, nft.tokenId);\r\n    _marketOwner.transfer(LISTING_FEE);\r\n    nft.owner = buyer;\r\n    nft.onSale = false;\r\n\r\n    _nftsSold.increment();\r\n    emit NFTSold(_nftContract, nft.tokenId, nft.seller, buyer, _price);\r\n\r\n    // Set the onSale variable to false\r\n    nft.onSale = false;\r\n}\r\n\r\n\r\n\r\n\r\n    // Resell an NFT purchased from the marketplace\r\n    function resellNft(\r\n        address _nftContract,\r\n        uint256 _tokenId,\r\n        uint256 _price\r\n    ) public payable nonReentrant {\r\n        require(_price > 0, \"Price must be at least 1 wei\");\r\n        require(msg.value == LISTING_FEE, \"Not enough ether for listing fee\");\r\n\r\n        IERC721(_nftContract).transferFrom(msg.sender, address(this), _tokenId);\r\n\r\n        NFT storage nft = _idToNFT[_tokenId];\r\n        nft.seller = payable(msg.sender);\r\n        nft.owner = payable(address(this));\r\n        nft.onSale = true; // Update the variable from \"listed\" to \"onSale\"\r\n        nft.price = _price;\r\n\r\n        _nftsSold.decrement();\r\n        emit NFTListed(\r\n            _nftContract,\r\n            _tokenId,\r\n            msg.sender,\r\n            address(this),\r\n            _price\r\n        );\r\n    }\r\n\r\n\r\n    function getListingFee() public view returns (uint256) {\r\n        return LISTING_FEE;\r\n    }\r\n\r\n    function getListedNfts() public view returns (NFT[] memory) {\r\n        uint256 nftCount = _nftCount.current();\r\n        uint256 unsoldNftsCount = nftCount - _nftsSold.current();\r\n\r\n        NFT[] memory nfts = new NFT[](unsoldNftsCount);\r\n        uint256 nftsIndex = 0;\r\n        for (uint256 i = 0; i < nftCount; i++) {\r\n            if (_idToNFT[i + 1].onSale) {\r\n                nfts[nftsIndex] = _idToNFT[i + 1];\r\n                nftsIndex++;\r\n            }\r\n        }\r\n        return nfts;\r\n}\r\n    function getMyNfts() public view returns (NFT[] memory) {\r\n        uint256 nftCount = _nftCount.current();\r\n        uint256 myNftCount = 0;\r\n        for (uint256 i = 0; i < nftCount; i++) {\r\n            if (_idToNFT[i + 1].owner == msg.sender) {\r\n                myNftCount++;\r\n            }\r\n        }\r\n\r\n        NFT[] memory nfts = new NFT[](myNftCount);\r\n        uint256 nftsIndex = 0;\r\n        for (uint256 i = 0; i < nftCount; i++) {\r\n            if (_idToNFT[i + 1].owner == msg.sender) {\r\n                nfts[nftsIndex] = _idToNFT[i + 1];\r\n                nftsIndex++;\r\n            }\r\n        }\r\n        return nfts;\r\n    }\r\n\r\n    function getMyListedNfts() public view returns (NFT[] memory) {\r\n        uint256 nftCount = _nftCount.current();\r\n        uint256 myListedNftCount = 0;\r\n        for (uint256 i = 0; i < nftCount; i++) {\r\n            if (\r\n                _idToNFT[i + 1].seller == msg.sender && _idToNFT[i + 1].onSale\r\n            ) {\r\n                myListedNftCount++;\r\n            }\r\n        }\r\n\r\n        NFT[] memory nfts = new NFT[](myListedNftCount);\r\n        uint256 nftsIndex = 0;\r\n        for (uint256 i = 0; i < nftCount; i++) {\r\n            if (\r\n                _idToNFT[i + 1].seller == msg.sender && _idToNFT[i + 1].onSale\r\n            ) {\r\n                nfts[nftsIndex] = _idToNFT[i + 1];\r\n                nftsIndex++;\r\n            }\r\n        }\r\n        return nfts;\r\n    }\r\n}\r\n",
  "sourcePath": "C:\\Users\\raman\\OneDrive\\Documents\\GitHub\\Meta_DeCentraland\\Meta_DeCenterland\\contracts\\Marketplace.sol",
  "compiler": {
    "name": "solc",
    "version": "0.8.13+commit.abaa5c0e.Emscripten.clang"
  },
  "schemaVersion": "3.4.11",
  "updatedAt": "2023-03-02T18:08:38.597Z",
  "devdoc": {
    "kind": "dev",
    "methods": {},
    "version": 1
  },
  "userdoc": {
    "kind": "user",
    "methods": {},
    "version": 1
  }
}