{
  "contractName": "Marketplace",
  "abi": [
    {
      "inputs": [],
      "stateMutability": "nonpayable",
      "type": "constructor"
    },
    {
      "anonymous": false,
      "inputs": [
        {
          "indexed": false,
          "internalType": "address",
          "name": "nftContract",
          "type": "address"
        },
        {
          "indexed": false,
          "internalType": "uint256",
          "name": "tokenId",
          "type": "uint256"
        },
        {
          "indexed": false,
          "internalType": "address",
          "name": "seller",
          "type": "address"
        },
        {
          "indexed": false,
          "internalType": "address",
          "name": "owner",
          "type": "address"
        },
        {
          "indexed": false,
          "internalType": "uint256",
          "name": "price",
          "type": "uint256"
        }
      ],
      "name": "NFTListed",
      "type": "event"
    },
    {
      "anonymous": false,
      "inputs": [
        {
          "indexed": false,
          "internalType": "address",
          "name": "nftContract",
          "type": "address"
        },
        {
          "indexed": false,
          "internalType": "uint256",
          "name": "tokenId",
          "type": "uint256"
        },
        {
          "indexed": false,
          "internalType": "address",
          "name": "seller",
          "type": "address"
        },
        {
          "indexed": false,
          "internalType": "address",
          "name": "owner",
          "type": "address"
        },
        {
          "indexed": false,
          "internalType": "uint256",
          "name": "price",
          "type": "uint256"
        }
      ],
      "name": "NFTSold",
      "type": "event"
    },
    {
      "inputs": [],
      "name": "LISTING_FEE",
      "outputs": [
        {
          "internalType": "uint256",
          "name": "",
          "type": "uint256"
        }
      ],
      "stateMutability": "view",
      "type": "function"
    },
    {
      "inputs": [
        {
          "internalType": "address",
          "name": "_nftContract",
          "type": "address"
        },
        {
          "internalType": "uint256",
          "name": "_tokenId",
          "type": "uint256"
        },
        {
          "internalType": "uint256",
          "name": "_price",
          "type": "uint256"
        }
      ],
      "name": "listNft",
      "outputs": [],
      "stateMutability": "payable",
      "type": "function"
    },
    {
      "inputs": [
        {
          "internalType": "uint256",
          "name": "_tokenId",
          "type": "uint256"
        }
      ],
      "name": "getNftDetails",
      "outputs": [
        {
          "internalType": "address",
          "name": "nftContract",
          "type": "address"
        },
        {
          "internalType": "uint256",
          "name": "tokenId",
          "type": "uint256"
        },
        {
          "internalType": "address",
          "name": "seller",
          "type": "address"
        },
        {
          "internalType": "address",
          "name": "owner",
          "type": "address"
        },
        {
          "internalType": "uint256",
          "name": "price",
          "type": "uint256"
        },
        {
          "internalType": "bool",
          "name": "onSale",
          "type": "bool"
        }
      ],
      "stateMutability": "view",
      "type": "function"
    },
    {
      "inputs": [
        {
          "internalType": "address",
          "name": "_nftContract",
          "type": "address"
        },
        {
          "internalType": "uint256",
          "name": "_tokenId",
          "type": "uint256"
        },
        {
          "internalType": "uint256",
          "name": "_price",
          "type": "uint256"
        }
      ],
      "name": "buyNft",
      "outputs": [],
      "stateMutability": "payable",
      "type": "function"
    },
    {
      "inputs": [
        {
          "internalType": "address",
          "name": "_nftContract",
          "type": "address"
        },
        {
          "internalType": "uint256",
          "name": "_tokenId",
          "type": "uint256"
        },
        {
          "internalType": "uint256",
          "name": "_price",
          "type": "uint256"
        }
      ],
      "name": "resellNft",
      "outputs": [],
      "stateMutability": "payable",
      "type": "function"
    },
    {
      "inputs": [],
      "name": "getListingFee",
      "outputs": [
        {
          "internalType": "uint256",
          "name": "",
          "type": "uint256"
        }
      ],
      "stateMutability": "view",
      "type": "function"
    },
    {
      "inputs": [],
      "name": "getListedNfts",
      "outputs": [
        {
          "components": [
            {
              "internalType": "address",
              "name": "nftContract",
              "type": "address"
            },
            {
              "internalType": "uint256",
              "name": "tokenId",
              "type": "uint256"
            },
            {
              "internalType": "address payable",
              "name": "seller",
              "type": "address"
            },
            {
              "internalType": "address payable",
              "name": "owner",
              "type": "address"
            },
            {
              "internalType": "uint256",
              "name": "price",
              "type": "uint256"
            },
            {
              "internalType": "bool",
              "name": "onSale",
              "type": "bool"
            }
          ],
          "internalType": "struct Marketplace.NFT[]",
          "name": "",
          "type": "tuple[]"
        }
      ],
      "stateMutability": "view",
      "type": "function"
    },
    {
      "inputs": [],
      "name": "getMyNfts",
      "outputs": [
        {
          "components": [
            {
              "internalType": "address",
              "name": "nftContract",
              "type": "address"
            },
            {
              "internalType": "uint256",
              "name": "tokenId",
              "type": "uint256"
            },
            {
              "internalType": "address payable",
              "name": "seller",
              "type": "address"
            },
            {
              "internalType": "address payable",
              "name": "owner",
              "type": "address"
            },
            {
              "internalType": "uint256",
              "name": "price",
              "type": "uint256"
            },
            {
              "internalType": "bool",
              "name": "onSale",
              "type": "bool"
            }
          ],
          "internalType": "struct Marketplace.NFT[]",
          "name": "",
          "type": "tuple[]"
        }
      ],
      "stateMutability": "view",
      "type": "function"
    },
    {
      "inputs": [],
      "name": "getMyListedNfts",
      "outputs": [
        {
          "components": [
            {
              "internalType": "address",
              "name": "nftContract",
              "type": "address"
            },
            {
              "internalType": "uint256",
              "name": "tokenId",
              "type": "uint256"
            },
            {
              "internalType": "address payable",
              "name": "seller",
              "type": "address"
            },
            {
              "internalType": "address payable",
              "name": "owner",
              "type": "address"
            },
            {
              "internalType": "uint256",
              "name": "price",
              "type": "uint256"
            },
            {
              "internalType": "bool",
              "name": "onSale",
              "type": "bool"
            }
          ],
          "internalType": "struct Marketplace.NFT[]",
          "name": "",
          "type": "tuple[]"
        }
      ],
      "stateMutability": "view",
      "type": "function"
    }
  ],
  "bytecode": "0x6080604052655af3107a400060035534801561001a57600080fd5b50600160008190555033600460006101000a81548173ffffffffffffffffffffffffffffffffffffffff021916908373ffffffffffffffffffffffffffffffffffffffff160217905550611fa1806100736000396000f3fe6080604052600436106100865760003560e01c80638d6cb3fb116100595780638d6cb3fb14610128578063b8fe6abe14610153578063c922b17c1461017e578063ce5caf381461019a578063e85cd748146101b657610086565b8063047b07bf1461008b5780631f4cc4db146100b65780632b86ae38146100e157806334f5b6241461010c575b600080fd5b34801561009757600080fd5b506100a06101f8565b6040516100ad91906117a0565b60405180910390f35b3480156100c257600080fd5b506100cb61052b565b6040516100d891906117a0565b60405180910390f35b3480156100ed57600080fd5b506100f66108d0565b60405161010391906117d1565b60405180910390f35b61012660048036038101906101219190611849565b6108d6565b005b34801561013457600080fd5b5061013d610aee565b60405161014a91906117a0565b60405180910390f35b34801561015f57600080fd5b50610168610d56565b60405161017591906117d1565b60405180910390f35b61019860048036038101906101939190611849565b610d60565b005b6101b460048036038101906101af9190611849565b611045565b005b3480156101c257600080fd5b506101dd60048036038101906101d8919061189c565b611339565b6040516101ef969594939291906118e7565b60405180910390f35b60606000610206600261148d565b90506000805b828110156102ab573373ffffffffffffffffffffffffffffffffffffffff166005600060018461023c9190611977565b815260200190815260200160002060030160009054906101000a900473ffffffffffffffffffffffffffffffffffffffff1673ffffffffffffffffffffffffffffffffffffffff1603610298578180610294906119cd565b9250505b80806102a3906119cd565b91505061020c565b5060008167ffffffffffffffff8111156102c8576102c7611a15565b5b60405190808252806020026020018201604052801561030157816020015b6102ee611566565b8152602001906001900390816102e65790505b5090506000805b84811015610520573373ffffffffffffffffffffffffffffffffffffffff16600560006001846103389190611977565b815260200190815260200160002060030160009054906101000a900473ffffffffffffffffffffffffffffffffffffffff1673ffffffffffffffffffffffffffffffffffffffff160361050d57600560006001836103969190611977565b81526020019081526020016000206040518060c00160405290816000820160009054906101000a900473ffffffffffffffffffffffffffffffffffffffff1673ffffffffffffffffffffffffffffffffffffffff1673ffffffffffffffffffffffffffffffffffffffff168152602001600182015481526020016002820160009054906101000a900473ffffffffffffffffffffffffffffffffffffffff1673ffffffffffffffffffffffffffffffffffffffff1673ffffffffffffffffffffffffffffffffffffffff1681526020016003820160009054906101000a900473ffffffffffffffffffffffffffffffffffffffff1673ffffffffffffffffffffffffffffffffffffffff1673ffffffffffffffffffffffffffffffffffffffff168152602001600482015481526020016005820160009054906101000a900460ff1615151515815250508383815181106104f3576104f2611a44565b5b60200260200101819052508180610509906119cd565b9250505b8080610518906119cd565b915050610308565b508194505050505090565b60606000610539600261148d565b90506000805b82811015610617573373ffffffffffffffffffffffffffffffffffffffff166005600060018461056f9190611977565b815260200190815260200160002060020160009054906101000a900473ffffffffffffffffffffffffffffffffffffffff1673ffffffffffffffffffffffffffffffffffffffff161480156105f05750600560006001836105d09190611977565b815260200190815260200160002060050160009054906101000a900460ff165b15610604578180610600906119cd565b9250505b808061060f906119cd565b91505061053f565b5060008167ffffffffffffffff81111561063457610633611a15565b5b60405190808252806020026020018201604052801561066d57816020015b61065a611566565b8152602001906001900390816106525790505b5090506000805b848110156108c5573373ffffffffffffffffffffffffffffffffffffffff16600560006001846106a49190611977565b815260200190815260200160002060020160009054906101000a900473ffffffffffffffffffffffffffffffffffffffff1673ffffffffffffffffffffffffffffffffffffffff161480156107255750600560006001836107059190611977565b815260200190815260200160002060050160009054906101000a900460ff165b156108b2576005600060018361073b9190611977565b81526020019081526020016000206040518060c00160405290816000820160009054906101000a900473ffffffffffffffffffffffffffffffffffffffff1673ffffffffffffffffffffffffffffffffffffffff1673ffffffffffffffffffffffffffffffffffffffff168152602001600182015481526020016002820160009054906101000a900473ffffffffffffffffffffffffffffffffffffffff1673ffffffffffffffffffffffffffffffffffffffff1673ffffffffffffffffffffffffffffffffffffffff1681526020016003820160009054906101000a900473ffffffffffffffffffffffffffffffffffffffff1673ffffffffffffffffffffffffffffffffffffffff1673ffffffffffffffffffffffffffffffffffffffff168152602001600482015481526020016005820160009054906101000a900460ff16151515158152505083838151811061089857610897611a44565b5b602002602001018190525081806108ae906119cd565b9250505b80806108bd906119cd565b915050610674565b508194505050505090565b60035481565b6108de61149b565b60008111610921576040517f08c379a000000000000000000000000000000000000000000000000000000000815260040161091890611ad0565b60405180910390fd5b6003543414610965576040517f08c379a000000000000000000000000000000000000000000000000000000000815260040161095c90611b3c565b60405180910390fd5b8273ffffffffffffffffffffffffffffffffffffffff166323b872dd3330856040518463ffffffff1660e01b81526004016109a293929190611b5c565b600060405180830381600087803b1580156109bc57600080fd5b505af11580156109d0573d6000803e3d6000fd5b505050506000600560008481526020019081526020016000209050338160020160006101000a81548173ffffffffffffffffffffffffffffffffffffffff021916908373ffffffffffffffffffffffffffffffffffffffff160217905550308160030160006101000a81548173ffffffffffffffffffffffffffffffffffffffff021916908373ffffffffffffffffffffffffffffffffffffffff16021790555060018160050160006101000a81548160ff021916908315150217905550818160040181905550610aa160016114ea565b7fa0c6c0d02d86fdacecbaa5fdf5894bab204e31a778250474108540733a9b8d198484333086604051610ad8959493929190611b93565b60405180910390a150610ae9611546565b505050565b60606000610afc600261148d565b90506000610b0a600161148d565b82610b159190611be6565b905060008167ffffffffffffffff811115610b3357610b32611a15565b5b604051908082528060200260200182016040528015610b6c57816020015b610b59611566565b815260200190600190039081610b515790505b5090506000805b84811015610d4b5760056000600183610b8c9190611977565b815260200190815260200160002060050160009054906101000a900460ff1615610d385760056000600183610bc19190611977565b81526020019081526020016000206040518060c00160405290816000820160009054906101000a900473ffffffffffffffffffffffffffffffffffffffff1673ffffffffffffffffffffffffffffffffffffffff1673ffffffffffffffffffffffffffffffffffffffff168152602001600182015481526020016002820160009054906101000a900473ffffffffffffffffffffffffffffffffffffffff1673ffffffffffffffffffffffffffffffffffffffff1673ffffffffffffffffffffffffffffffffffffffff1681526020016003820160009054906101000a900473ffffffffffffffffffffffffffffffffffffffff1673ffffffffffffffffffffffffffffffffffffffff1673ffffffffffffffffffffffffffffffffffffffff168152602001600482015481526020016005820160009054906101000a900460ff161515151581525050838381518110610d1e57610d1d611a44565b5b60200260200101819052508180610d34906119cd565b9250505b8080610d43906119cd565b915050610b73565b508194505050505090565b6000600354905090565b610d6861149b565b60008111610dab576040517f08c379a0000000000000000000000000000000000000000000000000000000008152600401610da290611ad0565b60405180910390fd5b6003543414610def576040517f08c379a0000000000000000000000000000000000000000000000000000000008152600401610de690611b3c565b60405180910390fd5b8273ffffffffffffffffffffffffffffffffffffffff166323b872dd3330856040518463ffffffff1660e01b8152600401610e2c93929190611b5c565b600060405180830381600087803b158015610e4657600080fd5b505af1158015610e5a573d6000803e3d6000fd5b50505050610e686002611550565b6040518060c001604052808473ffffffffffffffffffffffffffffffffffffffff1681526020018381526020013373ffffffffffffffffffffffffffffffffffffffff1681526020013073ffffffffffffffffffffffffffffffffffffffff168152602001828152602001600115158152506005600084815260200190815260200160002060008201518160000160006101000a81548173ffffffffffffffffffffffffffffffffffffffff021916908373ffffffffffffffffffffffffffffffffffffffff1602179055506020820151816001015560408201518160020160006101000a81548173ffffffffffffffffffffffffffffffffffffffff021916908373ffffffffffffffffffffffffffffffffffffffff16021790555060608201518160030160006101000a81548173ffffffffffffffffffffffffffffffffffffffff021916908373ffffffffffffffffffffffffffffffffffffffff1602179055506080820151816004015560a08201518160050160006101000a81548160ff0219169083151502179055509050507fa0c6c0d02d86fdacecbaa5fdf5894bab204e31a778250474108540733a9b8d198383333085604051611030959493929190611b93565b60405180910390a1611040611546565b505050565b61104d61149b565b6000600560008481526020019081526020016000209050600115158160050160009054906101000a900460ff161515146110bc576040517f08c379a00000000000000000000000000000000000000000000000000000000081526004016110b390611c8c565b60405180910390fd5b600354826110ca9190611977565b341461110b576040517f08c379a000000000000000000000000000000000000000000000000000000000815260040161110290611d1e565b60405180910390fd5b60003390508160020160009054906101000a900473ffffffffffffffffffffffffffffffffffffffff1673ffffffffffffffffffffffffffffffffffffffff166108fc849081150290604051600060405180830381858888f1935050505015801561117a573d6000803e3d6000fd5b508473ffffffffffffffffffffffffffffffffffffffff166323b872dd308385600101546040518463ffffffff1660e01b81526004016111bc93929190611d9d565b600060405180830381600087803b1580156111d657600080fd5b505af11580156111ea573d6000803e3d6000fd5b50505050600460009054906101000a900473ffffffffffffffffffffffffffffffffffffffff1673ffffffffffffffffffffffffffffffffffffffff166108fc6003549081150290604051600060405180830381858888f19350505050158015611258573d6000803e3d6000fd5b50808260030160006101000a81548173ffffffffffffffffffffffffffffffffffffffff021916908373ffffffffffffffffffffffffffffffffffffffff16021790555060008260050160006101000a81548160ff0219169083151502179055506112c36001611550565b7f16f1dbd97e6bf646d429ed186cce832f1f7fd9907814293b83181e9970ab7bd28583600101548460020160009054906101000a900473ffffffffffffffffffffffffffffffffffffffff168487604051611322959493929190611dd4565b60405180910390a15050611334611546565b505050565b6000806000806000806000600560008981526020019081526020016000209050600073ffffffffffffffffffffffffffffffffffffffff168160030160009054906101000a900473ffffffffffffffffffffffffffffffffffffffff1673ffffffffffffffffffffffffffffffffffffffff16036113ec576040517f08c379a00000000000000000000000000000000000000000000000000000000081526004016113e390611e73565b60405180910390fd5b8060000160009054906101000a900473ffffffffffffffffffffffffffffffffffffffff169650806001015495508060020160009054906101000a900473ffffffffffffffffffffffffffffffffffffffff1694508060030160009054906101000a900473ffffffffffffffffffffffffffffffffffffffff169350806004015492508060050160009054906101000a900460ff1691505091939550919395565b600081600001549050919050565b6002600054036114e0576040517f08c379a00000000000000000000000000000000000000000000000000000000081526004016114d790611edf565b60405180910390fd5b6002600081905550565b60008160000154905060008111611536576040517f08c379a000000000000000000000000000000000000000000000000000000000815260040161152d90611f4b565b60405180910390fd5b6001810382600001819055505050565b6001600081905550565b6001816000016000828254019250508190555050565b6040518060c00160405280600073ffffffffffffffffffffffffffffffffffffffff16815260200160008152602001600073ffffffffffffffffffffffffffffffffffffffff168152602001600073ffffffffffffffffffffffffffffffffffffffff168152602001600081526020016000151581525090565b600081519050919050565b600082825260208201905092915050565b6000819050602082019050919050565b600073ffffffffffffffffffffffffffffffffffffffff82169050919050565b60006116378261160c565b9050919050565b6116478161162c565b82525050565b6000819050919050565b6116608161164d565b82525050565b60006116718261160c565b9050919050565b61168181611666565b82525050565b60008115159050919050565b61169c81611687565b82525050565b60c0820160008201516116b8600085018261163e565b5060208201516116cb6020850182611657565b5060408201516116de6040850182611678565b5060608201516116f16060850182611678565b5060808201516117046080850182611657565b5060a082015161171760a0850182611693565b50505050565b600061172983836116a2565b60c08301905092915050565b6000602082019050919050565b600061174d826115e0565b61175781856115eb565b9350611762836115fc565b8060005b8381101561179357815161177a888261171d565b975061178583611735565b925050600181019050611766565b5085935050505092915050565b600060208201905081810360008301526117ba8184611742565b905092915050565b6117cb8161164d565b82525050565b60006020820190506117e660008301846117c2565b92915050565b600080fd5b6117fa8161162c565b811461180557600080fd5b50565b600081359050611817816117f1565b92915050565b6118268161164d565b811461183157600080fd5b50565b6000813590506118438161181d565b92915050565b600080600060608486031215611862576118616117ec565b5b600061187086828701611808565b935050602061188186828701611834565b925050604061189286828701611834565b9150509250925092565b6000602082840312156118b2576118b16117ec565b5b60006118c084828501611834565b91505092915050565b6118d28161162c565b82525050565b6118e181611687565b82525050565b600060c0820190506118fc60008301896118c9565b61190960208301886117c2565b61191660408301876118c9565b61192360608301866118c9565b61193060808301856117c2565b61193d60a08301846118d8565b979650505050505050565b7f4e487b7100000000000000000000000000000000000000000000000000000000600052601160045260246000fd5b60006119828261164d565b915061198d8361164d565b9250827fffffffffffffffffffffffffffffffffffffffffffffffffffffffffffffffff038211156119c2576119c1611948565b5b828201905092915050565b60006119d88261164d565b91507fffffffffffffffffffffffffffffffffffffffffffffffffffffffffffffffff8203611a0a57611a09611948565b5b600182019050919050565b7f4e487b7100000000000000000000000000000000000000000000000000000000600052604160045260246000fd5b7f4e487b7100000000000000000000000000000000000000000000000000000000600052603260045260246000fd5b600082825260208201905092915050565b7f5072696365206d757374206265206174206c6561737420312077656900000000600082015250565b6000611aba601c83611a73565b9150611ac582611a84565b602082019050919050565b60006020820190508181036000830152611ae981611aad565b9050919050565b7f4e6f7420656e6f75676820657468657220666f72206c697374696e6720666565600082015250565b6000611b26602083611a73565b9150611b3182611af0565b602082019050919050565b60006020820190508181036000830152611b5581611b19565b9050919050565b6000606082019050611b7160008301866118c9565b611b7e60208301856118c9565b611b8b60408301846117c2565b949350505050565b600060a082019050611ba860008301886118c9565b611bb560208301876117c2565b611bc260408301866118c9565b611bcf60608301856118c9565b611bdc60808301846117c2565b9695505050505050565b6000611bf18261164d565b9150611bfc8361164d565b925082821015611c0f57611c0e611948565b5b828203905092915050565b7f4e4654206e6f742063757272656e746c79206c697374656420666f722073616c60008201527f6500000000000000000000000000000000000000000000000000000000000000602082015250565b6000611c76602183611a73565b9150611c8182611c1a565b604082019050919050565b60006020820190508181036000830152611ca581611c69565b9050919050565b7f506c656173652073656e642074686520657861637420616d6f756e74206f662060008201527f657468657220726571756972656420746f2062757920746865204e4654000000602082015250565b6000611d08603d83611a73565b9150611d1382611cac565b604082019050919050565b60006020820190508181036000830152611d3781611cfb565b9050919050565b6000819050919050565b6000611d63611d5e611d598461160c565b611d3e565b61160c565b9050919050565b6000611d7582611d48565b9050919050565b6000611d8782611d6a565b9050919050565b611d9781611d7c565b82525050565b6000606082019050611db260008301866118c9565b611dbf6020830185611d8e565b611dcc60408301846117c2565b949350505050565b600060a082019050611de960008301886118c9565b611df660208301876117c2565b611e036040830186611d8e565b611e106060830185611d8e565b611e1d60808301846117c2565b9695505050505050565b7f496e76616c696420746f6b656e20494400000000000000000000000000000000600082015250565b6000611e5d601083611a73565b9150611e6882611e27565b602082019050919050565b60006020820190508181036000830152611e8c81611e50565b9050919050565b7f5265656e7472616e637947756172643a207265656e7472616e742063616c6c00600082015250565b6000611ec9601f83611a73565b9150611ed482611e93565b602082019050919050565b60006020820190508181036000830152611ef881611ebc565b9050919050565b7f436f756e7465723a2064656372656d656e74206f766572666c6f770000000000600082015250565b6000611f35601b83611a73565b9150611f4082611eff565b602082019050919050565b60006020820190508181036000830152611f6481611f28565b905091905056fea2646970667358221220727926e7d21e5e48d79e833c8a0c8b655412edb36e478a3ed1d463624a2ed58164736f6c634300080d0033",
  "immutableReferences": {},
  "source": "// SPDX-License-Identifier: MIT\n\npragma solidity ^0.8.13;\n\nimport \"@openzeppelin/contracts/utils/Counters.sol\";\nimport \"@openzeppelin/contracts/token/ERC721/ERC721.sol\";\nimport \"@openzeppelin/contracts/security/ReentrancyGuard.sol\";\n\ncontract Marketplace is ReentrancyGuard {\n    using Counters for Counters.Counter;\n    Counters.Counter private _nftsSold;\n    Counters.Counter private _nftCount;\n    uint256 public LISTING_FEE = 0.0001 ether;\n    address payable private _marketOwner;\n    mapping(uint256 => NFT) private _idToNFT;\n    struct NFT {\n        address nftContract;\n        uint256 tokenId;\n        address payable seller;\n        address payable owner;\n        uint256 price;\n        bool onSale;\n    }\n    event NFTListed(\n        address nftContract,\n        uint256 tokenId,\n        address seller,\n        address owner,\n        uint256 price\n    );\n    event NFTSold(\n        address nftContract,\n        uint256 tokenId,\n        address seller,\n        address owner,\n        uint256 price\n    );\n\n    constructor() {\n        _marketOwner = payable(msg.sender);\n    }\n\n    // List the NFT on the marketplace\n function listNft(\n    address _nftContract,\n    uint256 _tokenId,\n    uint256 _price\n) public payable nonReentrant {\n    require(_price > 0, \"Price must be at least 1 wei\");\n    require(msg.value == LISTING_FEE, \"Not enough ether for listing fee\");\n\n    IERC721(_nftContract).transferFrom(msg.sender, address(this), _tokenId);\n\n    _nftCount.increment();\n\n    _idToNFT[_tokenId] = NFT(\n        _nftContract,\n        _tokenId,\n        payable(msg.sender),\n        payable(address(this)),\n        _price,\n        true\n    );\n\n    emit NFTListed(_nftContract, _tokenId, msg.sender, address(this), _price);\n}\n\n\n    function getNftDetails(uint256 _tokenId) public view returns (\n    address nftContract,\n    uint256 tokenId,\n    address seller,\n    address owner,\n    uint256 price,\n    bool onSale\n) {\n    NFT storage nft = _idToNFT[_tokenId];\n    require(nft.owner != address(0), \"Invalid token ID\");\n    nftContract = nft.nftContract;\n    tokenId = nft.tokenId;\n    seller = nft.seller;\n    owner = nft.owner;\n    price = nft.price;\n    onSale = nft.onSale;\n}\n\n\n    // Buy an NFT\n function buyNft(address _nftContract, uint256 _tokenId, uint256 _price)\n    public\n    payable\n    nonReentrant\n{\n    NFT storage nft = _idToNFT[_tokenId];\n    require(\n        nft.onSale == true,\n        \"NFT not currently listed for sale\"\n    );\n    require(\n        msg.value == _price + LISTING_FEE,\n        \"Please send the exact amount of ether required to buy the NFT\"\n    );\n\n    address payable buyer = payable(msg.sender);\n    payable(nft.seller).transfer(_price);\n    IERC721(_nftContract).transferFrom(address(this), buyer, nft.tokenId);\n    _marketOwner.transfer(LISTING_FEE);\n    nft.owner = buyer;\n    nft.onSale = false;\n\n    _nftsSold.increment();\n    emit NFTSold(_nftContract, nft.tokenId, nft.seller, buyer, _price);\n}\n\n\n\n    // Resell an NFT purchased from the marketplace\n    function resellNft(\n        address _nftContract,\n        uint256 _tokenId,\n        uint256 _price\n    ) public payable nonReentrant {\n        require(_price > 0, \"Price must be at least 1 wei\");\n        require(msg.value == LISTING_FEE, \"Not enough ether for listing fee\");\n\n        IERC721(_nftContract).transferFrom(msg.sender, address(this), _tokenId);\n\n        NFT storage nft = _idToNFT[_tokenId];\n        nft.seller = payable(msg.sender);\n        nft.owner = payable(address(this));\n        nft.onSale = true; // Update the variable from \"listed\" to \"onSale\"\n        nft.price = _price;\n\n        _nftsSold.decrement();\n        emit NFTListed(\n            _nftContract,\n            _tokenId,\n            msg.sender,\n            address(this),\n            _price\n        );\n    }\n\n\n    function getListingFee() public view returns (uint256) {\n        return LISTING_FEE;\n    }\n\n    function getListedNfts() public view returns (NFT[] memory) {\n        uint256 nftCount = _nftCount.current();\n        uint256 unsoldNftsCount = nftCount - _nftsSold.current();\n\n        NFT[] memory nfts = new NFT[](unsoldNftsCount);\n        uint256 nftsIndex = 0;\n        for (uint256 i = 0; i < nftCount; i++) {\n            if (_idToNFT[i + 1].onSale) {\n                nfts[nftsIndex] = _idToNFT[i + 1];\n                nftsIndex++;\n            }\n        }\n        return nfts;\n}\n    function getMyNfts() public view returns (NFT[] memory) {\n        uint256 nftCount = _nftCount.current();\n        uint256 myNftCount = 0;\n        for (uint256 i = 0; i < nftCount; i++) {\n            if (_idToNFT[i + 1].owner == msg.sender) {\n                myNftCount++;\n            }\n        }\n\n        NFT[] memory nfts = new NFT[](myNftCount);\n        uint256 nftsIndex = 0;\n        for (uint256 i = 0; i < nftCount; i++) {\n            if (_idToNFT[i + 1].owner == msg.sender) {\n                nfts[nftsIndex] = _idToNFT[i + 1];\n                nftsIndex++;\n            }\n        }\n        return nfts;\n    }\n\n    function getMyListedNfts() public view returns (NFT[] memory) {\n        uint256 nftCount = _nftCount.current();\n        uint256 myListedNftCount = 0;\n        for (uint256 i = 0; i < nftCount; i++) {\n            if (\n                _idToNFT[i + 1].seller == msg.sender && _idToNFT[i + 1].onSale\n            ) {\n                myListedNftCount++;\n            }\n        }\n\n        NFT[] memory nfts = new NFT[](myListedNftCount);\n        uint256 nftsIndex = 0;\n        for (uint256 i = 0; i < nftCount; i++) {\n            if (\n                _idToNFT[i + 1].seller == msg.sender && _idToNFT[i + 1].onSale\n            ) {\n                nfts[nftsIndex] = _idToNFT[i + 1];\n                nftsIndex++;\n            }\n        }\n        return nfts;\n    }\n}\n",
  "sourcePath": "C:\\Users\\raman\\OneDrive\\Documents\\GitHub\\Meta_DeCentraland\\Meta_DeCenterland\\contracts\\Marketplace.sol",
  "compiler": {
    "name": "solc",
    "version": "0.8.13+commit.abaa5c0e.Emscripten.clang"
  },
  "schemaVersion": "3.4.11",
  "updatedAt": "2023-03-01T22:03:14.168Z",
  "devdoc": {
    "kind": "dev",
    "methods": {},
    "version": 1
  },
  "userdoc": {
    "kind": "user",
    "methods": {},
    "version": 1
  }
}