{
  "contractName": "Marketplace",
  "abi": [
    {
      "inputs": [],
      "stateMutability": "nonpayable",
      "type": "constructor"
    },
    {
      "anonymous": false,
      "inputs": [
        {
          "indexed": true,
          "internalType": "address",
          "name": "owner",
          "type": "address"
        },
        {
          "indexed": true,
          "internalType": "address",
          "name": "seller",
          "type": "address"
        },
        {
          "indexed": false,
          "internalType": "uint256",
          "name": "price",
          "type": "uint256"
        }
      ],
      "name": "NFTDetailsUpdated",
      "type": "event"
    },
    {
      "anonymous": false,
      "inputs": [
        {
          "indexed": false,
          "internalType": "address",
          "name": "nftContract",
          "type": "address"
        },
        {
          "indexed": false,
          "internalType": "uint256",
          "name": "tokenId",
          "type": "uint256"
        },
        {
          "indexed": false,
          "internalType": "address",
          "name": "seller",
          "type": "address"
        },
        {
          "indexed": false,
          "internalType": "address",
          "name": "owner",
          "type": "address"
        },
        {
          "indexed": false,
          "internalType": "uint256",
          "name": "price",
          "type": "uint256"
        }
      ],
      "name": "NFTListed",
      "type": "event"
    },
    {
      "anonymous": false,
      "inputs": [
        {
          "indexed": false,
          "internalType": "address",
          "name": "nftContract",
          "type": "address"
        },
        {
          "indexed": false,
          "internalType": "uint256",
          "name": "tokenId",
          "type": "uint256"
        },
        {
          "indexed": false,
          "internalType": "address",
          "name": "seller",
          "type": "address"
        },
        {
          "indexed": false,
          "internalType": "address",
          "name": "owner",
          "type": "address"
        },
        {
          "indexed": false,
          "internalType": "uint256",
          "name": "price",
          "type": "uint256"
        }
      ],
      "name": "NFTSold",
      "type": "event"
    },
    {
      "inputs": [],
      "name": "LISTING_FEE",
      "outputs": [
        {
          "internalType": "uint256",
          "name": "",
          "type": "uint256"
        }
      ],
      "stateMutability": "view",
      "type": "function"
    },
    {
      "inputs": [
        {
          "internalType": "address",
          "name": "_nftContract",
          "type": "address"
        },
        {
          "internalType": "uint256",
          "name": "_tokenId",
          "type": "uint256"
        },
        {
          "internalType": "uint256",
          "name": "_price",
          "type": "uint256"
        }
      ],
      "name": "listNft",
      "outputs": [],
      "stateMutability": "payable",
      "type": "function"
    },
    {
      "inputs": [
        {
          "internalType": "address",
          "name": "_nftContract",
          "type": "address"
        },
        {
          "internalType": "uint256",
          "name": "_tokenId",
          "type": "uint256"
        }
      ],
      "name": "buyNft",
      "outputs": [],
      "stateMutability": "payable",
      "type": "function"
    },
    {
      "inputs": [
        {
          "internalType": "uint256",
          "name": "_tokenId",
          "type": "uint256"
        },
        {
          "internalType": "uint256",
          "name": "_newPrice",
          "type": "uint256"
        }
      ],
      "name": "resellNft",
      "outputs": [],
      "stateMutability": "nonpayable",
      "type": "function"
    },
    {
      "inputs": [],
      "name": "getListingFee",
      "outputs": [
        {
          "internalType": "uint256",
          "name": "",
          "type": "uint256"
        }
      ],
      "stateMutability": "view",
      "type": "function"
    },
    {
      "inputs": [],
      "name": "getListedNfts",
      "outputs": [
        {
          "components": [
            {
              "internalType": "address",
              "name": "nftContract",
              "type": "address"
            },
            {
              "internalType": "uint256",
              "name": "tokenId",
              "type": "uint256"
            },
            {
              "internalType": "address payable",
              "name": "seller",
              "type": "address"
            },
            {
              "internalType": "address payable",
              "name": "owner",
              "type": "address"
            },
            {
              "internalType": "uint256",
              "name": "price",
              "type": "uint256"
            },
            {
              "internalType": "bool",
              "name": "onSale",
              "type": "bool"
            }
          ],
          "internalType": "struct Marketplace.NFT[]",
          "name": "",
          "type": "tuple[]"
        }
      ],
      "stateMutability": "view",
      "type": "function"
    },
    {
      "inputs": [],
      "name": "getMyNfts",
      "outputs": [
        {
          "components": [
            {
              "internalType": "address",
              "name": "nftContract",
              "type": "address"
            },
            {
              "internalType": "uint256",
              "name": "tokenId",
              "type": "uint256"
            },
            {
              "internalType": "address payable",
              "name": "seller",
              "type": "address"
            },
            {
              "internalType": "address payable",
              "name": "owner",
              "type": "address"
            },
            {
              "internalType": "uint256",
              "name": "price",
              "type": "uint256"
            },
            {
              "internalType": "bool",
              "name": "onSale",
              "type": "bool"
            }
          ],
          "internalType": "struct Marketplace.NFT[]",
          "name": "",
          "type": "tuple[]"
        }
      ],
      "stateMutability": "view",
      "type": "function"
    },
    {
      "inputs": [],
      "name": "getMyListedNfts",
      "outputs": [
        {
          "components": [
            {
              "internalType": "address",
              "name": "nftContract",
              "type": "address"
            },
            {
              "internalType": "uint256",
              "name": "tokenId",
              "type": "uint256"
            },
            {
              "internalType": "address payable",
              "name": "seller",
              "type": "address"
            },
            {
              "internalType": "address payable",
              "name": "owner",
              "type": "address"
            },
            {
              "internalType": "uint256",
              "name": "price",
              "type": "uint256"
            },
            {
              "internalType": "bool",
              "name": "onSale",
              "type": "bool"
            }
          ],
          "internalType": "struct Marketplace.NFT[]",
          "name": "",
          "type": "tuple[]"
        }
      ],
      "stateMutability": "view",
      "type": "function"
    },
    {
      "inputs": [
        {
          "internalType": "uint256",
          "name": "_tokenId",
          "type": "uint256"
        }
      ],
      "name": "getOwnershipHistory",
      "outputs": [
        {
          "components": [
            {
              "internalType": "address",
              "name": "buyer",
              "type": "address"
            },
            {
              "internalType": "address",
              "name": "seller",
              "type": "address"
            },
            {
              "internalType": "uint256",
              "name": "price",
              "type": "uint256"
            },
            {
              "internalType": "uint256",
              "name": "timestamp",
              "type": "uint256"
            }
          ],
          "internalType": "struct Marketplace.OwnershipHistory[]",
          "name": "",
          "type": "tuple[]"
        }
      ],
      "stateMutability": "view",
      "type": "function"
    },
    {
      "inputs": [
        {
          "internalType": "address",
          "name": "_from",
          "type": "address"
        },
        {
          "internalType": "address",
          "name": "_to",
          "type": "address"
        },
        {
          "internalType": "uint256",
          "name": "_tokenId",
          "type": "uint256"
        }
      ],
      "name": "transferFrom",
      "outputs": [],
      "stateMutability": "nonpayable",
      "type": "function"
    }
  ],
  "bytecode": "0x6080604052655af3107a400060035534801561001a57600080fd5b50600160008190555033600460006101000a81548173ffffffffffffffffffffffffffffffffffffffff021916908373ffffffffffffffffffffffffffffffffffffffff1602179055506128fd806100736000396000f3fe6080604052600436106100915760003560e01c80634ddf4f8f116100595780634ddf4f8f146101695780638d6cb3fb14610185578063b8fe6abe146101b0578063c922b17c146101db578063f1dbaccb146101f757610091565b8063047b07bf146100965780631f4cc4db146100c157806320d748e7146100ec57806323b872dd146101155780632b86ae381461013e575b600080fd5b3480156100a257600080fd5b506100ab610234565b6040516100b89190611d56565b60405180910390f35b3480156100cd57600080fd5b506100d6610549565b6040516100e39190611d56565b60405180910390f35b3480156100f857600080fd5b50610113600480360381019061010e9190611da9565b6108b8565b005b34801561012157600080fd5b5061013c60048036038101906101379190611e15565b610df8565b005b34801561014a57600080fd5b50610153610efb565b6040516101609190611e77565b60405180910390f35b610183600480360381019061017e9190611e92565b610f01565b005b34801561019157600080fd5b5061019a611302565b6040516101a79190611d56565b60405180910390f35b3480156101bc57600080fd5b506101c561153b565b6040516101d29190611e77565b60405180910390f35b6101f560048036038101906101f09190611ed2565b611545565b005b34801561020357600080fd5b5061021e60048036038101906102199190611f25565b611839565b60405161022b9190612056565b60405180910390f35b60606000610242600261196b565b9050600080600190505b8281116102de573373ffffffffffffffffffffffffffffffffffffffff166005600083815260200190815260200160002060030160009054906101000a900473ffffffffffffffffffffffffffffffffffffffff1673ffffffffffffffffffffffffffffffffffffffff16036102cb5781806102c7906120a7565b9250505b80806102d6906120a7565b91505061024c565b5060008167ffffffffffffffff8111156102fb576102fa6120ef565b5b60405190808252806020026020018201604052801561033457816020015b610321611b1c565b8152602001906001900390816103195790505b509050600080600190505b84811161053e573373ffffffffffffffffffffffffffffffffffffffff166005600083815260200190815260200160002060030160009054906101000a900473ffffffffffffffffffffffffffffffffffffffff1673ffffffffffffffffffffffffffffffffffffffff160361052b57600560008281526020019081526020016000206040518060c00160405290816000820160009054906101000a900473ffffffffffffffffffffffffffffffffffffffff1673ffffffffffffffffffffffffffffffffffffffff1673ffffffffffffffffffffffffffffffffffffffff168152602001600182015481526020016002820160009054906101000a900473ffffffffffffffffffffffffffffffffffffffff1673ffffffffffffffffffffffffffffffffffffffff1673ffffffffffffffffffffffffffffffffffffffff1681526020016003820160009054906101000a900473ffffffffffffffffffffffffffffffffffffffff1673ffffffffffffffffffffffffffffffffffffffff1673ffffffffffffffffffffffffffffffffffffffff168152602001600482015481526020016005820160009054906101000a900460ff1615151515815250508383815181106105115761051061211e565b5b60200260200101819052508180610527906120a7565b9250505b8080610536906120a7565b91505061033f565b508194505050505090565b60606000610557600261196b565b9050600080600190505b828111610620573373ffffffffffffffffffffffffffffffffffffffff166005600083815260200190815260200160002060020160009054906101000a900473ffffffffffffffffffffffffffffffffffffffff1673ffffffffffffffffffffffffffffffffffffffff161480156105f957506005600082815260200190815260200160002060050160009054906101000a900460ff165b1561060d578180610609906120a7565b9250505b8080610618906120a7565b915050610561565b5060008167ffffffffffffffff81111561063d5761063c6120ef565b5b60405190808252806020026020018201604052801561067657816020015b610663611b1c565b81526020019060019003908161065b5790505b509050600080600190505b8481116108ad573373ffffffffffffffffffffffffffffffffffffffff166005600083815260200190815260200160002060020160009054906101000a900473ffffffffffffffffffffffffffffffffffffffff1673ffffffffffffffffffffffffffffffffffffffff1614801561071957506005600082815260200190815260200160002060050160009054906101000a900460ff165b1561089a57600560008281526020019081526020016000206040518060c00160405290816000820160009054906101000a900473ffffffffffffffffffffffffffffffffffffffff1673ffffffffffffffffffffffffffffffffffffffff1673ffffffffffffffffffffffffffffffffffffffff168152602001600182015481526020016002820160009054906101000a900473ffffffffffffffffffffffffffffffffffffffff1673ffffffffffffffffffffffffffffffffffffffff1673ffffffffffffffffffffffffffffffffffffffff1681526020016003820160009054906101000a900473ffffffffffffffffffffffffffffffffffffffff1673ffffffffffffffffffffffffffffffffffffffff1673ffffffffffffffffffffffffffffffffffffffff168152602001600482015481526020016005820160009054906101000a900460ff1615151515815250508383815181106108805761087f61211e565b5b60200260200101819052508180610896906120a7565b9250505b80806108a5906120a7565b915050610681565b508194505050505090565b60006005600084815260200190815260200160002090503373ffffffffffffffffffffffffffffffffffffffff168160030160009054906101000a900473ffffffffffffffffffffffffffffffffffffffff1673ffffffffffffffffffffffffffffffffffffffff1614610961576040517f08c379a0000000000000000000000000000000000000000000000000000000008152600401610958906121aa565b60405180910390fd5b8060050160009054906101000a900460ff166109b2576040517f08c379a00000000000000000000000000000000000000000000000000000000081526004016109a99061223c565b60405180910390fd5b600082116109f5576040517f08c379a00000000000000000000000000000000000000000000000000000000081526004016109ec906122a8565b60405180910390fd5b80600401548203610a3b576040517f08c379a0000000000000000000000000000000000000000000000000000000008152600401610a329061233a565b60405180910390fd5b60006064600a84610a4c919061235a565b610a5691906123e3565b90508160000160009054906101000a900473ffffffffffffffffffffffffffffffffffffffff1673ffffffffffffffffffffffffffffffffffffffff166342842e0e308460020160009054906101000a900473ffffffffffffffffffffffffffffffffffffffff16876040518463ffffffff1660e01b8152600401610add93929190612482565b600060405180830381600087803b158015610af757600080fd5b505af1158015610b0b573d6000803e3d6000fd5b5050505060008260030160009054906101000a900473ffffffffffffffffffffffffffffffffffffffff1673ffffffffffffffffffffffffffffffffffffffff1684604051610b59906124ea565b60006040518083038185875af1925050503d8060008114610b96576040519150601f19603f3d011682016040523d82523d6000602084013e610b9b565b606091505b5050905080610bdf576040517f08c379a0000000000000000000000000000000000000000000000000000000008152600401610bd69061254b565b60405180910390fd5b600460009054906101000a900473ffffffffffffffffffffffffffffffffffffffff1673ffffffffffffffffffffffffffffffffffffffff166108fc839081150290604051600060405180830381858888f19350505050158015610c47573d6000803e3d6000fd5b50838360040181905550338360020160006101000a81548173ffffffffffffffffffffffffffffffffffffffff021916908373ffffffffffffffffffffffffffffffffffffffff16021790555060018360050160006101000a81548160ff0219169083151502179055508260020160009054906101000a900473ffffffffffffffffffffffffffffffffffffffff1673ffffffffffffffffffffffffffffffffffffffff168360030160009054906101000a900473ffffffffffffffffffffffffffffffffffffffff1673ffffffffffffffffffffffffffffffffffffffff167fe76dd5ece88bf45dc5ffae9854b1a2d726bc661eec08d7ef036799f19cfa0c128560040154604051610d5a9190611e77565b60405180910390a37fa0c6c0d02d86fdacecbaa5fdf5894bab204e31a778250474108540733a9b8d198360000160009054906101000a900473ffffffffffffffffffffffffffffffffffffffff1684600101548560020160009054906101000a900473ffffffffffffffffffffffffffffffffffffffff16308760040154604051610de995949392919061256b565b60405180910390a15050505050565b6005600082815260200190815260200160002060000160009054906101000a900473ffffffffffffffffffffffffffffffffffffffff1673ffffffffffffffffffffffffffffffffffffffff166323b872dd8484846040518463ffffffff1660e01b8152600401610e6b939291906125be565b600060405180830381600087803b158015610e8557600080fd5b505af1158015610e99573d6000803e3d6000fd5b50505050610ef681836005600085815260200190815260200160002060020160009054906101000a900473ffffffffffffffffffffffffffffffffffffffff16600560008681526020019081526020016000206004015442611979565b505050565b60035481565b610f09611aad565b6000600560008381526020019081526020016000209050600115158160050160009054906101000a900460ff16151514610f78576040517f08c379a0000000000000000000000000000000000000000000000000000000008152600401610f6f9061223c565b60405180910390fd5b6003548160040154610f8a91906125f5565b3414610fcb576040517f08c379a0000000000000000000000000000000000000000000000000000000008152600401610fc2906126bd565b60405180910390fd5b60008160020160009054906101000a900473ffffffffffffffffffffffffffffffffffffffff16905060003390508473ffffffffffffffffffffffffffffffffffffffff166323b872dd308386600101546040518463ffffffff1660e01b815260040161103a93929190612482565b600060405180830381600087803b15801561105457600080fd5b505af1158015611068573d6000803e3d6000fd5b5050505060008273ffffffffffffffffffffffffffffffffffffffff168460040154604051611096906124ea565b60006040518083038185875af1925050503d80600081146110d3576040519150601f19603f3d011682016040523d82523d6000602084013e6110d8565b606091505b505090508061111c576040517f08c379a00000000000000000000000000000000000000000000000000000000081526004016111139061254b565b60405180910390fd5b600460009054906101000a900473ffffffffffffffffffffffffffffffffffffffff1673ffffffffffffffffffffffffffffffffffffffff166108fc6003549081150290604051600060405180830381858888f19350505050158015611186573d6000803e3d6000fd5b50818460030160006101000a81548173ffffffffffffffffffffffffffffffffffffffff021916908373ffffffffffffffffffffffffffffffffffffffff1602179055506111df84600101548385876004015442611979565b7f16f1dbd97e6bf646d429ed186cce832f1f7fd9907814293b83181e9970ab7bd28685600101548585886004015460405161121e9594939291906126dd565b60405180910390a160008460050160006101000a81548160ff02191690831515021790555060056000868152602001908152602001600020600080820160006101000a81549073ffffffffffffffffffffffffffffffffffffffff021916905560018201600090556002820160006101000a81549073ffffffffffffffffffffffffffffffffffffffff02191690556003820160006101000a81549073ffffffffffffffffffffffffffffffffffffffff021916905560048201600090556005820160006101000a81549060ff02191690555050505050506112fe611afc565b5050565b60606000611310600261196b565b905060008167ffffffffffffffff81111561132e5761132d6120ef565b5b60405190808252806020026020018201604052801561136757816020015b611354611b1c565b81526020019060019003908161134c5790505b509050600080600190505b838111611531576005600082815260200190815260200160002060050160009054906101000a900460ff161561151e57600560008281526020019081526020016000206040518060c00160405290816000820160009054906101000a900473ffffffffffffffffffffffffffffffffffffffff1673ffffffffffffffffffffffffffffffffffffffff1673ffffffffffffffffffffffffffffffffffffffff168152602001600182015481526020016002820160009054906101000a900473ffffffffffffffffffffffffffffffffffffffff1673ffffffffffffffffffffffffffffffffffffffff1673ffffffffffffffffffffffffffffffffffffffff1681526020016003820160009054906101000a900473ffffffffffffffffffffffffffffffffffffffff1673ffffffffffffffffffffffffffffffffffffffff1673ffffffffffffffffffffffffffffffffffffffff168152602001600482015481526020016005820160009054906101000a900460ff1615151515815250508383815181106115045761150361211e565b5b6020026020010181905250818061151a906120a7565b9250505b8080611529906120a7565b915050611372565b5081935050505090565b6000600354905090565b61154d611aad565b60008111611590576040517f08c379a00000000000000000000000000000000000000000000000000000000081526004016115879061277c565b60405180910390fd5b60035434146115d4576040517f08c379a00000000000000000000000000000000000000000000000000000000081526004016115cb906127e8565b60405180910390fd5b8273ffffffffffffffffffffffffffffffffffffffff166323b872dd3330856040518463ffffffff1660e01b8152600401611611939291906125be565b600060405180830381600087803b15801561162b57600080fd5b505af115801561163f573d6000803e3d6000fd5b5050505061164d6002611b06565b6000611659600261196b565b90506040518060c001604052808573ffffffffffffffffffffffffffffffffffffffff1681526020018281526020013373ffffffffffffffffffffffffffffffffffffffff1681526020013073ffffffffffffffffffffffffffffffffffffffff168152602001838152602001600115158152506005600083815260200190815260200160002060008201518160000160006101000a81548173ffffffffffffffffffffffffffffffffffffffff021916908373ffffffffffffffffffffffffffffffffffffffff1602179055506020820151816001015560408201518160020160006101000a81548173ffffffffffffffffffffffffffffffffffffffff021916908373ffffffffffffffffffffffffffffffffffffffff16021790555060608201518160030160006101000a81548173ffffffffffffffffffffffffffffffffffffffff021916908373ffffffffffffffffffffffffffffffffffffffff1602179055506080820151816004015560a08201518160050160006101000a81548160ff0219169083151502179055509050507fa0c6c0d02d86fdacecbaa5fdf5894bab204e31a778250474108540733a9b8d198482333086604051611823959493929190612808565b60405180910390a150611834611afc565b505050565b606060066000838152602001908152602001600020805480602002602001604051908101604052809291908181526020016000905b8282101561196057838290600052602060002090600402016040518060800160405290816000820160009054906101000a900473ffffffffffffffffffffffffffffffffffffffff1673ffffffffffffffffffffffffffffffffffffffff1673ffffffffffffffffffffffffffffffffffffffff1681526020016001820160009054906101000a900473ffffffffffffffffffffffffffffffffffffffff1673ffffffffffffffffffffffffffffffffffffffff1673ffffffffffffffffffffffffffffffffffffffff168152602001600282015481526020016003820154815250508152602001906001019061186e565b505050509050919050565b600081600001549050919050565b6006600086815260200190815260200160002060405180608001604052808673ffffffffffffffffffffffffffffffffffffffff1681526020018573ffffffffffffffffffffffffffffffffffffffff16815260200184815260200183815250908060018154018082558091505060019003906000526020600020906004020160009091909190915060008201518160000160006101000a81548173ffffffffffffffffffffffffffffffffffffffff021916908373ffffffffffffffffffffffffffffffffffffffff16021790555060208201518160010160006101000a81548173ffffffffffffffffffffffffffffffffffffffff021916908373ffffffffffffffffffffffffffffffffffffffff160217905550604082015181600201556060820151816003015550505050505050565b600260005403611af2576040517f08c379a0000000000000000000000000000000000000000000000000000000008152600401611ae9906128a7565b60405180910390fd5b6002600081905550565b6001600081905550565b6001816000016000828254019250508190555050565b6040518060c00160405280600073ffffffffffffffffffffffffffffffffffffffff16815260200160008152602001600073ffffffffffffffffffffffffffffffffffffffff168152602001600073ffffffffffffffffffffffffffffffffffffffff168152602001600081526020016000151581525090565b600081519050919050565b600082825260208201905092915050565b6000819050602082019050919050565b600073ffffffffffffffffffffffffffffffffffffffff82169050919050565b6000611bed82611bc2565b9050919050565b611bfd81611be2565b82525050565b6000819050919050565b611c1681611c03565b82525050565b6000611c2782611bc2565b9050919050565b611c3781611c1c565b82525050565b60008115159050919050565b611c5281611c3d565b82525050565b60c082016000820151611c6e6000850182611bf4565b506020820151611c816020850182611c0d565b506040820151611c946040850182611c2e565b506060820151611ca76060850182611c2e565b506080820151611cba6080850182611c0d565b5060a0820151611ccd60a0850182611c49565b50505050565b6000611cdf8383611c58565b60c08301905092915050565b6000602082019050919050565b6000611d0382611b96565b611d0d8185611ba1565b9350611d1883611bb2565b8060005b83811015611d49578151611d308882611cd3565b9750611d3b83611ceb565b925050600181019050611d1c565b5085935050505092915050565b60006020820190508181036000830152611d708184611cf8565b905092915050565b600080fd5b611d8681611c03565b8114611d9157600080fd5b50565b600081359050611da381611d7d565b92915050565b60008060408385031215611dc057611dbf611d78565b5b6000611dce85828601611d94565b9250506020611ddf85828601611d94565b9150509250929050565b611df281611be2565b8114611dfd57600080fd5b50565b600081359050611e0f81611de9565b92915050565b600080600060608486031215611e2e57611e2d611d78565b5b6000611e3c86828701611e00565b9350506020611e4d86828701611e00565b9250506040611e5e86828701611d94565b9150509250925092565b611e7181611c03565b82525050565b6000602082019050611e8c6000830184611e68565b92915050565b60008060408385031215611ea957611ea8611d78565b5b6000611eb785828601611e00565b9250506020611ec885828601611d94565b9150509250929050565b600080600060608486031215611eeb57611eea611d78565b5b6000611ef986828701611e00565b9350506020611f0a86828701611d94565b9250506040611f1b86828701611d94565b9150509250925092565b600060208284031215611f3b57611f3a611d78565b5b6000611f4984828501611d94565b91505092915050565b600081519050919050565b600082825260208201905092915050565b6000819050602082019050919050565b608082016000820151611f946000850182611bf4565b506020820151611fa76020850182611bf4565b506040820151611fba6040850182611c0d565b506060820151611fcd6060850182611c0d565b50505050565b6000611fdf8383611f7e565b60808301905092915050565b6000602082019050919050565b600061200382611f52565b61200d8185611f5d565b935061201883611f6e565b8060005b838110156120495781516120308882611fd3565b975061203b83611feb565b92505060018101905061201c565b5085935050505092915050565b600060208201905081810360008301526120708184611ff8565b905092915050565b7f4e487b7100000000000000000000000000000000000000000000000000000000600052601160045260246000fd5b60006120b282611c03565b91507fffffffffffffffffffffffffffffffffffffffffffffffffffffffffffffffff82036120e4576120e3612078565b5b600182019050919050565b7f4e487b7100000000000000000000000000000000000000000000000000000000600052604160045260246000fd5b7f4e487b7100000000000000000000000000000000000000000000000000000000600052603260045260246000fd5b600082825260208201905092915050565b7f596f7520646f206e6f74206f776e2074686973204e4654000000000000000000600082015250565b600061219460178361214d565b915061219f8261215e565b602082019050919050565b600060208201905081810360008301526121c381612187565b9050919050565b7f4e4654206e6f742063757272656e746c79206c697374656420666f722073616c60008201527f6500000000000000000000000000000000000000000000000000000000000000602082015250565b600061222660218361214d565b9150612231826121ca565b604082019050919050565b6000602082019050818103600083015261225581612219565b9050919050565b7f4e6577207072696365206d7573742062652067726561746572207468616e2030600082015250565b600061229260208361214d565b915061229d8261225c565b602082019050919050565b600060208201905081810360008301526122c181612285565b9050919050565b7f4e6577207072696365206d75737420626520646966666572656e742066726f6d60008201527f2063757272656e74207072696365000000000000000000000000000000000000602082015250565b6000612324602e8361214d565b915061232f826122c8565b604082019050919050565b6000602082019050818103600083015261235381612317565b9050919050565b600061236582611c03565b915061237083611c03565b9250817fffffffffffffffffffffffffffffffffffffffffffffffffffffffffffffffff04831182151516156123a9576123a8612078565b5b828202905092915050565b7f4e487b7100000000000000000000000000000000000000000000000000000000600052601260045260246000fd5b60006123ee82611c03565b91506123f983611c03565b925082612409576124086123b4565b5b828204905092915050565b61241d81611be2565b82525050565b6000819050919050565b600061244861244361243e84611bc2565b612423565b611bc2565b9050919050565b600061245a8261242d565b9050919050565b600061246c8261244f565b9050919050565b61247c81612461565b82525050565b60006060820190506124976000830186612414565b6124a46020830185612473565b6124b16040830184611e68565b949350505050565b600081905092915050565b50565b60006124d46000836124b9565b91506124df826124c4565b600082019050919050565b60006124f5826124c7565b9150819050919050565b7f4661696c656420746f2073656e6420657468657220746f2073656c6c65720000600082015250565b6000612535601e8361214d565b9150612540826124ff565b602082019050919050565b6000602082019050818103600083015261256481612528565b9050919050565b600060a0820190506125806000830188612414565b61258d6020830187611e68565b61259a6040830186612473565b6125a76060830185612414565b6125b46080830184611e68565b9695505050505050565b60006060820190506125d36000830186612414565b6125e06020830185612414565b6125ed6040830184611e68565b949350505050565b600061260082611c03565b915061260b83611c03565b9250827fffffffffffffffffffffffffffffffffffffffffffffffffffffffffffffffff038211156126405761263f612078565b5b828201905092915050565b7f506c656173652073656e642074686520657861637420616d6f756e74206f662060008201527f657468657220726571756972656420746f2062757920746865204e4654000000602082015250565b60006126a7603d8361214d565b91506126b28261264b565b604082019050919050565b600060208201905081810360008301526126d68161269a565b9050919050565b600060a0820190506126f26000830188612414565b6126ff6020830187611e68565b61270c6040830186612473565b6127196060830185612473565b6127266080830184611e68565b9695505050505050565b7f5072696365206d757374206265206174206c6561737420312077656900000000600082015250565b6000612766601c8361214d565b915061277182612730565b602082019050919050565b6000602082019050818103600083015261279581612759565b9050919050565b7f4e6f7420656e6f75676820657468657220666f72206c697374696e6720666565600082015250565b60006127d260208361214d565b91506127dd8261279c565b602082019050919050565b60006020820190508181036000830152612801816127c5565b9050919050565b600060a08201905061281d6000830188612414565b61282a6020830187611e68565b6128376040830186612414565b6128446060830185612414565b6128516080830184611e68565b9695505050505050565b7f5265656e7472616e637947756172643a207265656e7472616e742063616c6c00600082015250565b6000612891601f8361214d565b915061289c8261285b565b602082019050919050565b600060208201905081810360008301526128c081612884565b905091905056fea2646970667358221220be34672a8a24f44efaaa0e01427ca57bdefbea10c5749057e6270ec2818340bf64736f6c634300080d0033",
  "immutableReferences": {},
  "source": "// SPDX-License-Identifier: MIT\r\n\r\npragma solidity ^0.8.13;\r\n\r\nimport \"@openzeppelin/contracts/utils/Counters.sol\";\r\nimport \"@openzeppelin/contracts/token/ERC721/IERC721.sol\";\r\nimport \"@openzeppelin/contracts/security/ReentrancyGuard.sol\";\r\n\r\ncontract Marketplace is ReentrancyGuard {\r\n    using Counters for Counters.Counter;\r\n    Counters.Counter private _nftsSold;\r\n    Counters.Counter private _tokenIdCounter;\r\n    uint256 public LISTING_FEE = 0.0001 ether;\r\n    address payable private _marketOwner;\r\n    mapping(uint256 => NFT) private _idToNFT;\r\n    struct NFT {\r\n        address nftContract;\r\n        uint256 tokenId;\r\n        address payable seller;\r\n        address payable owner;\r\n        uint256 price;\r\n        bool onSale;\r\n    }\r\n    event NFTListed(\r\n        address nftContract,\r\n        uint256 tokenId,\r\n        address seller,\r\n        address owner,\r\n        uint256 price\r\n    );\r\n    event NFTSold(\r\n        address nftContract,\r\n        uint256 tokenId,\r\n        address seller,\r\n        address owner,\r\n        uint256 price\r\n    );\r\n    struct OwnershipHistory {\r\n        address buyer;\r\n        address seller;\r\n        uint256 price;\r\n        uint256 timestamp;\r\n    }\r\n\r\n\r\n    constructor() {\r\n        _marketOwner = payable(msg.sender);\r\n    }\r\n\r\n    function listNft(\r\n        address _nftContract,\r\n        uint256 _tokenId,\r\n        uint256 _price\r\n    ) public payable nonReentrant {\r\n        require(_price > 0, \"Price must be at least 1 wei\");\r\n        require(msg.value == LISTING_FEE, \"Not enough ether for listing fee\");\r\n\r\n        IERC721(_nftContract).transferFrom(msg.sender, address(this), _tokenId);\r\n\r\n        _tokenIdCounter.increment();\r\n        uint256 tokenId = _tokenIdCounter.current();\r\n\r\n        _idToNFT[tokenId] = NFT(\r\n            _nftContract,\r\n            tokenId,\r\n            payable(msg.sender),\r\n            payable(address(this)),\r\n            _price,\r\n            true\r\n        );\r\n\r\n        emit NFTListed(_nftContract, tokenId, msg.sender, address(this), _price);\r\n    }\r\n\r\n    event NFTDetailsUpdated(address indexed owner, address indexed seller, uint256 price);\r\n\r\n\r\n  function buyNft(address _nftContract, uint256 _tokenId) public payable nonReentrant {\r\n    NFT storage nft = _idToNFT[_tokenId];\r\n    require(nft.onSale == true, \"NFT not currently listed for sale\");\r\n    require(\r\n        msg.value == nft.price + LISTING_FEE,\r\n        \"Please send the exact amount of ether required to buy the NFT\"\r\n    );\r\n\r\n    address payable seller = nft.seller;\r\n    address payable buyer = payable(msg.sender);\r\n\r\n    IERC721(_nftContract).transferFrom(address(this), buyer, nft.tokenId);\r\n\r\n    (bool sent, ) = seller.call{value: nft.price}(\"\");\r\n    require(sent, \"Failed to send ether to seller\");\r\n\r\n    _marketOwner.transfer(LISTING_FEE);\r\n    nft.owner = buyer;\r\n\r\n    // Save the ownership history for the NFT\r\n    addOwnershipHistory(nft.tokenId, buyer, seller, nft.price, block.timestamp);\r\n\r\n    emit NFTSold(_nftContract, nft.tokenId, seller, buyer, nft.price);\r\n\r\n    // Set the onSale variable to false\r\n    nft.onSale = false;\r\n\r\n    // Remove the NFT from the marketplace\r\n    delete _idToNFT[_tokenId];\r\n}\r\n\r\n\r\n\r\n    \r\nfunction resellNft(uint256 _tokenId, uint256 _newPrice) external {\r\n        // Get the NFT struct for the specified token ID\r\n        NFT storage nft = _idToNFT[_tokenId];\r\n\r\n        // Ensure that the caller is the current owner of the NFT\r\n        require(nft.owner == msg.sender, \"You do not own this NFT\");\r\n\r\n        // Ensure that the NFT is currently on sale\r\n        require(nft.onSale, \"NFT not currently listed for sale\");\r\n\r\n        // Ensure that the new price is greater than 0\r\n        require(_newPrice > 0, \"New price must be greater than 0\");\r\n\r\n        // Ensure that the new price is different from the current price\r\n        require(_newPrice != nft.price, \"New price must be different from current price\");\r\n\r\n        // Calculate the commission\r\n        uint256 commission = (_newPrice * 10) / 100;\r\n\r\n        // Transfer the NFT back to the seller\r\n        IERC721(nft.nftContract).safeTransferFrom(address(this), nft.seller, _tokenId);\r\n\r\n        // Transfer the funds from the buyer to the seller\r\n        (bool sent, ) = nft.owner.call{value: _newPrice}(\"\");\r\n        require(sent, \"Failed to send ether to seller\");\r\n\r\n        // Transfer the commission to the owner of the marketplace contract\r\n        _marketOwner.transfer(commission);\r\n\r\n        // Update the NFT struct with the new price and seller\r\n        nft.price = _newPrice;\r\n        nft.seller = payable(msg.sender);\r\n        nft.onSale = true;\r\n\r\n        emit NFTDetailsUpdated(nft.owner, nft.seller, nft.price);\r\n        emit NFTListed(nft.nftContract, nft.tokenId, nft.seller, address(this), nft.price);\r\n    }\r\n\r\n\r\n    function getListingFee() public view returns (uint256) {\r\n        return LISTING_FEE;\r\n    }\r\n\r\n    function getListedNfts() public view returns (NFT[] memory) {\r\n        uint256 nftCount = _tokenIdCounter.current();\r\n\r\n        NFT[] memory nfts = new NFT[](nftCount);\r\n        uint256 nftsIndex = 0;\r\n        for (uint256 i = 1; i <= nftCount; i++) {\r\n            if (_idToNFT[i].onSale) {\r\n                nfts[nftsIndex] = _idToNFT[i];\r\n                nftsIndex++;\r\n            }\r\n        }\r\n        return nfts;\r\n    }\r\n\r\n    function getMyNfts() public view returns (NFT[] memory) {\r\n        uint256 nftCount = _tokenIdCounter.current();\r\n        uint256 myNftCount = 0;\r\n        for (uint256 i = 1; i <= nftCount; i++) {\r\n            if (_idToNFT[i].owner == msg.sender) {\r\n                myNftCount++;\r\n            }\r\n        }\r\n\r\n        NFT[] memory nfts = new NFT[](myNftCount);\r\n        uint256 nftsIndex = 0;\r\n        for (uint256 i = 1; i <= nftCount; i++) {\r\n            if (_idToNFT[i].owner == msg.sender) {\r\n                nfts[nftsIndex] = _idToNFT[i];\r\n                nftsIndex++;\r\n            }\r\n        }\r\n        return nfts;\r\n    }\r\n\r\n    function getMyListedNfts() public view returns (NFT[] memory) {\r\n        uint256 nftCount = _tokenIdCounter.current();\r\n        uint256 myListedNftCount = 0;\r\n        for (uint256 i = 1; i <= nftCount; i++) {\r\n            if (\r\n                _idToNFT[i].seller == msg.sender && _idToNFT[i].onSale\r\n            ) {\r\n                myListedNftCount++;\r\n            }\r\n        }\r\n\r\n        NFT[] memory nfts = new NFT[](myListedNftCount);\r\n        uint256 nftsIndex = 0;\r\n        for (uint256 i = 1; i <= nftCount; i++) {\r\n            if (\r\n                _idToNFT[i].seller == msg.sender && _idToNFT[i].onSale\r\n            ) {\r\n                nfts[nftsIndex] = _idToNFT[i];\r\n                nftsIndex++;\r\n            }\r\n        }\r\n        return nfts;\r\n    }\r\n    mapping(uint256 => OwnershipHistory[]) private _nftOwnershipHistory;\r\n\r\n    function addOwnershipHistory(uint256 _tokenId, address _buyer, address _seller, uint256 _price, uint256 _timestamp) private {\r\n        _nftOwnershipHistory[_tokenId].push(OwnershipHistory(_buyer, _seller, _price, _timestamp));\r\n    }\r\n\r\n    function getOwnershipHistory(uint256 _tokenId) public view returns (OwnershipHistory[] memory) {\r\n        return _nftOwnershipHistory[_tokenId];\r\n    }\r\n\r\n\r\n   function transferFrom(address _from, address _to, uint256 _tokenId) public {\r\n        // Call the transferFrom function from the ERC721 contract\r\n        IERC721(_idToNFT[_tokenId].nftContract).transferFrom(_from, _to, _tokenId);\r\n\r\n        // Add the new owner to the ownership history\r\n        addOwnershipHistory(\r\n            _tokenId, \r\n            _to, \r\n            _idToNFT[_tokenId].seller, \r\n            _idToNFT[_tokenId].price, \r\n            block.timestamp\r\n        );\r\n    }\r\n}",
  "sourcePath": "C:\\Users\\raman\\OneDrive\\Documents\\GitHub\\Meta_DeCentraland\\Meta_DeCenterland\\contracts\\Marketplace.sol",
  "compiler": {
    "name": "solc",
    "version": "0.8.13+commit.abaa5c0e.Emscripten.clang"
  },
  "schemaVersion": "3.4.11",
  "updatedAt": "2023-03-05T14:31:35.385Z",
  "devdoc": {
    "kind": "dev",
    "methods": {},
    "version": 1
  },
  "userdoc": {
    "kind": "user",
    "methods": {},
    "version": 1
  }
}