{
  "contractName": "Marketplace",
  "abi": [
    {
      "inputs": [],
      "stateMutability": "nonpayable",
      "type": "constructor"
    },
    {
      "anonymous": false,
      "inputs": [
        {
          "indexed": true,
          "internalType": "address",
          "name": "owner",
          "type": "address"
        },
        {
          "indexed": true,
          "internalType": "address",
          "name": "seller",
          "type": "address"
        },
        {
          "indexed": false,
          "internalType": "uint256",
          "name": "price",
          "type": "uint256"
        }
      ],
      "name": "NFTDetailsUpdated",
      "type": "event"
    },
    {
      "anonymous": false,
      "inputs": [
        {
          "indexed": false,
          "internalType": "address",
          "name": "nftContract",
          "type": "address"
        },
        {
          "indexed": false,
          "internalType": "uint256",
          "name": "tokenId",
          "type": "uint256"
        },
        {
          "indexed": false,
          "internalType": "address",
          "name": "seller",
          "type": "address"
        },
        {
          "indexed": false,
          "internalType": "address",
          "name": "owner",
          "type": "address"
        },
        {
          "indexed": false,
          "internalType": "uint256",
          "name": "price",
          "type": "uint256"
        }
      ],
      "name": "NFTListed",
      "type": "event"
    },
    {
      "anonymous": false,
      "inputs": [
        {
          "indexed": false,
          "internalType": "address",
          "name": "nftContract",
          "type": "address"
        },
        {
          "indexed": false,
          "internalType": "uint256",
          "name": "tokenId",
          "type": "uint256"
        },
        {
          "indexed": false,
          "internalType": "address",
          "name": "seller",
          "type": "address"
        },
        {
          "indexed": false,
          "internalType": "address",
          "name": "owner",
          "type": "address"
        },
        {
          "indexed": false,
          "internalType": "uint256",
          "name": "price",
          "type": "uint256"
        }
      ],
      "name": "NFTSold",
      "type": "event"
    },
    {
      "inputs": [],
      "name": "LISTING_FEE",
      "outputs": [
        {
          "internalType": "uint256",
          "name": "",
          "type": "uint256"
        }
      ],
      "stateMutability": "view",
      "type": "function"
    },
    {
      "inputs": [
        {
          "internalType": "address",
          "name": "_nftContract",
          "type": "address"
        },
        {
          "internalType": "uint256",
          "name": "_tokenId",
          "type": "uint256"
        },
        {
          "internalType": "uint256",
          "name": "_price",
          "type": "uint256"
        }
      ],
      "name": "listNft",
      "outputs": [],
      "stateMutability": "payable",
      "type": "function"
    },
    {
      "inputs": [
        {
          "internalType": "address",
          "name": "_nftContract",
          "type": "address"
        },
        {
          "internalType": "uint256",
          "name": "_tokenId",
          "type": "uint256"
        }
      ],
      "name": "buyNft",
      "outputs": [],
      "stateMutability": "payable",
      "type": "function"
    },
    {
      "inputs": [
        {
          "internalType": "uint256",
          "name": "_tokenId",
          "type": "uint256"
        },
        {
          "internalType": "uint256",
          "name": "_newPrice",
          "type": "uint256"
        }
      ],
      "name": "resellNft",
      "outputs": [],
      "stateMutability": "nonpayable",
      "type": "function"
    },
    {
      "inputs": [],
      "name": "getListingFee",
      "outputs": [
        {
          "internalType": "uint256",
          "name": "",
          "type": "uint256"
        }
      ],
      "stateMutability": "view",
      "type": "function"
    },
    {
      "inputs": [],
      "name": "getListedNfts",
      "outputs": [
        {
          "components": [
            {
              "internalType": "address",
              "name": "nftContract",
              "type": "address"
            },
            {
              "internalType": "uint256",
              "name": "tokenId",
              "type": "uint256"
            },
            {
              "internalType": "address payable",
              "name": "seller",
              "type": "address"
            },
            {
              "internalType": "address payable",
              "name": "owner",
              "type": "address"
            },
            {
              "internalType": "uint256",
              "name": "price",
              "type": "uint256"
            },
            {
              "internalType": "bool",
              "name": "onSale",
              "type": "bool"
            }
          ],
          "internalType": "struct Marketplace.NFT[]",
          "name": "",
          "type": "tuple[]"
        }
      ],
      "stateMutability": "view",
      "type": "function"
    },
    {
      "inputs": [],
      "name": "getMyNfts",
      "outputs": [
        {
          "components": [
            {
              "internalType": "address",
              "name": "nftContract",
              "type": "address"
            },
            {
              "internalType": "uint256",
              "name": "tokenId",
              "type": "uint256"
            },
            {
              "internalType": "address payable",
              "name": "seller",
              "type": "address"
            },
            {
              "internalType": "address payable",
              "name": "owner",
              "type": "address"
            },
            {
              "internalType": "uint256",
              "name": "price",
              "type": "uint256"
            },
            {
              "internalType": "bool",
              "name": "onSale",
              "type": "bool"
            }
          ],
          "internalType": "struct Marketplace.NFT[]",
          "name": "",
          "type": "tuple[]"
        }
      ],
      "stateMutability": "view",
      "type": "function"
    },
    {
      "inputs": [],
      "name": "getMyListedNfts",
      "outputs": [
        {
          "components": [
            {
              "internalType": "address",
              "name": "nftContract",
              "type": "address"
            },
            {
              "internalType": "uint256",
              "name": "tokenId",
              "type": "uint256"
            },
            {
              "internalType": "address payable",
              "name": "seller",
              "type": "address"
            },
            {
              "internalType": "address payable",
              "name": "owner",
              "type": "address"
            },
            {
              "internalType": "uint256",
              "name": "price",
              "type": "uint256"
            },
            {
              "internalType": "bool",
              "name": "onSale",
              "type": "bool"
            }
          ],
          "internalType": "struct Marketplace.NFT[]",
          "name": "",
          "type": "tuple[]"
        }
      ],
      "stateMutability": "view",
      "type": "function"
    }
  ],
  "bytecode": "0x6080604052655af3107a400060035534801561001a57600080fd5b50600160008190555033600460006101000a81548173ffffffffffffffffffffffffffffffffffffffff021916908373ffffffffffffffffffffffffffffffffffffffff16021790555061235d806100736000396000f3fe60806040526004361061007b5760003560e01c80634ddf4f8f1161004e5780634ddf4f8f1461012a5780638d6cb3fb14610146578063b8fe6abe14610171578063c922b17c1461019c5761007b565b8063047b07bf146100805780631f4cc4db146100ab57806320d748e7146100d65780632b86ae38146100ff575b600080fd5b34801561008c57600080fd5b506100956101b8565b6040516100a2919061195c565b60405180910390f35b3480156100b757600080fd5b506100c06104cd565b6040516100cd919061195c565b60405180910390f35b3480156100e257600080fd5b506100fd60048036038101906100f891906119af565b61083c565b005b34801561010b57600080fd5b50610114610d7c565b60405161012191906119fe565b60405180910390f35b610144600480360381019061013f9190611a45565b610d82565b005b34801561015257600080fd5b5061015b61116e565b604051610168919061195c565b60405180910390f35b34801561017d57600080fd5b506101866113a7565b60405161019391906119fe565b60405180910390f35b6101b660048036038101906101b19190611a85565b6113b1565b005b606060006101c660026116a5565b9050600080600190505b828111610262573373ffffffffffffffffffffffffffffffffffffffff166005600083815260200190815260200160002060030160009054906101000a900473ffffffffffffffffffffffffffffffffffffffff1673ffffffffffffffffffffffffffffffffffffffff160361024f57818061024b90611b07565b9250505b808061025a90611b07565b9150506101d0565b5060008167ffffffffffffffff81111561027f5761027e611b4f565b5b6040519080825280602002602001820160405280156102b857816020015b6102a5611722565b81526020019060019003908161029d5790505b509050600080600190505b8481116104c2573373ffffffffffffffffffffffffffffffffffffffff166005600083815260200190815260200160002060030160009054906101000a900473ffffffffffffffffffffffffffffffffffffffff1673ffffffffffffffffffffffffffffffffffffffff16036104af57600560008281526020019081526020016000206040518060c00160405290816000820160009054906101000a900473ffffffffffffffffffffffffffffffffffffffff1673ffffffffffffffffffffffffffffffffffffffff1673ffffffffffffffffffffffffffffffffffffffff168152602001600182015481526020016002820160009054906101000a900473ffffffffffffffffffffffffffffffffffffffff1673ffffffffffffffffffffffffffffffffffffffff1673ffffffffffffffffffffffffffffffffffffffff1681526020016003820160009054906101000a900473ffffffffffffffffffffffffffffffffffffffff1673ffffffffffffffffffffffffffffffffffffffff1673ffffffffffffffffffffffffffffffffffffffff168152602001600482015481526020016005820160009054906101000a900460ff16151515158152505083838151811061049557610494611b7e565b5b602002602001018190525081806104ab90611b07565b9250505b80806104ba90611b07565b9150506102c3565b508194505050505090565b606060006104db60026116a5565b9050600080600190505b8281116105a4573373ffffffffffffffffffffffffffffffffffffffff166005600083815260200190815260200160002060020160009054906101000a900473ffffffffffffffffffffffffffffffffffffffff1673ffffffffffffffffffffffffffffffffffffffff1614801561057d57506005600082815260200190815260200160002060050160009054906101000a900460ff165b1561059157818061058d90611b07565b9250505b808061059c90611b07565b9150506104e5565b5060008167ffffffffffffffff8111156105c1576105c0611b4f565b5b6040519080825280602002602001820160405280156105fa57816020015b6105e7611722565b8152602001906001900390816105df5790505b509050600080600190505b848111610831573373ffffffffffffffffffffffffffffffffffffffff166005600083815260200190815260200160002060020160009054906101000a900473ffffffffffffffffffffffffffffffffffffffff1673ffffffffffffffffffffffffffffffffffffffff1614801561069d57506005600082815260200190815260200160002060050160009054906101000a900460ff165b1561081e57600560008281526020019081526020016000206040518060c00160405290816000820160009054906101000a900473ffffffffffffffffffffffffffffffffffffffff1673ffffffffffffffffffffffffffffffffffffffff1673ffffffffffffffffffffffffffffffffffffffff168152602001600182015481526020016002820160009054906101000a900473ffffffffffffffffffffffffffffffffffffffff1673ffffffffffffffffffffffffffffffffffffffff1673ffffffffffffffffffffffffffffffffffffffff1681526020016003820160009054906101000a900473ffffffffffffffffffffffffffffffffffffffff1673ffffffffffffffffffffffffffffffffffffffff1673ffffffffffffffffffffffffffffffffffffffff168152602001600482015481526020016005820160009054906101000a900460ff16151515158152505083838151811061080457610803611b7e565b5b6020026020010181905250818061081a90611b07565b9250505b808061082990611b07565b915050610605565b508194505050505090565b60006005600084815260200190815260200160002090503373ffffffffffffffffffffffffffffffffffffffff168160030160009054906101000a900473ffffffffffffffffffffffffffffffffffffffff1673ffffffffffffffffffffffffffffffffffffffff16146108e5576040517f08c379a00000000000000000000000000000000000000000000000000000000081526004016108dc90611c0a565b60405180910390fd5b8060050160009054906101000a900460ff16610936576040517f08c379a000000000000000000000000000000000000000000000000000000000815260040161092d90611c9c565b60405180910390fd5b60008211610979576040517f08c379a000000000000000000000000000000000000000000000000000000000815260040161097090611d08565b60405180910390fd5b806004015482036109bf576040517f08c379a00000000000000000000000000000000000000000000000000000000081526004016109b690611d9a565b60405180910390fd5b60006064600a846109d09190611dba565b6109da9190611e43565b90508160000160009054906101000a900473ffffffffffffffffffffffffffffffffffffffff1673ffffffffffffffffffffffffffffffffffffffff166342842e0e308460020160009054906101000a900473ffffffffffffffffffffffffffffffffffffffff16876040518463ffffffff1660e01b8152600401610a6193929190611ee2565b600060405180830381600087803b158015610a7b57600080fd5b505af1158015610a8f573d6000803e3d6000fd5b5050505060008260030160009054906101000a900473ffffffffffffffffffffffffffffffffffffffff1673ffffffffffffffffffffffffffffffffffffffff1684604051610add90611f4a565b60006040518083038185875af1925050503d8060008114610b1a576040519150601f19603f3d011682016040523d82523d6000602084013e610b1f565b606091505b5050905080610b63576040517f08c379a0000000000000000000000000000000000000000000000000000000008152600401610b5a90611fab565b60405180910390fd5b600460009054906101000a900473ffffffffffffffffffffffffffffffffffffffff1673ffffffffffffffffffffffffffffffffffffffff166108fc839081150290604051600060405180830381858888f19350505050158015610bcb573d6000803e3d6000fd5b50838360040181905550338360020160006101000a81548173ffffffffffffffffffffffffffffffffffffffff021916908373ffffffffffffffffffffffffffffffffffffffff16021790555060018360050160006101000a81548160ff0219169083151502179055508260020160009054906101000a900473ffffffffffffffffffffffffffffffffffffffff1673ffffffffffffffffffffffffffffffffffffffff168360030160009054906101000a900473ffffffffffffffffffffffffffffffffffffffff1673ffffffffffffffffffffffffffffffffffffffff167fe76dd5ece88bf45dc5ffae9854b1a2d726bc661eec08d7ef036799f19cfa0c128560040154604051610cde91906119fe565b60405180910390a37fa0c6c0d02d86fdacecbaa5fdf5894bab204e31a778250474108540733a9b8d198360000160009054906101000a900473ffffffffffffffffffffffffffffffffffffffff1684600101548560020160009054906101000a900473ffffffffffffffffffffffffffffffffffffffff16308760040154604051610d6d959493929190611fcb565b60405180910390a15050505050565b60035481565b610d8a6116b3565b6000600560008381526020019081526020016000209050600115158160050160009054906101000a900460ff16151514610df9576040517f08c379a0000000000000000000000000000000000000000000000000000000008152600401610df090611c9c565b60405180910390fd5b6003548160040154610e0b919061201e565b3414610e4c576040517f08c379a0000000000000000000000000000000000000000000000000000000008152600401610e43906120e6565b60405180910390fd5b60008160020160009054906101000a900473ffffffffffffffffffffffffffffffffffffffff16905060003390508473ffffffffffffffffffffffffffffffffffffffff166323b872dd308386600101546040518463ffffffff1660e01b8152600401610ebb93929190611ee2565b600060405180830381600087803b158015610ed557600080fd5b505af1158015610ee9573d6000803e3d6000fd5b5050505060008273ffffffffffffffffffffffffffffffffffffffff168460040154604051610f1790611f4a565b60006040518083038185875af1925050503d8060008114610f54576040519150601f19603f3d011682016040523d82523d6000602084013e610f59565b606091505b5050905080610f9d576040517f08c379a0000000000000000000000000000000000000000000000000000000008152600401610f9490611fab565b60405180910390fd5b600460009054906101000a900473ffffffffffffffffffffffffffffffffffffffff1673ffffffffffffffffffffffffffffffffffffffff166108fc6003549081150290604051600060405180830381858888f19350505050158015611007573d6000803e3d6000fd5b50818460030160006101000a81548173ffffffffffffffffffffffffffffffffffffffff021916908373ffffffffffffffffffffffffffffffffffffffff1602179055507f16f1dbd97e6bf646d429ed186cce832f1f7fd9907814293b83181e9970ab7bd28685600101548585886004015460405161108a959493929190612106565b60405180910390a160008460050160006101000a81548160ff02191690831515021790555060056000868152602001908152602001600020600080820160006101000a81549073ffffffffffffffffffffffffffffffffffffffff021916905560018201600090556002820160006101000a81549073ffffffffffffffffffffffffffffffffffffffff02191690556003820160006101000a81549073ffffffffffffffffffffffffffffffffffffffff021916905560048201600090556005820160006101000a81549060ff021916905550505050505061116a611702565b5050565b6060600061117c60026116a5565b905060008167ffffffffffffffff81111561119a57611199611b4f565b5b6040519080825280602002602001820160405280156111d357816020015b6111c0611722565b8152602001906001900390816111b85790505b509050600080600190505b83811161139d576005600082815260200190815260200160002060050160009054906101000a900460ff161561138a57600560008281526020019081526020016000206040518060c00160405290816000820160009054906101000a900473ffffffffffffffffffffffffffffffffffffffff1673ffffffffffffffffffffffffffffffffffffffff1673ffffffffffffffffffffffffffffffffffffffff168152602001600182015481526020016002820160009054906101000a900473ffffffffffffffffffffffffffffffffffffffff1673ffffffffffffffffffffffffffffffffffffffff1673ffffffffffffffffffffffffffffffffffffffff1681526020016003820160009054906101000a900473ffffffffffffffffffffffffffffffffffffffff1673ffffffffffffffffffffffffffffffffffffffff1673ffffffffffffffffffffffffffffffffffffffff168152602001600482015481526020016005820160009054906101000a900460ff1615151515815250508383815181106113705761136f611b7e565b5b6020026020010181905250818061138690611b07565b9250505b808061139590611b07565b9150506111de565b5081935050505090565b6000600354905090565b6113b96116b3565b600081116113fc576040517f08c379a00000000000000000000000000000000000000000000000000000000081526004016113f3906121a5565b60405180910390fd5b6003543414611440576040517f08c379a000000000000000000000000000000000000000000000000000000000815260040161143790612211565b60405180910390fd5b8273ffffffffffffffffffffffffffffffffffffffff166323b872dd3330856040518463ffffffff1660e01b815260040161147d93929190612231565b600060405180830381600087803b15801561149757600080fd5b505af11580156114ab573d6000803e3d6000fd5b505050506114b9600261170c565b60006114c560026116a5565b90506040518060c001604052808573ffffffffffffffffffffffffffffffffffffffff1681526020018281526020013373ffffffffffffffffffffffffffffffffffffffff1681526020013073ffffffffffffffffffffffffffffffffffffffff168152602001838152602001600115158152506005600083815260200190815260200160002060008201518160000160006101000a81548173ffffffffffffffffffffffffffffffffffffffff021916908373ffffffffffffffffffffffffffffffffffffffff1602179055506020820151816001015560408201518160020160006101000a81548173ffffffffffffffffffffffffffffffffffffffff021916908373ffffffffffffffffffffffffffffffffffffffff16021790555060608201518160030160006101000a81548173ffffffffffffffffffffffffffffffffffffffff021916908373ffffffffffffffffffffffffffffffffffffffff1602179055506080820151816004015560a08201518160050160006101000a81548160ff0219169083151502179055509050507fa0c6c0d02d86fdacecbaa5fdf5894bab204e31a778250474108540733a9b8d19848233308660405161168f959493929190612268565b60405180910390a1506116a0611702565b505050565b600081600001549050919050565b6002600054036116f8576040517f08c379a00000000000000000000000000000000000000000000000000000000081526004016116ef90612307565b60405180910390fd5b6002600081905550565b6001600081905550565b6001816000016000828254019250508190555050565b6040518060c00160405280600073ffffffffffffffffffffffffffffffffffffffff16815260200160008152602001600073ffffffffffffffffffffffffffffffffffffffff168152602001600073ffffffffffffffffffffffffffffffffffffffff168152602001600081526020016000151581525090565b600081519050919050565b600082825260208201905092915050565b6000819050602082019050919050565b600073ffffffffffffffffffffffffffffffffffffffff82169050919050565b60006117f3826117c8565b9050919050565b611803816117e8565b82525050565b6000819050919050565b61181c81611809565b82525050565b600061182d826117c8565b9050919050565b61183d81611822565b82525050565b60008115159050919050565b61185881611843565b82525050565b60c08201600082015161187460008501826117fa565b5060208201516118876020850182611813565b50604082015161189a6040850182611834565b5060608201516118ad6060850182611834565b5060808201516118c06080850182611813565b5060a08201516118d360a085018261184f565b50505050565b60006118e5838361185e565b60c08301905092915050565b6000602082019050919050565b60006119098261179c565b61191381856117a7565b935061191e836117b8565b8060005b8381101561194f57815161193688826118d9565b9750611941836118f1565b925050600181019050611922565b5085935050505092915050565b6000602082019050818103600083015261197681846118fe565b905092915050565b600080fd5b61198c81611809565b811461199757600080fd5b50565b6000813590506119a981611983565b92915050565b600080604083850312156119c6576119c561197e565b5b60006119d48582860161199a565b92505060206119e58582860161199a565b9150509250929050565b6119f881611809565b82525050565b6000602082019050611a1360008301846119ef565b92915050565b611a22816117e8565b8114611a2d57600080fd5b50565b600081359050611a3f81611a19565b92915050565b60008060408385031215611a5c57611a5b61197e565b5b6000611a6a85828601611a30565b9250506020611a7b8582860161199a565b9150509250929050565b600080600060608486031215611a9e57611a9d61197e565b5b6000611aac86828701611a30565b9350506020611abd8682870161199a565b9250506040611ace8682870161199a565b9150509250925092565b7f4e487b7100000000000000000000000000000000000000000000000000000000600052601160045260246000fd5b6000611b1282611809565b91507fffffffffffffffffffffffffffffffffffffffffffffffffffffffffffffffff8203611b4457611b43611ad8565b5b600182019050919050565b7f4e487b7100000000000000000000000000000000000000000000000000000000600052604160045260246000fd5b7f4e487b7100000000000000000000000000000000000000000000000000000000600052603260045260246000fd5b600082825260208201905092915050565b7f596f7520646f206e6f74206f776e2074686973204e4654000000000000000000600082015250565b6000611bf4601783611bad565b9150611bff82611bbe565b602082019050919050565b60006020820190508181036000830152611c2381611be7565b9050919050565b7f4e4654206e6f742063757272656e746c79206c697374656420666f722073616c60008201527f6500000000000000000000000000000000000000000000000000000000000000602082015250565b6000611c86602183611bad565b9150611c9182611c2a565b604082019050919050565b60006020820190508181036000830152611cb581611c79565b9050919050565b7f4e6577207072696365206d7573742062652067726561746572207468616e2030600082015250565b6000611cf2602083611bad565b9150611cfd82611cbc565b602082019050919050565b60006020820190508181036000830152611d2181611ce5565b9050919050565b7f4e6577207072696365206d75737420626520646966666572656e742066726f6d60008201527f2063757272656e74207072696365000000000000000000000000000000000000602082015250565b6000611d84602e83611bad565b9150611d8f82611d28565b604082019050919050565b60006020820190508181036000830152611db381611d77565b9050919050565b6000611dc582611809565b9150611dd083611809565b9250817fffffffffffffffffffffffffffffffffffffffffffffffffffffffffffffffff0483118215151615611e0957611e08611ad8565b5b828202905092915050565b7f4e487b7100000000000000000000000000000000000000000000000000000000600052601260045260246000fd5b6000611e4e82611809565b9150611e5983611809565b925082611e6957611e68611e14565b5b828204905092915050565b611e7d816117e8565b82525050565b6000819050919050565b6000611ea8611ea3611e9e846117c8565b611e83565b6117c8565b9050919050565b6000611eba82611e8d565b9050919050565b6000611ecc82611eaf565b9050919050565b611edc81611ec1565b82525050565b6000606082019050611ef76000830186611e74565b611f046020830185611ed3565b611f1160408301846119ef565b949350505050565b600081905092915050565b50565b6000611f34600083611f19565b9150611f3f82611f24565b600082019050919050565b6000611f5582611f27565b9150819050919050565b7f4661696c656420746f2073656e6420657468657220746f2073656c6c65720000600082015250565b6000611f95601e83611bad565b9150611fa082611f5f565b602082019050919050565b60006020820190508181036000830152611fc481611f88565b9050919050565b600060a082019050611fe06000830188611e74565b611fed60208301876119ef565b611ffa6040830186611ed3565b6120076060830185611e74565b61201460808301846119ef565b9695505050505050565b600061202982611809565b915061203483611809565b9250827fffffffffffffffffffffffffffffffffffffffffffffffffffffffffffffffff0382111561206957612068611ad8565b5b828201905092915050565b7f506c656173652073656e642074686520657861637420616d6f756e74206f662060008201527f657468657220726571756972656420746f2062757920746865204e4654000000602082015250565b60006120d0603d83611bad565b91506120db82612074565b604082019050919050565b600060208201905081810360008301526120ff816120c3565b9050919050565b600060a08201905061211b6000830188611e74565b61212860208301876119ef565b6121356040830186611ed3565b6121426060830185611ed3565b61214f60808301846119ef565b9695505050505050565b7f5072696365206d757374206265206174206c6561737420312077656900000000600082015250565b600061218f601c83611bad565b915061219a82612159565b602082019050919050565b600060208201905081810360008301526121be81612182565b9050919050565b7f4e6f7420656e6f75676820657468657220666f72206c697374696e6720666565600082015250565b60006121fb602083611bad565b9150612206826121c5565b602082019050919050565b6000602082019050818103600083015261222a816121ee565b9050919050565b60006060820190506122466000830186611e74565b6122536020830185611e74565b61226060408301846119ef565b949350505050565b600060a08201905061227d6000830188611e74565b61228a60208301876119ef565b6122976040830186611e74565b6122a46060830185611e74565b6122b160808301846119ef565b9695505050505050565b7f5265656e7472616e637947756172643a207265656e7472616e742063616c6c00600082015250565b60006122f1601f83611bad565b91506122fc826122bb565b602082019050919050565b60006020820190508181036000830152612320816122e4565b905091905056fea26469706673582212203dfca46acd80597f8c8b60426944917985d7c195c5a14a686568afbe34abf24864736f6c634300080d0033",
  "immutableReferences": {},
  "source": "// SPDX-License-Identifier: MIT\r\n\r\npragma solidity ^0.8.13;\r\n\r\nimport \"@openzeppelin/contracts/utils/Counters.sol\";\r\nimport \"@openzeppelin/contracts/token/ERC721/IERC721.sol\";\r\nimport \"@openzeppelin/contracts/security/ReentrancyGuard.sol\";\r\n\r\ncontract Marketplace is ReentrancyGuard {\r\n    using Counters for Counters.Counter;\r\n    Counters.Counter private _nftsSold;\r\n    Counters.Counter private _tokenIdCounter;\r\n    uint256 public LISTING_FEE = 0.0001 ether;\r\n    address payable private _marketOwner;\r\n    mapping(uint256 => NFT) private _idToNFT;\r\n    struct NFT {\r\n        address nftContract;\r\n        uint256 tokenId;\r\n        address payable seller;\r\n        address payable owner;\r\n        uint256 price;\r\n        bool onSale;\r\n    }\r\n    event NFTListed(\r\n        address nftContract,\r\n        uint256 tokenId,\r\n        address seller,\r\n        address owner,\r\n        uint256 price\r\n    );\r\n    event NFTSold(\r\n        address nftContract,\r\n        uint256 tokenId,\r\n        address seller,\r\n        address owner,\r\n        uint256 price\r\n    );\r\n\r\n    constructor() {\r\n        _marketOwner = payable(msg.sender);\r\n    }\r\n\r\n    function listNft(\r\n        address _nftContract,\r\n        uint256 _tokenId,\r\n        uint256 _price\r\n    ) public payable nonReentrant {\r\n        require(_price > 0, \"Price must be at least 1 wei\");\r\n        require(msg.value == LISTING_FEE, \"Not enough ether for listing fee\");\r\n\r\n        IERC721(_nftContract).transferFrom(msg.sender, address(this), _tokenId);\r\n\r\n        _tokenIdCounter.increment();\r\n        uint256 tokenId = _tokenIdCounter.current();\r\n\r\n        _idToNFT[tokenId] = NFT(\r\n            _nftContract,\r\n            tokenId,\r\n            payable(msg.sender),\r\n            payable(address(this)),\r\n            _price,\r\n            true\r\n        );\r\n\r\n        emit NFTListed(_nftContract, tokenId, msg.sender, address(this), _price);\r\n    }\r\n\r\n    event NFTDetailsUpdated(address indexed owner, address indexed seller, uint256 price);\r\n\r\n\r\n   function buyNft(address _nftContract, uint256 _tokenId) public payable nonReentrant {\r\n    NFT storage nft = _idToNFT[_tokenId];\r\n    require(nft.onSale == true, \"NFT not currently listed for sale\");\r\n    require(\r\n        msg.value == nft.price + LISTING_FEE,\r\n        \"Please send the exact amount of ether required to buy the NFT\"\r\n    );\r\n\r\n    address payable seller = nft.seller;\r\n    address payable buyer = payable(msg.sender);\r\n\r\n    IERC721(_nftContract).transferFrom(address(this), buyer, nft.tokenId);\r\n\r\n    (bool sent, ) = seller.call{value: nft.price}(\"\");\r\n    require(sent, \"Failed to send ether to seller\");\r\n\r\n    _marketOwner.transfer(LISTING_FEE);\r\n    nft.owner = buyer;\r\n\r\n    emit NFTSold(_nftContract, nft.tokenId, seller, buyer, nft.price);\r\n\r\n    // Set the onSale variable to false\r\n    nft.onSale = false;\r\n\r\n    // Remove the NFT from the marketplace\r\n    delete _idToNFT[_tokenId];\r\n}\r\n\r\n    function resellNft(uint256 _tokenId, uint256 _newPrice) external {\r\n        // Get the NFT struct for the specified token ID\r\n        NFT storage nft = _idToNFT[_tokenId];\r\n\r\n        // Ensure that the caller is the current owner of the NFT\r\n        require(nft.owner == msg.sender, \"You do not own this NFT\");\r\n\r\n        // Ensure that the NFT is currently on sale\r\n        require(nft.onSale, \"NFT not currently listed for sale\");\r\n\r\n        // Ensure that the new price is greater than 0\r\n        require(_newPrice > 0, \"New price must be greater than 0\");\r\n\r\n        // Ensure that the new price is different from the current price\r\n        require(_newPrice != nft.price, \"New price must be different from current price\");\r\n\r\n        // Calculate the commission\r\n        uint256 commission = (_newPrice * 10) / 100;\r\n\r\n        // Transfer the NFT back to the seller\r\n        IERC721(nft.nftContract).safeTransferFrom(address(this), nft.seller, _tokenId);\r\n\r\n        // Transfer the funds from the buyer to the seller\r\n        (bool sent, ) = nft.owner.call{value: _newPrice}(\"\");\r\n        require(sent, \"Failed to send ether to seller\");\r\n\r\n        // Transfer the commission to the owner of the marketplace contract\r\n        _marketOwner.transfer(commission);\r\n\r\n        // Update the NFT struct with the new price and seller\r\n        nft.price = _newPrice;\r\n        nft.seller = payable(msg.sender);\r\n        nft.onSale = true;\r\n\r\n        emit NFTDetailsUpdated(nft.owner, nft.seller, nft.price);\r\n        emit NFTListed(nft.nftContract, nft.tokenId, nft.seller, address(this), nft.price);\r\n    }\r\n\r\n\r\n\r\n\r\n\r\n    function getListingFee() public view returns (uint256) {\r\n        return LISTING_FEE;\r\n    }\r\n\r\n    function getListedNfts() public view returns (NFT[] memory) {\r\n        uint256 nftCount = _tokenIdCounter.current();\r\n\r\n        NFT[] memory nfts = new NFT[](nftCount);\r\n        uint256 nftsIndex = 0;\r\n        for (uint256 i = 1; i <= nftCount; i++) {\r\n            if (_idToNFT[i].onSale) {\r\n                nfts[nftsIndex] = _idToNFT[i];\r\n                nftsIndex++;\r\n            }\r\n        }\r\n        return nfts;\r\n    }\r\n\r\n    function getMyNfts() public view returns (NFT[] memory) {\r\n        uint256 nftCount = _tokenIdCounter.current();\r\n        uint256 myNftCount = 0;\r\n        for (uint256 i = 1; i <= nftCount; i++) {\r\n            if (_idToNFT[i].owner == msg.sender) {\r\n                myNftCount++;\r\n            }\r\n        }\r\n\r\n        NFT[] memory nfts = new NFT[](myNftCount);\r\n        uint256 nftsIndex = 0;\r\n        for (uint256 i = 1; i <= nftCount; i++) {\r\n            if (_idToNFT[i].owner == msg.sender) {\r\n                nfts[nftsIndex] = _idToNFT[i];\r\n                nftsIndex++;\r\n            }\r\n        }\r\n        return nfts;\r\n    }\r\n\r\n    function getMyListedNfts() public view returns (NFT[] memory) {\r\n        uint256 nftCount = _tokenIdCounter.current();\r\n        uint256 myListedNftCount = 0;\r\n        for (uint256 i = 1; i <= nftCount; i++) {\r\n            if (\r\n                _idToNFT[i].seller == msg.sender && _idToNFT[i].onSale\r\n            ) {\r\n                myListedNftCount++;\r\n            }\r\n        }\r\n\r\n        NFT[] memory nfts = new NFT[](myListedNftCount);\r\n        uint256 nftsIndex = 0;\r\n        for (uint256 i = 1; i <= nftCount; i++) {\r\n            if (\r\n                _idToNFT[i].seller == msg.sender && _idToNFT[i].onSale\r\n            ) {\r\n                nfts[nftsIndex] = _idToNFT[i];\r\n                nftsIndex++;\r\n            }\r\n        }\r\n        return nfts;\r\n    }\r\n}\r\n",
  "sourcePath": "C:\\Users\\raman\\OneDrive\\Documents\\GitHub\\Meta_DeCentraland\\Meta_DeCenterland\\contracts\\Marketplace.sol",
  "compiler": {
    "name": "solc",
    "version": "0.8.13+commit.abaa5c0e.Emscripten.clang"
  },
  "schemaVersion": "3.4.11",
  "updatedAt": "2023-03-04T15:59:14.765Z",
  "devdoc": {
    "kind": "dev",
    "methods": {},
    "version": 1
  },
  "userdoc": {
    "kind": "user",
    "methods": {},
    "version": 1
  }
}