{
  "contractName": "FlatNFT",
  "abi": [
    {
      "inputs": [
        {
          "internalType": "address",
          "name": "_marketplaceContract",
          "type": "address"
        }
      ],
      "stateMutability": "nonpayable",
      "type": "constructor"
    },
    {
      "anonymous": false,
      "inputs": [
        {
          "indexed": true,
          "internalType": "address",
          "name": "owner",
          "type": "address"
        },
        {
          "indexed": true,
          "internalType": "address",
          "name": "approved",
          "type": "address"
        },
        {
          "indexed": true,
          "internalType": "uint256",
          "name": "tokenId",
          "type": "uint256"
        }
      ],
      "name": "Approval",
      "type": "event"
    },
    {
      "anonymous": false,
      "inputs": [
        {
          "indexed": true,
          "internalType": "address",
          "name": "owner",
          "type": "address"
        },
        {
          "indexed": true,
          "internalType": "address",
          "name": "operator",
          "type": "address"
        },
        {
          "indexed": false,
          "internalType": "bool",
          "name": "approved",
          "type": "bool"
        }
      ],
      "name": "ApprovalForAll",
      "type": "event"
    },
    {
      "anonymous": false,
      "inputs": [
        {
          "indexed": false,
          "internalType": "uint256",
          "name": "",
          "type": "uint256"
        }
      ],
      "name": "NFTMinted",
      "type": "event"
    },
    {
      "anonymous": false,
      "inputs": [
        {
          "indexed": true,
          "internalType": "address",
          "name": "previousOwner",
          "type": "address"
        },
        {
          "indexed": true,
          "internalType": "address",
          "name": "newOwner",
          "type": "address"
        }
      ],
      "name": "OwnershipTransferred",
      "type": "event"
    },
    {
      "anonymous": false,
      "inputs": [
        {
          "indexed": true,
          "internalType": "address",
          "name": "from",
          "type": "address"
        },
        {
          "indexed": true,
          "internalType": "address",
          "name": "to",
          "type": "address"
        },
        {
          "indexed": true,
          "internalType": "uint256",
          "name": "tokenId",
          "type": "uint256"
        }
      ],
      "name": "Transfer",
      "type": "event"
    },
    {
      "inputs": [
        {
          "internalType": "address",
          "name": "to",
          "type": "address"
        },
        {
          "internalType": "uint256",
          "name": "tokenId",
          "type": "uint256"
        }
      ],
      "name": "approve",
      "outputs": [],
      "stateMutability": "nonpayable",
      "type": "function"
    },
    {
      "inputs": [
        {
          "internalType": "address",
          "name": "owner",
          "type": "address"
        }
      ],
      "name": "balanceOf",
      "outputs": [
        {
          "internalType": "uint256",
          "name": "",
          "type": "uint256"
        }
      ],
      "stateMutability": "view",
      "type": "function",
      "constant": true
    },
    {
      "inputs": [
        {
          "internalType": "uint256",
          "name": "tokenId",
          "type": "uint256"
        }
      ],
      "name": "getApproved",
      "outputs": [
        {
          "internalType": "address",
          "name": "",
          "type": "address"
        }
      ],
      "stateMutability": "view",
      "type": "function",
      "constant": true
    },
    {
      "inputs": [
        {
          "internalType": "address",
          "name": "owner",
          "type": "address"
        },
        {
          "internalType": "address",
          "name": "operator",
          "type": "address"
        }
      ],
      "name": "isApprovedForAll",
      "outputs": [
        {
          "internalType": "bool",
          "name": "",
          "type": "bool"
        }
      ],
      "stateMutability": "view",
      "type": "function",
      "constant": true
    },
    {
      "inputs": [],
      "name": "name",
      "outputs": [
        {
          "internalType": "string",
          "name": "",
          "type": "string"
        }
      ],
      "stateMutability": "view",
      "type": "function",
      "constant": true
    },
    {
      "inputs": [],
      "name": "owner",
      "outputs": [
        {
          "internalType": "address",
          "name": "",
          "type": "address"
        }
      ],
      "stateMutability": "view",
      "type": "function",
      "constant": true
    },
    {
      "inputs": [
        {
          "internalType": "uint256",
          "name": "tokenId",
          "type": "uint256"
        }
      ],
      "name": "ownerOf",
      "outputs": [
        {
          "internalType": "address",
          "name": "",
          "type": "address"
        }
      ],
      "stateMutability": "view",
      "type": "function",
      "constant": true
    },
    {
      "inputs": [],
      "name": "renounceOwnership",
      "outputs": [],
      "stateMutability": "nonpayable",
      "type": "function"
    },
    {
      "inputs": [
        {
          "internalType": "address",
          "name": "from",
          "type": "address"
        },
        {
          "internalType": "address",
          "name": "to",
          "type": "address"
        },
        {
          "internalType": "uint256",
          "name": "tokenId",
          "type": "uint256"
        }
      ],
      "name": "safeTransferFrom",
      "outputs": [],
      "stateMutability": "nonpayable",
      "type": "function"
    },
    {
      "inputs": [
        {
          "internalType": "address",
          "name": "from",
          "type": "address"
        },
        {
          "internalType": "address",
          "name": "to",
          "type": "address"
        },
        {
          "internalType": "uint256",
          "name": "tokenId",
          "type": "uint256"
        },
        {
          "internalType": "bytes",
          "name": "data",
          "type": "bytes"
        }
      ],
      "name": "safeTransferFrom",
      "outputs": [],
      "stateMutability": "nonpayable",
      "type": "function"
    },
    {
      "inputs": [
        {
          "internalType": "address",
          "name": "operator",
          "type": "address"
        },
        {
          "internalType": "bool",
          "name": "approved",
          "type": "bool"
        }
      ],
      "name": "setApprovalForAll",
      "outputs": [],
      "stateMutability": "nonpayable",
      "type": "function"
    },
    {
      "inputs": [],
      "name": "symbol",
      "outputs": [
        {
          "internalType": "string",
          "name": "",
          "type": "string"
        }
      ],
      "stateMutability": "view",
      "type": "function",
      "constant": true
    },
    {
      "inputs": [
        {
          "internalType": "uint256",
          "name": "index",
          "type": "uint256"
        }
      ],
      "name": "tokenByIndex",
      "outputs": [
        {
          "internalType": "uint256",
          "name": "",
          "type": "uint256"
        }
      ],
      "stateMutability": "view",
      "type": "function",
      "constant": true
    },
    {
      "inputs": [
        {
          "internalType": "address",
          "name": "owner",
          "type": "address"
        },
        {
          "internalType": "uint256",
          "name": "index",
          "type": "uint256"
        }
      ],
      "name": "tokenOfOwnerByIndex",
      "outputs": [
        {
          "internalType": "uint256",
          "name": "",
          "type": "uint256"
        }
      ],
      "stateMutability": "view",
      "type": "function",
      "constant": true
    },
    {
      "inputs": [],
      "name": "totalSupply",
      "outputs": [
        {
          "internalType": "uint256",
          "name": "",
          "type": "uint256"
        }
      ],
      "stateMutability": "view",
      "type": "function",
      "constant": true
    },
    {
      "inputs": [
        {
          "internalType": "address",
          "name": "from",
          "type": "address"
        },
        {
          "internalType": "address",
          "name": "to",
          "type": "address"
        },
        {
          "internalType": "uint256",
          "name": "tokenId",
          "type": "uint256"
        }
      ],
      "name": "transferFrom",
      "outputs": [],
      "stateMutability": "nonpayable",
      "type": "function"
    },
    {
      "inputs": [
        {
          "internalType": "address",
          "name": "newOwner",
          "type": "address"
        }
      ],
      "name": "transferOwnership",
      "outputs": [],
      "stateMutability": "nonpayable",
      "type": "function"
    },
    {
      "inputs": [
        {
          "internalType": "address",
          "name": "to",
          "type": "address"
        },
        {
          "internalType": "string",
          "name": "uri",
          "type": "string"
        }
      ],
      "name": "safeMint",
      "outputs": [],
      "stateMutability": "nonpayable",
      "type": "function"
    },
    {
      "inputs": [
        {
          "internalType": "uint256",
          "name": "tokenId",
          "type": "uint256"
        }
      ],
      "name": "tokenURI",
      "outputs": [
        {
          "internalType": "string",
          "name": "",
          "type": "string"
        }
      ],
      "stateMutability": "view",
      "type": "function",
      "constant": true
    },
    {
      "inputs": [
        {
          "internalType": "bytes4",
          "name": "interfaceId",
          "type": "bytes4"
        }
      ],
      "name": "supportsInterface",
      "outputs": [
        {
          "internalType": "bool",
          "name": "",
          "type": "bool"
        }
      ],
      "stateMutability": "view",
      "type": "function",
      "constant": true
    },
    {
      "inputs": [
        {
          "internalType": "address",
          "name": "owner",
          "type": "address"
        }
      ],
      "name": "tokensOfOwner",
      "outputs": [
        {
          "internalType": "uint256[]",
          "name": "",
          "type": "uint256[]"
        }
      ],
      "stateMutability": "view",
      "type": "function",
      "constant": true
    }
  ],
  "bytecode": "0x60806040523480156200001157600080fd5b5060405162003d5038038062003d50833981810160405281019062000037919062000327565b6040518060400160405280601181526020017f4d65746120446543656e7465726c616e640000000000000000000000000000008152506040518060400160405280600481526020017f4d44434c000000000000000000000000000000000000000000000000000000008152508160009080519060200190620000bb9291906200020d565b508060019080519060200190620000d49291906200020d565b505050620000f7620000eb6200013f60201b60201c565b6200014760201b60201c565b80600d60006101000a81548173ffffffffffffffffffffffffffffffffffffffff021916908373ffffffffffffffffffffffffffffffffffffffff16021790555050620003bd565b600033905090565b6000600b60009054906101000a900473ffffffffffffffffffffffffffffffffffffffff16905081600b60006101000a81548173ffffffffffffffffffffffffffffffffffffffff021916908373ffffffffffffffffffffffffffffffffffffffff1602179055508173ffffffffffffffffffffffffffffffffffffffff168173ffffffffffffffffffffffffffffffffffffffff167f8be0079c531659141344cd1fd0a4f28419497f9722a3daafe3b4186f6b6457e060405160405180910390a35050565b8280546200021b9062000388565b90600052602060002090601f0160209004810192826200023f57600085556200028b565b82601f106200025a57805160ff19168380011785556200028b565b828001600101855582156200028b579182015b828111156200028a5782518255916020019190600101906200026d565b5b5090506200029a91906200029e565b5090565b5b80821115620002b95760008160009055506001016200029f565b5090565b600080fd5b600073ffffffffffffffffffffffffffffffffffffffff82169050919050565b6000620002ef82620002c2565b9050919050565b6200030181620002e2565b81146200030d57600080fd5b50565b6000815190506200032181620002f6565b92915050565b60006020828403121562000340576200033f620002bd565b5b6000620003508482850162000310565b91505092915050565b7f4e487b7100000000000000000000000000000000000000000000000000000000600052602260045260246000fd5b60006002820490506001821680620003a157607f821691505b602082108103620003b757620003b662000359565b5b50919050565b61398380620003cd6000396000f3fe608060405234801561001057600080fd5b50600436106101375760003560e01c806370a08231116100b8578063a22cb4651161007c578063a22cb46514610362578063b88d4fde1461037e578063c87b56dd1461039a578063d204c45e146103ca578063e985e9c5146103e6578063f2fde38b1461041657610137565b806370a08231146102bc578063715018a6146102ec5780638462151c146102f65780638da5cb5b1461032657806395d89b411461034457610137565b806323b872dd116100ff57806323b872dd146101f45780632f745c591461021057806342842e0e146102405780634f6ccce71461025c5780636352211e1461028c57610137565b806301ffc9a71461013c57806306fdde031461016c578063081812fc1461018a578063095ea7b3146101ba57806318160ddd146101d6575b600080fd5b610156600480360381019061015191906125f4565b610432565b604051610163919061263c565b60405180910390f35b610174610444565b60405161018191906126f0565b60405180910390f35b6101a4600480360381019061019f9190612748565b6104d6565b6040516101b191906127b6565b60405180910390f35b6101d460048036038101906101cf91906127fd565b61051c565b005b6101de610633565b6040516101eb919061284c565b60405180910390f35b61020e60048036038101906102099190612867565b610640565b005b61022a600480360381019061022591906127fd565b6106a0565b604051610237919061284c565b60405180910390f35b61025a60048036038101906102559190612867565b610745565b005b61027660048036038101906102719190612748565b610765565b604051610283919061284c565b60405180910390f35b6102a660048036038101906102a19190612748565b6107d6565b6040516102b391906127b6565b60405180910390f35b6102d660048036038101906102d191906128ba565b61085c565b6040516102e3919061284c565b60405180910390f35b6102f4610913565b005b610310600480360381019061030b91906128ba565b610927565b60405161031d91906129a5565b60405180910390f35b61032e6109d5565b60405161033b91906127b6565b60405180910390f35b61034c6109ff565b60405161035991906126f0565b60405180910390f35b61037c600480360381019061037791906129f3565b610a91565b005b61039860048036038101906103939190612b68565b610aa7565b005b6103b460048036038101906103af9190612748565b610b09565b6040516103c191906126f0565b60405180910390f35b6103e460048036038101906103df9190612c8c565b610b1b565b005b61040060048036038101906103fb9190612ce8565b610bb8565b60405161040d919061263c565b60405180910390f35b610430600480360381019061042b91906128ba565b610c4c565b005b600061043d82610ccf565b9050919050565b60606000805461045390612d57565b80601f016020809104026020016040519081016040528092919081815260200182805461047f90612d57565b80156104cc5780601f106104a1576101008083540402835291602001916104cc565b820191906000526020600020905b8154815290600101906020018083116104af57829003601f168201915b5050505050905090565b60006104e182610d49565b6004600083815260200190815260200160002060009054906101000a900473ffffffffffffffffffffffffffffffffffffffff169050919050565b6000610527826107d6565b90508073ffffffffffffffffffffffffffffffffffffffff168373ffffffffffffffffffffffffffffffffffffffff1603610597576040517f08c379a000000000000000000000000000000000000000000000000000000000815260040161058e90612dfa565b60405180910390fd5b8073ffffffffffffffffffffffffffffffffffffffff166105b6610d94565b73ffffffffffffffffffffffffffffffffffffffff1614806105e557506105e4816105df610d94565b610bb8565b5b610624576040517f08c379a000000000000000000000000000000000000000000000000000000000815260040161061b90612e8c565b60405180910390fd5b61062e8383610d9c565b505050565b6000600980549050905090565b61065161064b610d94565b82610e55565b610690576040517f08c379a000000000000000000000000000000000000000000000000000000000815260040161068790612f1e565b60405180910390fd5b61069b838383610eea565b505050565b60006106ab8361085c565b82106106ec576040517f08c379a00000000000000000000000000000000000000000000000000000000081526004016106e390612fb0565b60405180910390fd5b600760008473ffffffffffffffffffffffffffffffffffffffff1673ffffffffffffffffffffffffffffffffffffffff168152602001908152602001600020600083815260200190815260200160002054905092915050565b61076083838360405180602001604052806000815250610aa7565b505050565b600061076f610633565b82106107b0576040517f08c379a00000000000000000000000000000000000000000000000000000000081526004016107a790613042565b60405180910390fd5b600982815481106107c4576107c3613062565b5b90600052602060002001549050919050565b6000806107e2836111e3565b9050600073ffffffffffffffffffffffffffffffffffffffff168173ffffffffffffffffffffffffffffffffffffffff1603610853576040517f08c379a000000000000000000000000000000000000000000000000000000000815260040161084a906130dd565b60405180910390fd5b80915050919050565b60008073ffffffffffffffffffffffffffffffffffffffff168273ffffffffffffffffffffffffffffffffffffffff16036108cc576040517f08c379a00000000000000000000000000000000000000000000000000000000081526004016108c39061316f565b60405180910390fd5b600360008373ffffffffffffffffffffffffffffffffffffffff1673ffffffffffffffffffffffffffffffffffffffff168152602001908152602001600020549050919050565b61091b611220565b610925600061129e565b565b606060006109348361085c565b905060008167ffffffffffffffff81111561095257610951612a3d565b5b6040519080825280602002602001820160405280156109805781602001602082028036833780820191505090505b50905060005b828110156109ca5761099885826106a0565b8282815181106109ab576109aa613062565b5b60200260200101818152505080806109c2906131be565b915050610986565b508092505050919050565b6000600b60009054906101000a900473ffffffffffffffffffffffffffffffffffffffff16905090565b606060018054610a0e90612d57565b80601f0160208091040260200160405190810160405280929190818152602001828054610a3a90612d57565b8015610a875780601f10610a5c57610100808354040283529160200191610a87565b820191906000526020600020905b815481529060010190602001808311610a6a57829003601f168201915b5050505050905090565b610aa3610a9c610d94565b8383611364565b5050565b610ab8610ab2610d94565b83610e55565b610af7576040517f08c379a0000000000000000000000000000000000000000000000000000000008152600401610aee90612f1e565b60405180910390fd5b610b03848484846114d0565b50505050565b6060610b148261152c565b9050919050565b610b23611220565b6000610b2f600c61163e565b9050610b3b600c61164c565b610b458382611662565b610b4f8183611680565b610b7c600d60009054906101000a900473ffffffffffffffffffffffffffffffffffffffff166001610a91565b7fd9dc24857f317ed9abbbb42e920ede0104231eb1d3d70236a74887ffaf15986881604051610bab919061284c565b60405180910390a1505050565b6000600560008473ffffffffffffffffffffffffffffffffffffffff1673ffffffffffffffffffffffffffffffffffffffff16815260200190815260200160002060008373ffffffffffffffffffffffffffffffffffffffff1673ffffffffffffffffffffffffffffffffffffffff16815260200190815260200160002060009054906101000a900460ff16905092915050565b610c54611220565b600073ffffffffffffffffffffffffffffffffffffffff168173ffffffffffffffffffffffffffffffffffffffff1603610cc3576040517f08c379a0000000000000000000000000000000000000000000000000000000008152600401610cba90613278565b60405180910390fd5b610ccc8161129e565b50565b60007f780e9d63000000000000000000000000000000000000000000000000000000007bffffffffffffffffffffffffffffffffffffffffffffffffffffffff1916827bffffffffffffffffffffffffffffffffffffffffffffffffffffffff19161480610d425750610d41826116f4565b5b9050919050565b610d52816117d6565b610d91576040517f08c379a0000000000000000000000000000000000000000000000000000000008152600401610d88906130dd565b60405180910390fd5b50565b600033905090565b816004600083815260200190815260200160002060006101000a81548173ffffffffffffffffffffffffffffffffffffffff021916908373ffffffffffffffffffffffffffffffffffffffff160217905550808273ffffffffffffffffffffffffffffffffffffffff16610e0f836107d6565b73ffffffffffffffffffffffffffffffffffffffff167f8c5be1e5ebec7d5bd14f71427d1e84f3dd0314c0f7b2291e5b200ac8c7c3b92560405160405180910390a45050565b600080610e61836107d6565b90508073ffffffffffffffffffffffffffffffffffffffff168473ffffffffffffffffffffffffffffffffffffffff161480610ea35750610ea28185610bb8565b5b80610ee157508373ffffffffffffffffffffffffffffffffffffffff16610ec9846104d6565b73ffffffffffffffffffffffffffffffffffffffff16145b91505092915050565b8273ffffffffffffffffffffffffffffffffffffffff16610f0a826107d6565b73ffffffffffffffffffffffffffffffffffffffff1614610f60576040517f08c379a0000000000000000000000000000000000000000000000000000000008152600401610f579061330a565b60405180910390fd5b600073ffffffffffffffffffffffffffffffffffffffff168273ffffffffffffffffffffffffffffffffffffffff1603610fcf576040517f08c379a0000000000000000000000000000000000000000000000000000000008152600401610fc69061339c565b60405180910390fd5b610fdc8383836001611817565b8273ffffffffffffffffffffffffffffffffffffffff16610ffc826107d6565b73ffffffffffffffffffffffffffffffffffffffff1614611052576040517f08c379a00000000000000000000000000000000000000000000000000000000081526004016110499061330a565b60405180910390fd5b6004600082815260200190815260200160002060006101000a81549073ffffffffffffffffffffffffffffffffffffffff02191690556001600360008573ffffffffffffffffffffffffffffffffffffffff1673ffffffffffffffffffffffffffffffffffffffff168152602001908152602001600020600082825403925050819055506001600360008473ffffffffffffffffffffffffffffffffffffffff1673ffffffffffffffffffffffffffffffffffffffff16815260200190815260200160002060008282540192505081905550816002600083815260200190815260200160002060006101000a81548173ffffffffffffffffffffffffffffffffffffffff021916908373ffffffffffffffffffffffffffffffffffffffff160217905550808273ffffffffffffffffffffffffffffffffffffffff168473ffffffffffffffffffffffffffffffffffffffff167fddf252ad1be2c89b69c2b068fc378daa952ba7f163c4a11628f55a4df523b3ef60405160405180910390a46111de8383836001611829565b505050565b60006002600083815260200190815260200160002060009054906101000a900473ffffffffffffffffffffffffffffffffffffffff169050919050565b611228610d94565b73ffffffffffffffffffffffffffffffffffffffff166112466109d5565b73ffffffffffffffffffffffffffffffffffffffff161461129c576040517f08c379a000000000000000000000000000000000000000000000000000000000815260040161129390613408565b60405180910390fd5b565b6000600b60009054906101000a900473ffffffffffffffffffffffffffffffffffffffff16905081600b60006101000a81548173ffffffffffffffffffffffffffffffffffffffff021916908373ffffffffffffffffffffffffffffffffffffffff1602179055508173ffffffffffffffffffffffffffffffffffffffff168173ffffffffffffffffffffffffffffffffffffffff167f8be0079c531659141344cd1fd0a4f28419497f9722a3daafe3b4186f6b6457e060405160405180910390a35050565b8173ffffffffffffffffffffffffffffffffffffffff168373ffffffffffffffffffffffffffffffffffffffff16036113d2576040517f08c379a00000000000000000000000000000000000000000000000000000000081526004016113c990613474565b60405180910390fd5b80600560008573ffffffffffffffffffffffffffffffffffffffff1673ffffffffffffffffffffffffffffffffffffffff16815260200190815260200160002060008473ffffffffffffffffffffffffffffffffffffffff1673ffffffffffffffffffffffffffffffffffffffff16815260200190815260200160002060006101000a81548160ff0219169083151502179055508173ffffffffffffffffffffffffffffffffffffffff168373ffffffffffffffffffffffffffffffffffffffff167f17307eab39ab6107e8899845ad3d59bd9653f200f220920489ca2b5937696c31836040516114c3919061263c565b60405180910390a3505050565b6114db848484610eea565b6114e78484848461182f565b611526576040517f08c379a000000000000000000000000000000000000000000000000000000000815260040161151d90613506565b60405180910390fd5b50505050565b606061153782610d49565b600060066000848152602001908152602001600020805461155790612d57565b80601f016020809104026020016040519081016040528092919081815260200182805461158390612d57565b80156115d05780601f106115a5576101008083540402835291602001916115d0565b820191906000526020600020905b8154815290600101906020018083116115b357829003601f168201915b5050505050905060006115e16119b6565b905060008151036115f6578192505050611639565b60008251111561162b578082604051602001611613929190613562565b60405160208183030381529060405292505050611639565b611634846119cd565b925050505b919050565b600081600001549050919050565b6001816000016000828254019250508190555050565b61167c828260405180602001604052806000815250611a35565b5050565b611689826117d6565b6116c8576040517f08c379a00000000000000000000000000000000000000000000000000000000081526004016116bf906135f8565b60405180910390fd5b806006600084815260200190815260200160002090805190602001906116ef9291906124e5565b505050565b60007f80ac58cd000000000000000000000000000000000000000000000000000000007bffffffffffffffffffffffffffffffffffffffffffffffffffffffff1916827bffffffffffffffffffffffffffffffffffffffffffffffffffffffff191614806117bf57507f5b5e139f000000000000000000000000000000000000000000000000000000007bffffffffffffffffffffffffffffffffffffffffffffffffffffffff1916827bffffffffffffffffffffffffffffffffffffffffffffffffffffffff1916145b806117cf57506117ce82611a90565b5b9050919050565b60008073ffffffffffffffffffffffffffffffffffffffff166117f8836111e3565b73ffffffffffffffffffffffffffffffffffffffff1614159050919050565b61182384848484611afa565b50505050565b50505050565b60006118508473ffffffffffffffffffffffffffffffffffffffff16611c58565b156119a9578373ffffffffffffffffffffffffffffffffffffffff1663150b7a02611879610d94565b8786866040518563ffffffff1660e01b815260040161189b949392919061366d565b6020604051808303816000875af19250505080156118d757506040513d601f19601f820116820180604052508101906118d491906136ce565b60015b611959573d8060008114611907576040519150601f19603f3d011682016040523d82523d6000602084013e61190c565b606091505b506000815103611951576040517f08c379a000000000000000000000000000000000000000000000000000000000815260040161194890613506565b60405180910390fd5b805181602001fd5b63150b7a0260e01b7bffffffffffffffffffffffffffffffffffffffffffffffffffffffff1916817bffffffffffffffffffffffffffffffffffffffffffffffffffffffff1916149150506119ae565b600190505b949350505050565b606060405180602001604052806000815250905090565b60606119d882610d49565b60006119e26119b6565b90506000815111611a025760405180602001604052806000815250611a2d565b80611a0c84611c7b565b604051602001611a1d929190613562565b6040516020818303038152906040525b915050919050565b611a3f8383611d49565b611a4c600084848461182f565b611a8b576040517f08c379a0000000000000000000000000000000000000000000000000000000008152600401611a8290613506565b60405180910390fd5b505050565b60007f01ffc9a7000000000000000000000000000000000000000000000000000000007bffffffffffffffffffffffffffffffffffffffffffffffffffffffff1916827bffffffffffffffffffffffffffffffffffffffffffffffffffffffff1916149050919050565b611b0684848484611f66565b6001811115611b4a576040517f08c379a0000000000000000000000000000000000000000000000000000000008152600401611b419061376d565b60405180910390fd5b6000829050600073ffffffffffffffffffffffffffffffffffffffff168573ffffffffffffffffffffffffffffffffffffffff1603611b9157611b8c8161208c565b611bd0565b8373ffffffffffffffffffffffffffffffffffffffff168573ffffffffffffffffffffffffffffffffffffffff1614611bcf57611bce85826120d5565b5b5b600073ffffffffffffffffffffffffffffffffffffffff168473ffffffffffffffffffffffffffffffffffffffff1603611c1257611c0d81612242565b611c51565b8473ffffffffffffffffffffffffffffffffffffffff168473ffffffffffffffffffffffffffffffffffffffff1614611c5057611c4f8482612313565b5b5b5050505050565b6000808273ffffffffffffffffffffffffffffffffffffffff163b119050919050565b606060006001611c8a84612392565b01905060008167ffffffffffffffff811115611ca957611ca8612a3d565b5b6040519080825280601f01601f191660200182016040528015611cdb5781602001600182028036833780820191505090505b509050600082602001820190505b600115611d3e578080600190039150507f3031323334353637383961626364656600000000000000000000000000000000600a86061a8153600a8581611d3257611d3161378d565b5b04945060008503611ce9575b819350505050919050565b600073ffffffffffffffffffffffffffffffffffffffff168273ffffffffffffffffffffffffffffffffffffffff1603611db8576040517f08c379a0000000000000000000000000000000000000000000000000000000008152600401611daf90613808565b60405180910390fd5b611dc1816117d6565b15611e01576040517f08c379a0000000000000000000000000000000000000000000000000000000008152600401611df890613874565b60405180910390fd5b611e0f600083836001611817565b611e18816117d6565b15611e58576040517f08c379a0000000000000000000000000000000000000000000000000000000008152600401611e4f90613874565b60405180910390fd5b6001600360008473ffffffffffffffffffffffffffffffffffffffff1673ffffffffffffffffffffffffffffffffffffffff16815260200190815260200160002060008282540192505081905550816002600083815260200190815260200160002060006101000a81548173ffffffffffffffffffffffffffffffffffffffff021916908373ffffffffffffffffffffffffffffffffffffffff160217905550808273ffffffffffffffffffffffffffffffffffffffff16600073ffffffffffffffffffffffffffffffffffffffff167fddf252ad1be2c89b69c2b068fc378daa952ba7f163c4a11628f55a4df523b3ef60405160405180910390a4611f62600083836001611829565b5050565b600181111561208657600073ffffffffffffffffffffffffffffffffffffffff168473ffffffffffffffffffffffffffffffffffffffff1614611ffa5780600360008673ffffffffffffffffffffffffffffffffffffffff1673ffffffffffffffffffffffffffffffffffffffff1681526020019081526020016000206000828254611ff29190613894565b925050819055505b600073ffffffffffffffffffffffffffffffffffffffff168373ffffffffffffffffffffffffffffffffffffffff16146120855780600360008573ffffffffffffffffffffffffffffffffffffffff1673ffffffffffffffffffffffffffffffffffffffff168152602001908152602001600020600082825461207d91906138c8565b925050819055505b5b50505050565b600980549050600a600083815260200190815260200160002081905550600981908060018154018082558091505060019003906000526020600020016000909190919091505550565b600060016120e28461085c565b6120ec9190613894565b90506000600860008481526020019081526020016000205490508181146121d1576000600760008673ffffffffffffffffffffffffffffffffffffffff1673ffffffffffffffffffffffffffffffffffffffff168152602001908152602001600020600084815260200190815260200160002054905080600760008773ffffffffffffffffffffffffffffffffffffffff1673ffffffffffffffffffffffffffffffffffffffff168152602001908152602001600020600084815260200190815260200160002081905550816008600083815260200190815260200160002081905550505b6008600084815260200190815260200160002060009055600760008573ffffffffffffffffffffffffffffffffffffffff1673ffffffffffffffffffffffffffffffffffffffff16815260200190815260200160002060008381526020019081526020016000206000905550505050565b600060016009805490506122569190613894565b90506000600a600084815260200190815260200160002054905060006009838154811061228657612285613062565b5b9060005260206000200154905080600983815481106122a8576122a7613062565b5b906000526020600020018190555081600a600083815260200190815260200160002081905550600a60008581526020019081526020016000206000905560098054806122f7576122f661391e565b5b6001900381819060005260206000200160009055905550505050565b600061231e8361085c565b905081600760008573ffffffffffffffffffffffffffffffffffffffff1673ffffffffffffffffffffffffffffffffffffffff168152602001908152602001600020600083815260200190815260200160002081905550806008600084815260200190815260200160002081905550505050565b600080600090507a184f03e93ff9f4daa797ed6e38ed64bf6a1f01000000000000000083106123f0577a184f03e93ff9f4daa797ed6e38ed64bf6a1f01000000000000000083816123e6576123e561378d565b5b0492506040810190505b6d04ee2d6d415b85acef8100000000831061242d576d04ee2d6d415b85acef810000000083816124235761242261378d565b5b0492506020810190505b662386f26fc10000831061245c57662386f26fc1000083816124525761245161378d565b5b0492506010810190505b6305f5e1008310612485576305f5e100838161247b5761247a61378d565b5b0492506008810190505b61271083106124aa5761271083816124a05761249f61378d565b5b0492506004810190505b606483106124cd57606483816124c3576124c261378d565b5b0492506002810190505b600a83106124dc576001810190505b80915050919050565b8280546124f190612d57565b90600052602060002090601f016020900481019282612513576000855561255a565b82601f1061252c57805160ff191683800117855561255a565b8280016001018555821561255a579182015b8281111561255957825182559160200191906001019061253e565b5b509050612567919061256b565b5090565b5b8082111561258457600081600090555060010161256c565b5090565b6000604051905090565b600080fd5b600080fd5b60007fffffffff0000000000000000000000000000000000000000000000000000000082169050919050565b6125d18161259c565b81146125dc57600080fd5b50565b6000813590506125ee816125c8565b92915050565b60006020828403121561260a57612609612592565b5b6000612618848285016125df565b91505092915050565b60008115159050919050565b61263681612621565b82525050565b6000602082019050612651600083018461262d565b92915050565b600081519050919050565b600082825260208201905092915050565b60005b83811015612691578082015181840152602081019050612676565b838111156126a0576000848401525b50505050565b6000601f19601f8301169050919050565b60006126c282612657565b6126cc8185612662565b93506126dc818560208601612673565b6126e5816126a6565b840191505092915050565b6000602082019050818103600083015261270a81846126b7565b905092915050565b6000819050919050565b61272581612712565b811461273057600080fd5b50565b6000813590506127428161271c565b92915050565b60006020828403121561275e5761275d612592565b5b600061276c84828501612733565b91505092915050565b600073ffffffffffffffffffffffffffffffffffffffff82169050919050565b60006127a082612775565b9050919050565b6127b081612795565b82525050565b60006020820190506127cb60008301846127a7565b92915050565b6127da81612795565b81146127e557600080fd5b50565b6000813590506127f7816127d1565b92915050565b6000806040838503121561281457612813612592565b5b6000612822858286016127e8565b925050602061283385828601612733565b9150509250929050565b61284681612712565b82525050565b6000602082019050612861600083018461283d565b92915050565b6000806000606084860312156128805761287f612592565b5b600061288e868287016127e8565b935050602061289f868287016127e8565b92505060406128b086828701612733565b9150509250925092565b6000602082840312156128d0576128cf612592565b5b60006128de848285016127e8565b91505092915050565b600081519050919050565b600082825260208201905092915050565b6000819050602082019050919050565b61291c81612712565b82525050565b600061292e8383612913565b60208301905092915050565b6000602082019050919050565b6000612952826128e7565b61295c81856128f2565b935061296783612903565b8060005b8381101561299857815161297f8882612922565b975061298a8361293a565b92505060018101905061296b565b5085935050505092915050565b600060208201905081810360008301526129bf8184612947565b905092915050565b6129d081612621565b81146129db57600080fd5b50565b6000813590506129ed816129c7565b92915050565b60008060408385031215612a0a57612a09612592565b5b6000612a18858286016127e8565b9250506020612a29858286016129de565b9150509250929050565b600080fd5b600080fd5b7f4e487b7100000000000000000000000000000000000000000000000000000000600052604160045260246000fd5b612a75826126a6565b810181811067ffffffffffffffff82111715612a9457612a93612a3d565b5b80604052505050565b6000612aa7612588565b9050612ab38282612a6c565b919050565b600067ffffffffffffffff821115612ad357612ad2612a3d565b5b612adc826126a6565b9050602081019050919050565b82818337600083830152505050565b6000612b0b612b0684612ab8565b612a9d565b905082815260208101848484011115612b2757612b26612a38565b5b612b32848285612ae9565b509392505050565b600082601f830112612b4f57612b4e612a33565b5b8135612b5f848260208601612af8565b91505092915050565b60008060008060808587031215612b8257612b81612592565b5b6000612b90878288016127e8565b9450506020612ba1878288016127e8565b9350506040612bb287828801612733565b925050606085013567ffffffffffffffff811115612bd357612bd2612597565b5b612bdf87828801612b3a565b91505092959194509250565b600067ffffffffffffffff821115612c0657612c05612a3d565b5b612c0f826126a6565b9050602081019050919050565b6000612c2f612c2a84612beb565b612a9d565b905082815260208101848484011115612c4b57612c4a612a38565b5b612c56848285612ae9565b509392505050565b600082601f830112612c7357612c72612a33565b5b8135612c83848260208601612c1c565b91505092915050565b60008060408385031215612ca357612ca2612592565b5b6000612cb1858286016127e8565b925050602083013567ffffffffffffffff811115612cd257612cd1612597565b5b612cde85828601612c5e565b9150509250929050565b60008060408385031215612cff57612cfe612592565b5b6000612d0d858286016127e8565b9250506020612d1e858286016127e8565b9150509250929050565b7f4e487b7100000000000000000000000000000000000000000000000000000000600052602260045260246000fd5b60006002820490506001821680612d6f57607f821691505b602082108103612d8257612d81612d28565b5b50919050565b7f4552433732313a20617070726f76616c20746f2063757272656e74206f776e6560008201527f7200000000000000000000000000000000000000000000000000000000000000602082015250565b6000612de4602183612662565b9150612def82612d88565b604082019050919050565b60006020820190508181036000830152612e1381612dd7565b9050919050565b7f4552433732313a20617070726f76652063616c6c6572206973206e6f7420746f60008201527f6b656e206f776e6572206f7220617070726f76656420666f7220616c6c000000602082015250565b6000612e76603d83612662565b9150612e8182612e1a565b604082019050919050565b60006020820190508181036000830152612ea581612e69565b9050919050565b7f4552433732313a2063616c6c6572206973206e6f7420746f6b656e206f776e6560008201527f72206f7220617070726f76656400000000000000000000000000000000000000602082015250565b6000612f08602d83612662565b9150612f1382612eac565b604082019050919050565b60006020820190508181036000830152612f3781612efb565b9050919050565b7f455243373231456e756d657261626c653a206f776e657220696e646578206f7560008201527f74206f6620626f756e6473000000000000000000000000000000000000000000602082015250565b6000612f9a602b83612662565b9150612fa582612f3e565b604082019050919050565b60006020820190508181036000830152612fc981612f8d565b9050919050565b7f455243373231456e756d657261626c653a20676c6f62616c20696e646578206f60008201527f7574206f6620626f756e64730000000000000000000000000000000000000000602082015250565b600061302c602c83612662565b915061303782612fd0565b604082019050919050565b6000602082019050818103600083015261305b8161301f565b9050919050565b7f4e487b7100000000000000000000000000000000000000000000000000000000600052603260045260246000fd5b7f4552433732313a20696e76616c696420746f6b656e2049440000000000000000600082015250565b60006130c7601883612662565b91506130d282613091565b602082019050919050565b600060208201905081810360008301526130f6816130ba565b9050919050565b7f4552433732313a2061646472657373207a65726f206973206e6f74206120766160008201527f6c6964206f776e65720000000000000000000000000000000000000000000000602082015250565b6000613159602983612662565b9150613164826130fd565b604082019050919050565b600060208201905081810360008301526131888161314c565b9050919050565b7f4e487b7100000000000000000000000000000000000000000000000000000000600052601160045260246000fd5b60006131c982612712565b91507fffffffffffffffffffffffffffffffffffffffffffffffffffffffffffffffff82036131fb576131fa61318f565b5b600182019050919050565b7f4f776e61626c653a206e6577206f776e657220697320746865207a65726f206160008201527f6464726573730000000000000000000000000000000000000000000000000000602082015250565b6000613262602683612662565b915061326d82613206565b604082019050919050565b6000602082019050818103600083015261329181613255565b9050919050565b7f4552433732313a207472616e736665722066726f6d20696e636f72726563742060008201527f6f776e6572000000000000000000000000000000000000000000000000000000602082015250565b60006132f4602583612662565b91506132ff82613298565b604082019050919050565b60006020820190508181036000830152613323816132e7565b9050919050565b7f4552433732313a207472616e7366657220746f20746865207a65726f2061646460008201527f7265737300000000000000000000000000000000000000000000000000000000602082015250565b6000613386602483612662565b91506133918261332a565b604082019050919050565b600060208201905081810360008301526133b581613379565b9050919050565b7f4f776e61626c653a2063616c6c6572206973206e6f7420746865206f776e6572600082015250565b60006133f2602083612662565b91506133fd826133bc565b602082019050919050565b60006020820190508181036000830152613421816133e5565b9050919050565b7f4552433732313a20617070726f766520746f2063616c6c657200000000000000600082015250565b600061345e601983612662565b915061346982613428565b602082019050919050565b6000602082019050818103600083015261348d81613451565b9050919050565b7f4552433732313a207472616e7366657220746f206e6f6e20455243373231526560008201527f63656976657220696d706c656d656e7465720000000000000000000000000000602082015250565b60006134f0603283612662565b91506134fb82613494565b604082019050919050565b6000602082019050818103600083015261351f816134e3565b9050919050565b600081905092915050565b600061353c82612657565b6135468185613526565b9350613556818560208601612673565b80840191505092915050565b600061356e8285613531565b915061357a8284613531565b91508190509392505050565b7f45524337323155524953746f726167653a2055524920736574206f66206e6f6e60008201527f6578697374656e7420746f6b656e000000000000000000000000000000000000602082015250565b60006135e2602e83612662565b91506135ed82613586565b604082019050919050565b60006020820190508181036000830152613611816135d5565b9050919050565b600081519050919050565b600082825260208201905092915050565b600061363f82613618565b6136498185613623565b9350613659818560208601612673565b613662816126a6565b840191505092915050565b600060808201905061368260008301876127a7565b61368f60208301866127a7565b61369c604083018561283d565b81810360608301526136ae8184613634565b905095945050505050565b6000815190506136c8816125c8565b92915050565b6000602082840312156136e4576136e3612592565b5b60006136f2848285016136b9565b91505092915050565b7f455243373231456e756d657261626c653a20636f6e736563757469766520747260008201527f616e7366657273206e6f7420737570706f727465640000000000000000000000602082015250565b6000613757603583612662565b9150613762826136fb565b604082019050919050565b600060208201905081810360008301526137868161374a565b9050919050565b7f4e487b7100000000000000000000000000000000000000000000000000000000600052601260045260246000fd5b7f4552433732313a206d696e7420746f20746865207a65726f2061646472657373600082015250565b60006137f2602083612662565b91506137fd826137bc565b602082019050919050565b60006020820190508181036000830152613821816137e5565b9050919050565b7f4552433732313a20746f6b656e20616c7265616479206d696e74656400000000600082015250565b600061385e601c83612662565b915061386982613828565b602082019050919050565b6000602082019050818103600083015261388d81613851565b9050919050565b600061389f82612712565b91506138aa83612712565b9250828210156138bd576138bc61318f565b5b828203905092915050565b60006138d382612712565b91506138de83612712565b9250827fffffffffffffffffffffffffffffffffffffffffffffffffffffffffffffffff038211156139135761391261318f565b5b828201905092915050565b7f4e487b7100000000000000000000000000000000000000000000000000000000600052603160045260246000fdfea264697066735822122079236d71aa49537303d41a1866be59d78da2f45851bb3f3b9594d3a3d62855a264736f6c634300080d0033",
  "immutableReferences": {},
  "source": "// SPDX-License-Identifier: MIT\r\n// This contract is for our NFC\r\npragma solidity ^0.8.13;\r\n\r\nimport \"@openzeppelin/contracts/token/ERC721/ERC721.sol\"; // implements the ERC721 standard\r\nimport \"@openzeppelin/contracts/token/ERC721/extensions/ERC721Enumerable.sol\"; // Enums tokens and owners\r\nimport \"@openzeppelin/contracts/token/ERC721/extensions/ERC721URIStorage.sol\"; // store the tokenURIs on chain in storage, which is what allows us to store the metadata we upload to IPFS off-chain.\r\nimport \"@openzeppelin/contracts/access/Ownable.sol\"; // Allows me and Ram modify the contract\r\nimport \"@openzeppelin/contracts/utils/Counters.sol\"; // We use a counter to track the total number of NFTs and assign a unique token id to each NFT.\r\n\r\ncontract FlatNFT is ERC721, ERC721URIStorage, ERC721Enumerable, Ownable {\r\n    using Counters for Counters.Counter;\r\n    Counters.Counter private _tokenIdCounter; // might change to tokenID or tokenIdCounter if decide to keep counter\r\n    address marketplaceContract;\r\n    event NFTMinted(uint256);\r\n\r\n    constructor(address _marketplaceContract)\r\n        ERC721(\"Meta DeCenterland\", \"MDCL\")\r\n    {\r\n        marketplaceContract = _marketplaceContract;\r\n    }\r\n\r\n    // function mint(string memory _tokenURI) public {\r\n    //     _tokenIds.increment();\r\n    //     uint256 newTokenId = _tokenIds.current();\r\n    //     _safeMint(msg.sender, newTokenId);\r\n    //     _setTokenURI(newTokenId, _tokenURI);\r\n    //     setApprovalForAll(marketplaceContract, true);\r\n    //     emit NFTMinted(newTokenId);\r\n    // }\r\n\r\n    function safeMint(address to, string memory uri) public onlyOwner {\r\n        uint256 tokenId = _tokenIdCounter.current();\r\n        _tokenIdCounter.increment();\r\n        _safeMint(to, tokenId);\r\n        _setTokenURI(tokenId, uri);\r\n\r\n        setApprovalForAll(marketplaceContract, true);\r\n        emit NFTMinted(tokenId);\r\n    }\r\n\r\n    // The following functions are overrides required by Solidity.\r\n\r\n    function _beforeTokenTransfer(\r\n        address from,\r\n        address to,\r\n        uint256 tokenId,\r\n        uint256 batchSize\r\n    ) internal override(ERC721, ERC721Enumerable) {\r\n        super._beforeTokenTransfer(from, to, tokenId, batchSize);\r\n    }\r\n\r\n    function _burn(uint256 tokenId)\r\n        internal\r\n        override(ERC721, ERC721URIStorage)\r\n    {\r\n        super._burn(tokenId);\r\n    }\r\n\r\n    function tokenURI(uint256 tokenId)\r\n        public\r\n        view\r\n        override(ERC721, ERC721URIStorage)\r\n        returns (string memory)\r\n    {\r\n        return super.tokenURI(tokenId);\r\n    }\r\n\r\n    function supportsInterface(bytes4 interfaceId)\r\n        public\r\n        view\r\n        override(ERC721, ERC721Enumerable)\r\n        returns (bool)\r\n    {\r\n        return super.supportsInterface(interfaceId);\r\n    }\r\n\r\n    function tokensOfOwner(address owner)\r\n        external\r\n        view\r\n        returns (uint256[] memory)\r\n    {\r\n        uint256 tokenCount = balanceOf(owner);\r\n        uint256[] memory tokensId = new uint256[](tokenCount);\r\n        for (uint256 i = 0; i < tokenCount; i++) {\r\n            tokensId[i] = tokenOfOwnerByIndex(owner, i);\r\n        }\r\n        return tokensId;\r\n    }\r\n}\r\n",
  "sourcePath": "D:\\GitHub\\Meta_DeCentraland\\Test_Meta_DeCenterland\\contracts\\FlatNFT.sol",
  "compiler": {
    "name": "solc",
    "version": "0.8.13+commit.abaa5c0e.Emscripten.clang"
  },
  "schemaVersion": "3.4.11",
  "updatedAt": "2023-02-23T21:27:04.277Z",
  "networkType": "ethereum",
  "devdoc": {
    "kind": "dev",
    "methods": {
      "approve(address,uint256)": {
        "details": "See {IERC721-approve}."
      },
      "balanceOf(address)": {
        "details": "See {IERC721-balanceOf}."
      },
      "getApproved(uint256)": {
        "details": "See {IERC721-getApproved}."
      },
      "isApprovedForAll(address,address)": {
        "details": "See {IERC721-isApprovedForAll}."
      },
      "name()": {
        "details": "See {IERC721Metadata-name}."
      },
      "owner()": {
        "details": "Returns the address of the current owner."
      },
      "ownerOf(uint256)": {
        "details": "See {IERC721-ownerOf}."
      },
      "renounceOwnership()": {
        "details": "Leaves the contract without owner. It will not be possible to call `onlyOwner` functions anymore. Can only be called by the current owner. NOTE: Renouncing ownership will leave the contract without an owner, thereby removing any functionality that is only available to the owner."
      },
      "safeTransferFrom(address,address,uint256)": {
        "details": "See {IERC721-safeTransferFrom}."
      },
      "safeTransferFrom(address,address,uint256,bytes)": {
        "details": "See {IERC721-safeTransferFrom}."
      },
      "setApprovalForAll(address,bool)": {
        "details": "See {IERC721-setApprovalForAll}."
      },
      "symbol()": {
        "details": "See {IERC721Metadata-symbol}."
      },
      "tokenByIndex(uint256)": {
        "details": "See {IERC721Enumerable-tokenByIndex}."
      },
      "tokenOfOwnerByIndex(address,uint256)": {
        "details": "See {IERC721Enumerable-tokenOfOwnerByIndex}."
      },
      "totalSupply()": {
        "details": "See {IERC721Enumerable-totalSupply}."
      },
      "transferFrom(address,address,uint256)": {
        "details": "See {IERC721-transferFrom}."
      },
      "transferOwnership(address)": {
        "details": "Transfers ownership of the contract to a new account (`newOwner`). Can only be called by the current owner."
      }
    },
    "version": 1
  },
  "userdoc": {
    "kind": "user",
    "methods": {},
    "version": 1
  }
}